:1000000098090020A10D00009D0D00009D0D00002D
:1000100000000000000000000000000000000000E0
:100020000000000000000000000000009D0D000026
:1000300000000000000000009D0D00009D0D00006C
:100040009D0D00009D0D00009D0D00009D0D000008
:100050008D0500009D0D00009D0D00009D0D000010
:10006000E10500009D0D00009D0D00009D0D0000AC
:100070009D0D000000000000000000009D0D00002C
:100080009D0D00009D0D00005D0500006D05000048
:100090007D05000000000000000000009D0D000034
:1000A0009D0D00009D0D00009D0D00009D0D0000A8
:1000B0000000000010B5064C2378002B07D1054B3B
:1000C000002B02D0044800E000BF0123237010BDC4
:1000D0008800002000000000E41C0000084B10B560
:1000E000002B03D00749084800E000BF0748036819
:1000F000002B00D110BD064B002BFBD09847F9E731
:10010000000000008C000020E41C0000E41C000043
:1001100000000000044A137802210B431370537847
:100120005BB2002BFBDB70470018004000B583B0CA
:10013000124A936940210B43936101A900230B707C
:1001400005200F4B984705200E4B98470E4A137811
:1001500001210B43137053785BB2002BFBDB0B4B7D
:1001600019004031002204C39942FCD11022084BEF
:100170001A60084B984703B000BDC0460004004019
:10018000450C0000B90B000000180040D000002012
:1001900000E100E01501000000230360436001223C
:1001A0000272427283720233C3727047F0B583B039
:1001B00005000C0001A900234B70CB7023790B7054
:1001C000237A8B702078154B984700201F2D00D87C
:1001D000134807222A409200E77AA37A002B01D025
:1001E00008231F43EB089B00C31899690F2696400C
:1001F000B14397403A000A439A61637A002B06D1D3
:1002000043690122AA409343436103B0F0BD4269B0
:100210000123AB4013434361F7E7C0463D0D0000A7
:100220000018004010B500230021012402E0013332
:10023000202B06D0C25C002AF9D022009A4011433C
:10024000F5E7024B5A681143596010BD0018004091
:1002500030B585B001AA0B4B32CB32C2019B98421C
:100260000DD0029B984208D00023039A824202D00C
:10027000180005B030BD023302E0012300E0002386
:10028000DBB2F5E7301C0000F0B587B004000D00CC
:1002900016000800854B9847070005AB1B221A7013
:1002A00001325A709A7003AB802212011A808022A8
:1002B00052015A80802292019A800023A360E36059
:1002C00023616361237663768200794BD450256085
:1002D000B378082B06D023712B880520DB0705D5C2
:1002E00007B0F0BD1720FA07FAD5F4E7EB7B17301B
:1002F000DB06F5D42B889B07F2D4337C002B79D115
:10030000337F002B00D081E06A49086A7A0003AB92
:10031000D35A03430B62B378082B00D186E001A9BE
:1003200033780B7005ABDF5D3800634B98473800BE
:10033000624B98473189B3880B43B178B279114346
:1003400019437378002B02D080231B0119432268C4
:10035000D37B5BB2002BFBDB2980717B4B1E994169
:100360008900B37B002B01D0012319432268D37B82
:100370005BB2002BFBDBFF232B71002905D0226829
:10038000D37B5BB2002BFBDB6971B17AF37A002B74
:1003900001D010231943337B002B01D020231943B4
:1003A0002268D37B5BB2002BFBDBA9712268D37B75
:1003B0005BB2002BFBDB2379042B3FD0082B5ED0F4
:1003C0001720002B00D08BE7D37B5BB2002BFBDB2D
:1003D000338D2B822268D37B5BB2002BFBDB738DCA
:1003E0002B832268D37B5BB2002BFBDBB38D6B834B
:1003F000002075E702A901238B700022CA70327EAB
:100400000A704B70307D2E4B984779E702A9012383
:100410008B700022CA702432B21812780A704B70A6
:100420001F33F3181878264B98476DE7086A7A1C33
:10043000520003ABD35A03430B6270E7D37B5BB22A
:10044000002BFBDB2823F35C2B742268D37B5BB28D
:10045000002BFBDB2923F35C2B752268D37B5BB27B
:10046000002BFBDB2A23F35C2B762268D37B5BB269
:10047000002BFBDB2B23F35C6B76002030E7D37B78
:100480005BB2002BFBDBB36A2B612268D37B5BB2D0
:10049000002BFBDBF36AAB612268D37B5BB2002BE2
:1004A000FBDB336BEB6100201AE7C0465102000012
:1004B0001001002000040040450C0000B90B0000B2
:1004C0003D0D0000931C9B001950022A09D0032AFD
:1004D0000CD0012393401A00037E134303760020BF
:1004E0007047037E102213430376F8E7037E202231
:1004F00013430376F3E7000070B58000164BC45831
:1005000023689D7B227E637E13401D40EB0706D44B
:10051000AB070BD4EB0610D4AB0615D470BD20008E
:10052000A3689847012322689373F1E72000E368EA
:100530009847022322689373ECE7200023699847C9
:10054000102322689373E7E72000636998472368C4
:1005500020229A73E2E7C0461001002010B5002067
:10056000014B984710BDC046F904000010B50120AA
:10057000014B984710BDC046F904000010B5022099
:10058000014B984710BDC046F904000070B5002229
:10059000104B1A70002310491F25104E0D4C0AE015
:1005A0000D4908E023780133DBB223700F2B10D8FC
:1005B00000211F2BF4D9280018400122824008692D
:1005C0001042EFD00A619B009B59002BEAD098475C
:1005D000E8E770BD1C01002000180040D00000209A
:1005E00010B50B4B1C690B498A69986802439A60E5
:1005F000094B8B61002C05D0206863689847A4687C
:10060000002CF9D1024BD9689A688A439A6010BDD0
:100610000000002000040042FFFF0F0F064A136A8B
:1006200002210B4313620122044B1A7019000B784C
:100630001342FCD17047C046000400400004004251
:1006400001230370002343708370C3707047000060
:10065000F0B583B005000E00244B9847244B1B686F
:10066000DA070ED55B08012401221A420AD05B0882
:100670000134E4B20C2CF8D11E4B9847142003B07F
:10068000F0BD00241A4A11680123A3400B431360F4
:100690001379013B1371174B98471420FF2CEED0B0
:1006A0002C707378022B0AD001A9F3780B70E71D28
:1006B000FFB23800104B98473800104B9847B3787A
:1006C0001B04FE22D203134072781206C021890453
:1006D0000A40134332789206C02109050A401343A9
:1006E0000F2214401C436C600020C8E7690700001B
:1006F00000000020A9070000450C0000B90B000015
:10070000037801331B02F822520113401F221140CB
:100710000B43034A13814368536000207047C0466F
:100720000004004270B50020084B98470500084CB3
:10073000FA218900A047074B186007492800A04705
:10074000064B18600522064B1A6070BD2D0B000089
:10075000A91000001400002040420F0018000020E3
:1007600010E000E0704700000C4B1B68002B06D126
:10077000EFF31083002B07D00022094B1A70074AB1
:10078000136801331360704772B6BFF35F8F0022A6
:10079000044B1A700132024B1A70F0E7A4000020DB
:1007A000A80000201C000020084B1A68013A1A60BB
:1007B0001B68002B09D1064B1B78002B05D00122AA
:1007C000044B1A70BFF35F8F62B67047A40000201D
:1007D000A80000201C00002010B5082803D88000C5
:1007E0001B4B1B589F46002030E01A4B18692DE028
:1007F000194B1B6A9B059B0F1848D84026E0154BE8
:10080000586923E0134B1B6800209B071ED5124933
:100810001022CB681A42FCD00E4B1B685B0701D438
:100820000F4813E000200F4B98470A4B9B681B04AE
:100830001B0C58430AE05023074AD35C00205B0797
:1008400004D5044BD86801E08020000210BDC046EA
:100850003C1C0000AC0000200008004000127A00A0
:10086000006CDC02610C000070B50C490B6A047866
:10087000857840780122104080014026B34303432D
:100880002A40D201802083431343032222401202D4
:100890000348034013430B6270BDC046000800408C
:1008A000FFFCFFFF082803D88000254B1B589F46FC
:1008B000172044E0234A136A02210B4313620020ED
:1008C0003DE0204A936902210B439361002036E00A
:1008D0001C4A138A02210B43138200202FE0194A7D
:1008E000938A02210B439382002028E016490B686B
:1008F000022213430B60134B9A8419000E32CB680B
:100900001A42FCD0104A91680E4BD96252689A6222
:1009100000229A8419001032CB681A42FCD00A4B8C
:100920001B689BB2074A9384002008E005494422D3
:100930008B5C022003438B54002000E000207047B2
:10094000601C000000080040AC000020F0B5C64666
:1009500000B584B0C222D200234B9A60234A536868
:100960001E218B431C390B43536001236A461370CD
:1009700000241F4DE0B26946A8470134252CF9D167
:1009800003A800244470012585700470194B984712
:100990000620194B9847194B984701956B465C7098
:1009A000062398466B4642461A701C725C72694672
:1009B0000320134FB8470320124EB047124B1C724E
:1009C0005C729C72DC7201956B465C7042461A70D8
:1009D0001C725C7269460020B8470020B04704B022
:1009E00004BC9046F0BDC0460008004000400041F5
:1009F000450C000069080000A50800000D0A000071
:100A0000310A0000E90A000000040040064A936928
:100A100008210B4393610122044B1A7019000B78D3
:100A20001342FCD17047C04600040040000C004057
:100A300070B5060004000D782D0205434B78002B9D
:100A400002D08023DB021D434B7A002B02D080238F
:100A50001B031D434868012810D9431E184234D196
:100A6000022830D90223002201325B009842FBD8D1
:100A700012023243140080235B031D430B7A002BC8
:100A800002D080239B031D43134A53785BB2002B93
:100A9000FBDB124B9847124B1E700F4A53785BB228
:100AA000002BFBDB0C4B9C601A0053785BB2002BD5
:100AB000FBDB094A5368802149020B401D43556006
:100AC000084B984770BD0022D2E7040234438023CC
:100AD0009B021D43D2E7C046000C0040690700009E
:100AE000080C0040A907000010B504000B4A537819
:100AF0005BB2002BFBDB0A4B98470A4B1C70074A82
:100B000053785BB2002BFBDB044A516880235B0205
:100B10000B435360044B984710BDC046000C004087
:100B200069070000040C0040A907000070B504002C
:100B30001A4A53785BB2002BFBDB194B9847194BD1
:100B40001C70164A53785BB2002BFBDB134E7068A7
:100B5000C004C00E144B98470500124B1C707668F9
:100B6000F602F60F114B1C700C4A53785BB2002B47
:100B7000FBDB0A4B9C682402240C0D4B9847002E8B
:100B800007D1012C07D9210028000A4B98470500FE
:100B900001E00134E540280070BDC046000C004073
:100BA00069070000040C0040D9070000080C004051
:100BB000A9070000A910000010B50400064B9847D3
:100BC000064B1C70064A53888021C9010B43538091
:100BD000044B984710BDC04669070000020C004056
:100BE000000C0040A907000010B504000F4B984707
:100BF0000F4B1C700F4A53881B05180F53880E4962
:100C00000B40538053880D490B40538011008022C4
:100C1000D2014B881342FCD106494A880302064898
:100C2000024013434B80064B984710BD69070000F4
:100C3000020C0040000C0040FFF0FFFFFFBFFFFF71
:100C4000A907000010B50C7824020443024B984712
:100C5000A4B2024B5C8010BDE90B0000000C004008
:100C600010B50400064B9847064B1C70064B5C8879
:100C70002405240F054B98472000054B984710BDCD
:100C800069070000020C0040000C0040A9070000AA
:100C90002D0B000030B5D378002B35D11378802B85
:100CA00029D01B0680246402234354780225AC43D8
:100CB00006D19478002C20D18024A40223434160E3
:100CC0005478013C012C1CD90D042D0CA024E40502
:100CD0002C431C4384620D0CD02424062C431C435B
:100CE0008462D478002C22D15B031CD59378012B2D
:100CF0001ED0416117E00023D7E7C024E40223435C
:100D0000DDE70D4C2340DFE741600C04240CA023F9
:100D1000DB05234383620C0CD0231B062343836231
:100D2000D378002B03D15378013B012B02D930BD7E
:100D30008161F8E78160FAE7FFFFFBFF10B50A0069
:100D4000C1090023002904D14309DB0105498C4670
:100D500063441F242040012181401800024B984722
:100D600010BDC04600440041950C000070470000D3
:100D700010B5054B9847054B9847054B9847054BD1
:100D80009847054B984710BD4D09000065070000C6
:100D90001D0600002D0100006D0D0000FEE70000A3
:100DA000F8B52A4A2A4B9A4211D01A00294B9A4286
:100DB0000DD2294A03339B1A9B0801339B00002262
:100DC000234822498C58845004329A42FAD1234A4B
:100DD000234B9A420AD2D34321495B1803218B4308
:100DE00004339B18002102C29342FCD11D4AFF210B
:100DF0001D4B8B439360FD3990235B001B4AD15000
:100E00001B4AD3780325AB4302242343D370D37802
:100E10000C27BB4308263343D370164B987B3022F4
:100E20009043202210439873997BB94331439973BF
:100E30009A7BAA4322439A730F4A536880210B433B
:100E400053600E4B98470E4B9847FEE7E41C00009A
:100E500000000020880000200400002088000020FE
:100E60009401002000ED00E000000000007000414F
:100E7000005000410048004100400041951300002F
:100E8000751000000300064A1268002A04D0044AC4
:100E90001068C318136070470249014A1160F6E7F1
:100EA000C40000209809002010B50B4B598B89B263
:100EB0000A480B4B984702000A4B18600A4C0B4932
:100EC00020000B4B984720000A4B9847001903223B
:100ED00009490A4B984710BD0030004200127A00C1
:100EE000BD1100002000002020010020841C000013
:100EF000F113000035140000881C0000DD13000011
:100F000000B58FB001AA00239370002193809171E6
:100F10001381517091729173517311745361936184
:100F20001177136253621385538593850133D3720E
:100F300013730233137003490348044B98470FB0EF
:100F400000BDC0460030004274010020890200004C
:100F5000F0B587B0394B06225A71053ADA70384A33
:100F600011681B795A1E93411B01344A9278002A5A
:100F70005FD120321343314A1278002A02D08022F6
:100F8000520113432D4A5278002A02D08022920146
:100F900013434A890620024313439BB24B81284CDA
:100FA000022228492000284B98472068274B984761
:100FB000274B1A5C1F23134001273A009A40254B08
:100FC0001A60637E102213436376102322685373E2
:100FD00003AD2800204B98471223039300266E6030
:100FE0002F720E3BEB726E72290002201B4B98474A
:100FF0001B4DAF7068461B4B98470E236A46937093
:10100000167002235370694601A8174B98471321A5
:1010100001A8164B98472800154B98472268D37BA8
:101020005BB2002BFBDB138802210B43138007B05C
:10103000F0BD9022520013439DE7C0464C010020B2
:1010400074010020A90E0000C50400005102000038
:101050008C1C000000E100E099010000AD010000DF
:101060005401002041060000510600000107000065
:101070002502000010B5074B9847074B9847074BD0
:101080009847074B98470122064B1A70BFF35F8FB2
:1010900062B6FEE7710D000025070000010F000099
:1010A000510F00001C000020002243088B4274D323
:1010B00003098B425FD3030A8B4244D3030B8B4259
:1010C00028D3030C8B420DD3FF22090212BA030C62
:1010D0008B4202D31212090265D0030B8B4219D343
:1010E00000E0090AC30B8B4201D3CB03C01A524163
:1010F000830B8B4201D38B03C01A5241430B8B42AB
:1011000001D34B03C01A5241030B8B4201D30B0393
:10111000C01A5241C30A8B4201D3CB02C01A5241BA
:10112000830A8B4201D38B02C01A5241430A8B427D
:1011300001D34B02C01A5241030A8B4201D30B0266
:10114000C01A5241CDD2C3098B4201D3CB01C01A80
:10115000524183098B4201D38B01C01A524143098A
:101160008B4201D34B01C01A524103098B4201D378
:101170000B01C01A5241C3088B4201D3CB00C01AE5
:10118000524183088B4201D38B00C01A524143085D
:101190008B4201D34B00C01A5241411A00D2014682
:1011A000524110467047FFE701B5002000F0F0F80B
:1011B00002BDC0460029F7D076E7704703460B43CF
:1011C0007FD4002243088B4274D303098B425FD340
:1011D000030A8B4244D3030B8B4228D3030C8B426C
:1011E0000DD3FF22090212BA030C8B4202D3121252
:1011F000090265D0030B8B4219D300E0090AC30B27
:101200008B4201D3CB03C01A5241830B8B4201D3D3
:101210008B03C01A5241430B8B4201D34B03C01ABC
:101220005241030B8B4201D30B03C01A5241C30A34
:101230008B4201D3CB02C01A5241830A8B4201D3A5
:101240008B02C01A5241430A8B4201D34B02C01A8F
:101250005241030A8B4201D30B02C01A5241CDD234
:10126000C3098B4201D3CB01C01A524183098B427F
:1012700001D38B01C01A524143098B4201D34B0168
:10128000C01A524103098B4201D30B01C01A5241CB
:10129000C3088B4201D3CB00C01A524183088B4252
:1012A00001D38B00C01A524143088B4201D34B003B
:1012B000C01A5241411A00D20146524110467047AD
:1012C0005DE0CA0F00D04942031000D340425340B2
:1012D00000229C4603098B422DD3030A8B4212D372
:1012E000FC22890112BA030A8B420CD389019211A4
:1012F0008B4208D3890192118B4204D389013AD0E1
:10130000921100E08909C3098B4201D3CB01C01AB5
:10131000524183098B4201D38B01C01A52414309C8
:101320008B4201D34B01C01A524103098B4201D3B6
:101330000B01C01A5241C3088B4201D3CB00C01A23
:10134000524183088B4201D38B00C01A5241D9D23B
:1013500043088B4201D34B00C01A5241411A00D2BC
:101360000146634652415B10104601D34042002BB8
:1013700000D54942704763465B1000D3404201B537
:10138000002000F005F802BD0029F8D016E77047EC
:101390007047C04670B500260C4D0D4C641BA41060
:1013A000A64209D1002600F08DFC0A4D0A4C641BB0
:1013B000A410A64205D170BDB300EB589847013682
:1013C000EEE7B300EB5898470136F2E7D01C000077
:1013D000D01C0000D01C0000D41C0000002310B55D
:1013E0009A4200D110BDCC5CC4540133F8E7000030
:1013F0000EB410B59DB002A9029008610B4882247A
:1014000088604861012040421FABC881084804CB76
:10141000A400006801938C8100F076F80023029A02
:1014200013701DB010BC08BC03B01847FFFFFF7F4E
:10143000240000200023C25C0133002AFBD1581E87
:1014400070470000F0B58E6885B007000C0003926D
:1014500001939E4239D890238A89DB001A4234D006
:101460000325096923685B1A0293636902985D4347
:10147000EB0F5D19019B6D1001331B18AB4200D9B6
:101480001D00530532D52900380000F031FB061E3F
:1014900009D10C233B6040230120A2894042134321
:1014A000A38105B0F0BD029A2169FFF797FFA389D8
:1014B000144A1A4080231343A381029B2661F61825
:1014C00026606561019EED1AA560019BB34200D2C2
:1014D0001E0032000399206800F0ADFAA3680020D6
:1014E0009B1BA36023689E192660DAE72A00380058
:1014F00000F05CFB061EE0D12169380000F0AEFA76
:10150000C7E7C0467FFBFFFFF0B59FB00290059391
:101510008B890F0016001B0611D50B69002B0ED10D
:10152000402100F0E5FA38603861002805D10C232D
:10153000029A013813601FB0F0BD40237B61002385
:1015400006AD6B6120336B761033AB7634002378B5
:10155000002B47D1A31B04930DD0A31B32003900ED
:101560000298FFF76FFF431C00D1B5E06A69049B46
:10157000944663446B612378002B00D1ACE00122D8
:10158000002352426A6002A95432521801342B607F
:10159000EB60AB601370AB65584E052221783000CC
:1015A00000F03EFA621C002820D12968CB0604D541
:1015B000532302AE20309B1918700B0704D5532318
:1015C0002B2002AE9B19187023782A2B16D00020EE
:1015D0000A21099B2278303A092A55D9002815D0CA
:1015E000099313E0252BB5D00134B0E70123801B0C
:1015F0008340296814000B432B60CDE7059B181D21
:101600001B680590002B39DB0993140023782E2BDF
:101610000BD16378621C2A2B3ED1059B02341A1D24
:101620001B680592002B34DB0793354E217803228B
:10163000300000F0F5F9002806D04023801B8340DD
:101640002A68013413432B60217806222D48661C3A
:10165000297600F0E5F9002846D02B4B002B2FD13E
:101660002968059B0722C90528D59B189343083391
:1016700005936B69039A9B186B6167E75B42EB60AC
:1016800002230B432B60C0E74B4301349B1801201E
:10169000A0E701235B42C7E7002314000A201A00D9
:1016A0006B6021783039092903D9002BBDD007920E
:1016B000BBE74243013452180123F2E70733D5E771
:1016C00005AB00933A00114B2900029800E000BFDF
:1016D0000390039B0133CCD1BB890B985B0600D4EC
:1016E00029E70120404226E705AB00933A00074B6B
:1016F0002900029800F07AF8EAE7C0468F1C000043
:10170000951C0000991C000000000000451400001A
:10171000F7B5150001938A680B6900900C0093429D
:1017200000DA130022002B6043321278002A01D025
:1017300001332B6023689B0602D52B6802332B6094
:10174000062723681F4027D0230043331B785A1EE7
:1017500093412268920630D42200019943320098C6
:10176000089EB047431C25D0062320682A68E168FC
:1017700003400025042B03D18D1AEB43DB171D40DA
:10178000A3682269934201DD9B1AED180027BD4230
:1017900020D1002010E00137E3682A689B1A9F429D
:1017A000D2DA22000123193201990098089EB0472D
:1017B000431CF0D101204042FEBD3020E1184331EE
:1017C000087021005A1C45310978A21843320233AF
:1017D0001170C1E7220001231A3201990098089E76
:1017E000B047431CE6D00137D1E70000F0B58BB01D
:1017F00006920A0043320793059004920A7E0C0079
:10180000109B6E2A00D18FE017D8632A2CD008D8FD
:10181000002A00D199E0582A54D02600423632706E
:1018200029E0642A01D0692AF7D121681A680806DC
:1018300023D5111D1960156825E0732A00D188E0B1
:1018400008D86F2A29D0702AE7D1202209680A43D4
:10185000226003E0752A20D0782ADED12200782188
:10186000453211706C4A30E00E001A684236111D84
:10187000196013683370012379E04906D9D5111D29
:1018800019600023D55E002D03DA2D23049A6D42E2
:101890001370624B0A2703932FE02068196805062E
:1018A00003D5081D18600D6805E04006F9D50D68E0
:1018B000081D1860ADB2594B082703936F2A18D042
:1018C0000A2716E045310A70544A03921A682168C3
:1018D000101D18601568080622D5CB0702D52023F5
:1018E000194321601027002D03D1202322689A4339
:1018F00022602300002243331A706368A360002B28
:101900005CDB0422216891432160002D58D1049EA4
:10191000002B64D02600039B42361B7833705EE0B8
:101920004806DAD5ADB2D8E709681A68080605D5C1
:10193000111D1960136862691A6006E04906F7D53F
:10194000111D19601368A28A1A800023049E236166
:1019500054E01A68111D1960166800216268300091
:1019600000F05EF8002801D0801B6060636823618E
:101970000023049A137041E0236932000699059808
:10198000079DA847431C43D0236800259B070FD41D
:10199000099BE06898423DDA18003BE022000123F1
:1019A000193206990598079EB047431C30D001357F
:1019B000E368099A9B1A9D42F0DBE9E7002DA9D064
:1019C000049E28003900FFF7F5FB039B013E5B5C9A
:1019D000280033703900FFF767FB051EF1D1082F8F
:1019E00009D12368DB0706D563682269934202DCCC
:1019F0003023013E3370049B9B1B2361079B09AA84
:101A000000932100069B0598FFF782FE431CB3D18B
:101A1000012040420BB0F0BDB11C0000A01C000032
:101A2000C9B28218904201D10020704703788B42DE
:101A3000FBD00130F6E710B5884202D98B189842E6
:101A400008D300239A4207D0CC5CC4540133F9E791
:101A50008B5C8354013AFBD210BD000070B50500C9
:101A6000002910D00C1F2368002B00DAE41828008E
:101A700000F0D4F81D4A1368002B05D16360146090
:101A8000280000F0CCF870BDA34209D92168601885
:101A90008342F3D118685B6841182160EEE71300B8
:101AA0005A68002A01D0A242F9D919685818A042F0
:101AB0000BD120680918581819608242E0D11068CB
:101AC0005268411819605A60DAE7A04202D90C2323
:101AD0002B60D5E721686018824203D110685268F4
:101AE0004118216062605C60CAE7C046C8000020FF
:101AF000032370B5CD1C9D43083506000C2D1ED266
:101B00000C25A9421DD8300000F088F8254A146839
:101B10002100002919D1244C2368002B03D1300067
:101B200000F06AF820602900300000F065F8431CDE
:101B30002CD10C233000336000F071F803E0002D4D
:101B4000DFDA0C233360002070BD0B685B1B1AD4F6
:101B50000B2B03D90B60CC18256003E08C420ED10F
:101B600063681360300000F05AF8200007220B3041
:101B7000231D9043C31AE7D05A42E250E4E74B6872
:101B800063600C00EEE70C004968C2E70323C41C45
:101B90009C43A042E0D0211A300000F02DF8431CF5
:101BA000DAD1C6E7C8000020CC000020F8B5070055
:101BB0000D001600002905D11100FFF799FF040060
:101BC0002000F8BD002A03D1FFF748FF3400F7E7F3
:101BD00000F026F82C008642F2D931003800FFF7D9
:101BE00087FF041EECD029003200FFF7F7FB290025
:101BF0003800FFF733FFE3E7002370B5064C05001C
:101C000008002360FFF73EF9431C03D12368002B33
:101C100000D02B6070BDC046900100207047704717
:101C20000B1F1B68181F002B01DA0B58C0187047D8
:101C3000002C00420030004200340042EA0700005D
:101C4000E6070000E607000048080000480800001A
:101C5000FE070000F007000004080000360800003E
:101C6000D0080000B0080000B00800003C090000E7
:101C7000C2080000DE080000B4080000EC08000004
:101C80002C090000256400000A0D00001213142323
:101C90002D302B2000686C4C006566674546470078
:101CA0003031323334353637383941424344454692
:101CB0000030313233343536373839616263646528
:101CC00066000000F8B5C046F8BC08BC9E467047E8
:101CD000DD000000F8B5C046F8BC08BC9E46704761
:041CE000B50000004B
:101CE400000000000C0000000000000000000000E4
:101CF40000000000401F0000080000000100000078
:101D040040EF070028000020000000000000000051
:101D140000000000000000000000000000000000BF
:101D240000000000000000000000000000000000AF
:101D3400000000000000000000000000000000009F
:101D4400000000000000000000000000000000008F
:101D5400000000000000000000000000000000007F
:081D6400000000000000000077
:0400000300000DA14B
:00000001FF
