S01B000073616D643230452073616E69747920746573742E7372656325
S1130000C02100207518000071180000711800004C
S113001000000000000000000000000000000000DC
S11300200000000000000000000000007118000043
S113003000000000000000007118000071180000AA
S11300407118000071180000711800007118000088
S1130050FD02000071180000B90100002108000031
S113006031080000410800005108000000000000B1
S1130070000000008915000099150000A915000072
S1130080B9150000C9150000D915000000000000D2
S113009000000000711800007118000071180000C1
S11300A07118000010B5064C2378002B07D1054BBE
S11300B0002B02D0044800E000BF0123237010BDD0
S11300C090000020000000004C290000084B10B5EF
S11300D0002B03D00749084800E000BF0748036825
S11300E0002B00D110BD064B002BFBD09847F9E73D
S11300F000000000940000204C2900004C2900005E
S1130100000000007047000070B50020084B9847BD
S11301100500084CFA218900A047074B18600749DD
S11301202800A047064B18600522064B1A6070BDD4
S113013081120000911C00000000002040420F00CA
S11301400400002010E000E00C4B1B68002B06D1DB
S1130150EFF31083002B07D00022094B1A70074AD3
S1130160136801331360704772B6BFF35F8F0022C8
S1130170044B1A700132024B1A70F0E7AC000020F5
S1130180B000002008000020084B1A68013A1A60E9
S11301901B68002B09D1064B1B78002B05D00122CC
S11301A0044B1A70BFF35F8F62B67047AC00002037
S11301B0B00000200800002010B50B4B1C690B494F
S11301C08A69986802439A60094B8B61002C05D0B8
S11301D0206863689847A468002CF9D1024BD96859
S11301E09A688A439A6010BD0C0000200004004203
S11301F0FFFF0F0F064A136A02210B431362012209
S1130200044B1A7019000B781342FCD17047C04696
S113021000040040000400420123037000234370E3
S11302208370C37070470000F0B583B005000E0002
S1130230244B9847244B1B68DA070ED55B0801242E
S113024001221A420AD05B080134E4B2082CF8D126
S11302501E4B9847142003B0F0BD00241A4A1168BD
S11302600123A3400B4313601379013B1371174B14
S113027098471420FF2CEED02C707378022B0AD0F0
S113028001A9F3780B70271DFFB23800104B984773
S11302903800104B9847B3781B04FC229203134098
S11302A072781206C02189040A40134332789206F8
S11302B0C02109050A401343072214401C436C6003
S11302C00020C8E7490100000C000020890100005B
S11302D0991300000D130000037801331B02F02270
S11302E0120113400F2211400B43034A1381436848
S11302F0536000207047C0460004004270B50022DD
S1130300104B1A70002310491F25104E0D4C0AE0A3
S11303100D4908E023780133DBB223700F2B10D88A
S113032000211F2BF4D928001840012282400869BB
S11303301042EFD00A619B009B59002BEAD09847EA
S1130340E8E770BDE800002000180040EC00002041
S1130350044A137802210B43137053785BB2002BC9
S1130360FBDB70470018004000B583B0124A936964
S113037040210B43936101A900230B7003200F4B11
S1130380984703200E4B98470E4A137801210B43DC
S1130390137053785BB2002BFBDB0B4B190040311D
S11303A0002204C39942FCD11022084B1A60084B66
S11303B0984703B000BDC0460004004099130000F4
S11303C00D13000000180040EC00002000E100E0E4
S11303D05103000000230360436001220272427251
S11303E083720233C3727047F0B583B005000C000A
S11303F001A900234B70CB7023790B70237A8B7087
S11304002078154B984700201F2D00D81348072249
S11304102A409200E77AA37A002B01D008231F43D5
S1130420EB089B00C31899690F269640B143974087
S11304303A000A439A61637A002B06D14369012288
S1130440AA409343436103B0F0BD42690123AB402A
S113045013434361F7E7C0469114000000180040BD
S113046010B500230021012402E00133202B06D023
S1130470C25C002AF9D022009A401143F5E7024BEE
S11304805A681143596010BD0018004000B583B08C
S113049001AB80221A700A785A704A789A708A7866
S11304A0DA701900014B984703B000BD91140000A5
S11304B0F0B5DE4657464E464546E0B587B0804621
S11304C0049116001F000022002300218B463F24C4
S11304D001202100009601975C460394444605944C
S11304E013E02024641A0500E540A84614E0009CAB
S11304F0019D121BAB415C464D462C43A346039C15
S113050045462C430394013925D3202464420C1915
S1130510E7D40500A540A84604008C40A1469218E3
S11305205B4114001D00059E4F463E40B446049EA8
S113053047463E40B246664657463E4303D0060011
S1130540264332002B00009C019D9D42DBD8CED176
S11305509442D8D8CBE7039B5846190007B03CBC5B
S113056090469946A246AB46F0BD10B549084023D3
S11305700024814202D2180010BD1C00091A631C19
S11305809BB28842F9D94023FF2CF4D8148000236D
S1130590F1E70000F0B583B00F00160008AA117847
S11305A004004C434022BC4202D9100003B0F0BD09
S11305B0002B14D1020008000021194CA0470100AF
S11305C03A0000230020174CA04700220123121AEE
S11305D08B41120C1B041A4332800022E5E70022EF
S11305E0012BF9D10A00002300210D4CA047020081
S11305F00B0000920193380000210A4CA04705002B
S113060080239B0140229842CFD8790FF800009AAA
S1130610019BA047EA00821AD2B252032A43DBE7C5
S11306207D1F0000B104000010B582B004000E4B21
S11306301B78002B07D0002905D10B4B5B78834234
S113064010D01D200CE001A90C700C20074B98471A
S11306500C20074B9847044B5C7001221A70002051
S113066002B010BD0020FBE7B40000209913000085
S11306700D1300002B4B984223D00FD92A4B9842DC
S11306802FD02A4B984242D101293AD0002946D092
S1130690022938D0032938D0002039E0244B98426D
S11306A035D1012907D0002933D0022905D00329E7
S11306B005D000202CE01F482AE01F4828E01F48EE
S11306C026E0012907D0002925D0022905D00329D5
S11306D005D000201CE01A481AE01A4818E01A480D
S11306E016E0012907D0002917D0022905D00329D3
S11306F005D000200CE015480AE0154808E015482C
S113070006E0154804E0154802E0154800E0002022
S113071070471448FCE70320FAE71348F8E7134846
S1130720F6E7C046000C00420010004200140042EC
S11307300008004203000500030006000300070050
S11307400300010003001E0003001F000300090052
S113075003000A0003000B00030011000300120051
S1130760030013000300040003000800030010004A
S113077030B585B06A460F4B32CB32C21B6813606A
S11307800300009A824211D0019A82420AD0029A4E
S1130790824209D00020039A9A4201D005B030BDAC
S11307A0033004E0012002E0022000E00020C0B297
S11307B0F4E7C0466C2800007047000030B50B4BCE
S11307C01B78002B0ED10A4C0A4D25600A4B0022DF
S11307D01A6065605A60A5609A60E560DA6001326B
S11307E0024B1A708000024BC15030BDB60000208D
S11307F0B8000020B90700002C01002010B582B019
S113080001AC07232370013363700133A3700133F8
S1130810E370024B9847205602B010BD71070000E8
S113082010B5024B1B680020984710BDB80000208B
S113083010B5024B5B680120984710BDB80000203A
S113084010B5024B9B680220984710BDB8000020E9
S113085010B5024BDB680320984710BDB800002098
S1130860F0B5DE4657464E464546E0B58DB0050028
S11308700C00160029600800804B9847020023688A
S11308800520DB0706D50DB03CBC90469946A24630
S1130890AB46F0BD236817309B07F4D47849086A47
S11308A0971C0123BB4003430B620BA9737F0B709E
S11308B00D32D7B23800734B98473800724B9847C3
S11308C0707F0021714B9847F37A6B71337DAB7164
S11308D0737DEB712B6898461800684B98470D3070
S11308E000220E2302A98C4663441A8033680393C2
S11308F0F3689A46B37D9B4673689946002B14D0DF
S113090080235B05994530D1F37D002B31D13369C8
S11309101F00C0B25E4B984701000E2202AB9C46FA
S1130920624438005B4B984720E0F37D002B0BD0EA
S11309301023009300230E2202A98C466244B1695D
S11309403069554FB84711E033691F00C0B2504BAE
S1130950984701001023009300230E2202A8844626
S1130960624438004C4FB84700E00020002800D013
S113097089E72A68039F138A1BB2002BFBDB0E2333
S113098002AA944663441B884246538153461F433C
S11309904B461F435B465B071F43F37D002B01D18E
S11309A004331F43317D4904737D1B040B43B17A27
S11309B0F27A114319433389FF2B03D08022520466
S11309C017431943337F002B03D1344B9B789B0788
S11309D001D580231F432A68138A1BB2002BFBDB3B
S11309E0434659602A68138A1BB2002BFBDB43463B
S11309F01F600AAB80221A7000225A70DA709A7053
S1130A00336A0693736A0793B36A0893F36A03938A
S1130A100993002706AE06E02000214B984707E023
S1130A200137042F0DD0F9B2BB0098590028F3D038
S1130A30431CF5D00AA90870000CC0B2194B9847A2
S1130A40EEE70023AB60EB602B61AB616B610022CE
S1130A50EB83AB832033EA540133EA540133EA5481
S1130A600133EA542868054B984704000E490F4B9C
S1130A709847A4000E4BE550002004E771070000DE
S1130A8000040040991300000D1300002906000023
S1130A90B51300006B05000095050000002000411F
S1130AA07506000091140000790C0000BD070000D9
S1130AB02C010020C2791C23002A01D118007047A0
S1130AC0C28B92B2173B002AF8D10268138A1BB278
S1130AD0002BFBDB11830221937B0B42FCD0002310
S1130AE0ECE70000F0B5CE46474680B583B005007C
S1130AF001911720002A04D103B00CBC90469946FA
S1130B00F0BDEB790530002BF6D02C68238A1BB29C
S1130B10002BFBDB013A93B2994600260127204BB8
S1130B20984611E0731C9BB2019A915D6A79012A7F
S1130B3017D089B21E0028001A4B98474B46013B38
S1130B409BB29946434513D0A37B3B42EAD1144B55
S1130B50A27B3A42E6D1012B19D0013B002BF7D1FD
S1130B60E0E70236B6B2019AD35C1B021943E2E70E
S1130B70A37B9B070DD40A4B0221A27B0A420AD114
S1130B80012B0AD0013B002BF7D10020B4E712203F
S1130B90B2E70020B0E70020AEE71220ACE7C04681
S1130BA0FFFF0000B50A0000F8B506000C001500B0
S1130BB007680A4B9847F38B9BB2002B03D0084B72
S1130BC098470520F8BDF583054B9847B461052285
S1130BD02323F254223B7B730020F3E749010000F6
S1130BE089010000F8B506000C00150007680A4BDF
S1130BF09847B38B9BB2002B03D0084B9847052032
S1130C00F8BDB583054B9847746105222223F2543D
S1130C101E3B7B730020F3E74901000089010000BB
S1130C20931C9B0019502021012393401A00435C1C
S1130C30134343547047000010B51723002A01D111
S1130C40180010BDC4790533002CF9D0014B984726
S1130C500300F5E7A90B000010B51723002A01D102
S1130C60180010BD84790533002CF9D0014B984746
S1130C700300F5E7E50B0000F8B58000464BC558C6
S1130C802C68238A1BB2002BFBDBA37B667B1E40F4
S1130C902023EB5C2122AF5C1F40F30722D5EB8BB2
S1130CA09BB2002B1CD0AA691378DBB2511CA9613A
S1130CB0697901290ED09BB2DB05DB0D2383EB8B15
S1130CC0013B9BB2EB83002B0CD101332373013323
S1130CD0637307E0517809020B430232AA61EBE720
S1130CE001232373B30706D5022323730022213380
S1130CF0EA54FB0716D473074DD5AB8B9BB2002B7C
S1130D0047D0238ADBB25A0720D09A070ED51A227D
S1130D102223EA54203B23827B073CD52B692800FD
S1130D20984738E02800AB689847E4E75A0705D5A8
S1130D301E222223EA541E3B2382EDE7DB07EBD578
S1130D4013222223EA54213B2382E5E7238BDB058C
S1130D50DB0DDAB269690A706A69511C69616979E3
S1130D60012910D0AB8B013B9BB2AB83002B12D17A
S1130D700433237300221E33EA54BB070BD5EB68FC
S1130D802800984707E01B0A53706B6901336B61B5
S1130D90E8E704232373F8BD2C01002010B50728CD
S1130DA003D88000164B1B589F46002027E0154BA4
S1130DB0D86824E0144B1B6A9B059B0F1348D8404A
S1130DC01DE0104B18691AE00E4B1B6800209B07AE
S1130DD015D50D491022CB681A42FCD0094B1B686B
S1130DE05B0701D40A480AE000200A4B9847054BE8
S1130DF09B681B041B0C584301E08020000210BDBB
S1130E007C280000C80000200008004000127A007E
S1130E10006CDC02B513000070B50C490B6A047851
S1130E20857840780122104080014026B343034373
S1130E302A40D2018020834313430322224012021A
S1130E400348034013430B6270BDC04600080040D2
S1130E50FFFCFFFFF0B5CE46474680B5194B9946D7
S1130E609B6941788C4605780679C77844798078FF
S1130E700121084080000422934303436046084054
S1130E80C0000432934303433800084080014027E4
S1130E90BB43034330000840C0018026B3430343EF
S1130EA0072005402D02084803402B432140090335
S1130EB0064803400B434A4693610CBC904699464E
S1130EC0F0BDC04600080040FFF8FFFFFFEFFFFF42
S1130ED010B5264B9A691205120F022A18D8037A04
S1130EE01B02F82149010B40817A0B4320494B60D6
S1130EF08379C1790B434188848821430B4341782A
S1130F00C9010B431A490B600378042B0AD010BDA6
S1130F10037A9B061B0C41898905890D0B431449EF
S1130F204B60E5E7022A14D8037B1B06F82252051E
S1130F301340C2891204FF2109040A401343028AA0
S1130F4013430B4A93600A4A136804210B4313604A
S1130F50DDE7037B9B06028A1343C2891204054919
S1130F600A401343024A9360EDE7C0460020004163
S1130F70C80000200000FF03072803D880001E4B90
S1130F801B589F46172036E01C4A136A02210B4364
S1130F90136200202FE0194A936902210B439361E5
S1130FA0002028E0154A138A02210B4313820020F3
S1130FB021E0124A938A02210B43938200201AE013
S1130FC00F4B1A6802210A431A601B680D4A13402A
S1130FD00A4A938411001022CB681A42FCD0084AB2
S1130FE09168064BD96251689962126892B29A84E8
S1130FF0002000E0002070479C280000000800400A
S1131000C80000207FFF000070B58CB0C222D2005F
S1131010454B9A60454A53681E218B435360012215
S113102001AB1A700024424DE0B201A9A847013473
S11310301C2CF9D13F4B1B68DB043B498A695B0ECE
S11310401B043D48024013438B610AA81B3C4470B7
S113105084700025C5700471072606704571374BEE
S113106098470420364B984705AB1D7000225D80DD
S11310709D809A71DA711E723F2159811C73DC8143
S1131080393919825A702F4B9B691B051B0F022B90
S113109006D9284B1B689B0E3F2B43D005AA13721D
S11310A005A880239B004381FA3BFF3B037338333D
S11310B0C381254B984704A80024447001268670F8
S11310C00470224B984706201D4DA847204B984793
S11310D001A94E604C7006230B700C724C720320F5
S11310E01C4B984703201C4B98470720A8470E49E0
S11310F01022CB681A42FCD0184A00231372537290
S11311009372D37201A901224A604B7005320A70AE
S11311100B724B7200200F4B984700200E4B9847E0
S11311200CB070BD203BB9E700080040004000410E
S11311309913000024608000FFFF80FF550E00001B
S1131140790F000000200041D10E0000190E0000AC
S113115061110000851100003D12000000040040F0
S1131160064A936908210B4393610122044B1A70C8
S113117019000B781342FCD17047C04600040040AC
S1131180000C004070B5060004000D782D020543E4
S11311904B78002B02D08023DB021D434B7A002BBB
S11311A002D080231B031D434868012810D9431E25
S11311B0184234D1022830D90223002201325B00C4
S11311C09842FBD812023243140080235B031D4370
S11311D00B7A002B02D080239B031D43134A5378C0
S11311E05BB2002BFBDB124B9847124B1E700F4A6D
S11311F053785BB2002BFBDB0C4B9C601A005378DA
S11312005BB2002BFBDB094A5368802149020B4087
S11312101D435560084B984770BD0022D2E7040275
S1131220344380239B021D43D2E7C046000C004098
S113123049010000080C00408901000010B50400B9
S11312400B4A53785BB2002BFBDB0A4B98470A4BE3
S11312501C70074A53785BB2002BFBDB044A5168CD
S113126080235B020B435360044B984710BDC04678
S1131270000C004049010000040C004089010000FA
S113128070B504001A4A53785BB2002BFBDB194B90
S11312909847194B1C70164A53785BB2002BFBDB42
S11312A0134E7068C004C00E144B98470500124BCF
S11312B01C707668F602F60F114B1C700C4A5378BA
S11312C05BB2002BFBDB0A4B9C682402240C0D4B05
S11312D09847002E07D1012C07D9210028000A4B7A
S11312E09847050001E00134E540280070BDC04680
S11312F0000C004049010000040C00409D0D00005A
S1131300080C004089010000911C000010B5040085
S1131310064B9847064B1C70064A53888021C90126
S11313200B435380044B984710BDC046490100004D
S1131330020C0040000C00408901000010B50400BC
S11313400F4B98470F4B1C700F4A53881B05180FFF
S113135053880E490B40538053880D490B405380EA
S113136011008022D2014B881342FCD106494A88DD
S113137003020648024013434B80064B984710BDB6
S113138049010000020C0040000C0040FFF0FFFF88
S1131390FFBFFFFF8901000010B50C78240204434D
S11313A0024B9847A4B2024B5C8010BD3D13000071
S11313B0000C004010B50400064B9847064B1C7007
S11313C0064B5C882405240F054B98472000054BE9
S11313D0984710BD49010000020C0040000C004079
S11313E0890100008112000030B5D378002B35D17B
S11313F01378802B29D01B0680246402234354785D
S11314000225AC4306D19478002C20D18024A40278
S1131410234341605478013C012C1CD90D042D0C4C
S1131420A024E4052C431C4384620D0CD024240620
S11314302C431C438462D478002C22D15B031CD53A
S11314409378012B1ED0416117E00023D7E7C02415
S1131450E4022343DDE70D4C2340DFE741600C0445
S1131460240CA023DB05234383620C0CD0231B062E
S113147023438362D378002B03D15378013B012BA0
S113148002D930BD8161F8E78160FAE7FFFFFBFF15
S113149010B50A00C1090023002904D14309DB0166
S11314A005498C4663441F242040012181401800D3
S11314B0024B984710BDC04600440041E9130000A8
S11314C07047000010B5054B9847054B9847054BEE
S11314D09847054B9847054B984710BD09100000E5
S11314E005010000F501000069030000C1140000BB
S11314F0931C9B001950022A09D0032A0CD0012303
S113150093401A00037E1343037600207047037E42
S1131510102213430376F8E7037E20221343037655
S1131520F3E7000070B58000164BC45823689D7B18
S1131530227E637E13401D40EB0706D4AB070BD419
S1131540EB0610D4AB0615D470BD2000A3689847F1
S1131550012322689373F1E72000E368984702238C
S113156022689373ECE720002369984710232268CC
S11315709373E7E7200063699847236820229A73EE
S1131580E2E7C0463C01002010B50020014B98471B
S113159010BDC0462515000010B50120014B984729
S11315A010BDC0462515000010B50220014B984718
S11315B010BDC0462515000010B50320014B984707
S11315C010BDC0462515000010B50420014B9847F6
S11315D010BDC0462515000010B50520014B9847E5
S11315E010BDC0462515000030B587B00B4B6A46C8
S11315F032CB32C232CB32C2009B98420BD0012391
S11316009A0069465258824206D00133062BF7D11C
S1131610002007B030BD0023D8B2FAE7BC28000090
S1131620F0B5C64600B588B004000D0016000800E9
S1131630884B9847804606AB13221A705A700132C1
S11316409A70DA7001321A715A7103AA824B1833F4
S113165083CB83C20023A360E360236163612376A9
S1131660637643469A007D4BD4502560B378082BAB
S113167008D023712B880520DB0708D508B004BCEB
S11316809046F0BD17204246D207F7D4F1E7EB7B32
S11316901730DB06F2D42B889B07EFD4337C002B66
S11316A000D07BE0337F002B00D083E06C49086AD4
S11316B043465A0003ABD35A03430B62B378082B57
S11316C000D187E001A933780B7006AB42469F5CDA
S11316D03800644B98473800634B98473189B38886
S11316E00B43B178B279114319437378002B02D0BC
S11316F080231B0119432268D37B5BB2002BFBDBE5
S11317002980717B4B1E99418900B37B002B01D04A
S1131710012319432268D37B5BB2002BFBDBFF233D
S11317202B71002905D02268D37B5BB2002BFBDB35
S11317306971B17AF37A002B01D010231943337BFA
S1131740002B01D0202319432268D37B5BB2002BEA
S1131750FBDBA9712268D37B5BB2002BFBDB237913
S1131760042B40D0082B5FD01720002B00D085E736
S1131770D37B5BB2002BFBDB338D2B822268D37BC4
S11317805BB2002BFBDB738D2B832268D37B5BB2B4
S1131790002BFBDBB38D6B8300206FE702A90123D1
S11317A08B700022CA70327E0A704B70307D2F4BD2
S11317B0984777E702A901238B700022CA7024326C
S11317C0B21812780A704B701F33F3181878274B2D
S11317D098476BE7086A43465A1C520003ABD35A36
S11317E003430B626EE7D37B5BB2002BFBDB282346
S11317F0F35C2B742268D37B5BB2002BFBDB2923C5
S1131800F35C2B752268D37B5BB2002BFBDB2A23B2
S1131810F35C2B762268D37B5BB2002BFBDB2B23A0
S1131820F35C6B76002029E7D37B5BB2002BFBDBF8
S1131830B36A2B612268D37B5BB2002BFBDBF36AB8
S1131840AB612268D37B5BB2002BFBDB336BEB61B8
S1131850002013E7E9150000BC2800003C0100202B
S113186000040040991300000D13000091140000BF
S1131870FEE7000010B51A4A1A4B9A4211D01A001A
S1131880194B9A420DD2194A03339B1A9B08013310
S11318909B000022134812498C58845004329A4207
S11318A0FAD1134A134B9A420AD2D34311495B1813
S11318B003218B4304339B18002102C29342FCD1C1
S11318C00D4AFF210D4B8B4393600D4A53687F39BA
S11318D00B4353600B4B98470B4B9847FEE7C046AE
S11318E04C2900000000002090000020040000208B
S11318F090000020C001002000ED00E00000000086
S113190000400041D11F0000111C00000300064AE2
S11319101268002A04D0044A1068C3181360704780
S11319200249014A1160F6E7DC000020C0210020D2
S113193010B5052202490348034B984710BDC04621
S11319409801002074010020390C000070B5104B80
S1131950198B89B20F48104B984702000F4B18603F
S11319600F4C10492000104B984720000F4B98470C
S1131970001903220E490F4B98470F4E05220F49B9
S113198030000F4DA847202221003000A84770BD29
S113199000300042006CDC02A51D00002000002085
S11319A054010020E02800002D20000071200000D8
S11319B0E428000019200000740100202400002005
S11319C0E50A000070B582B001AC00232370012643
S11319D06670A37021000F20034DA84726702100D4
S11319E00E20A84702B070BD8D04000030B58DB044
S11319F08023DB05009300230193FF2269460A81BB
S1131A008B72CB7201220A754A758B75CB7506935E
S1131A100B774B77E1235B020493C4239B0303936B
S1131A2001235B4208930993104B0A93104B0B93C9
S1131A30104D114C6A4611492800A0470028F9D1DD
S1131A400C4D2C6820000E4B98471F2318401E3B5A
S1131A5083400C4A13602A68138A1BB2002BFBDBF9
S1131A6023680222134323600DB030BD02000E0030
S1131A7002000F0074010020610800000010004201
S1131A80FD07000000E100E010B5064C0122064904
S1131A902000064B98472122A35C02210B43A35448
S1131AA010BDC0467401002031190000210C000053
S1131AB000B58FB001AA0023937000219380917127
S1131AC013815170917291735173117453619361C5
S1131AD01177136253621385538593850133D3724F
S1131AE013730233137003490348044B98470FB030
S1131AF000BDC04600300042A001002021160000B5
S1131B00F0B591B0364B196806AB1B795A1E934158
S1131B101B0106AA9278002A5ED12032134306AA3A
S1131B201278002A02D080225201134306AA527866
S1131B30002A02D08022920113434A8905200243DD
S1131B4013439BB24B81264C022226492000264B8C
S1131B5098472068254B9847254B1A5C1F23134050
S1131B6001273A009A40234B1A60637E10221343E4
S1131B70637610232268537303AD28001E4B9847E5
S1131B801123039300266E602E720D3BEB726E726E
S1131B9029000120194B984708A84770184B98470B
S1131BA06846184B98470D236A46937016700223B3
S1131BB05370694601A8144B9847042101A8134B9C
S1131BC098472268D37B5BB2002BFBDB138802218E
S1131BD00B43138011B0F0BD9022520013439EE7D3
S1131BE0A00100204D190000F1140000E9150000C7
S1131BF0F028000000E100E0D5030000E903000044
S1131C00610400001902000029020000D90200004A
S1131C1070B5114B9847114B9847114B9847114B8E
S1131C209847114B9847114B9847114B9847114BC4
S1131C3098470122104B1A70BFF35F8F62B60532CA
S1131C400E490F480F4B98470F4E0D4D0F4C052270
S1131C5031002800A047FAE7C5140000090100007C
S1131C6005010000C5190000ED190000891A0000E3
S1131C70B11A0000011B000008000020E828000041
S1131C8074010020E50A000098010020590C0000AE
S1131C90002243088B4274D303098B425FD3030AA7
S1131CA08B4244D3030B8B4228D3030C8B420DD3BA
S1131CB0FF22090212BA030C8B4202D31212090248
S1131CC065D0030B8B4219D300E0090AC30B8B4286
S1131CD001D3CB03C01A5241830B8B4201D38B0334
S1131CE0C01A5241430B8B4201D34B03C01A5241D9
S1131CF0030B8B4201D30B03C01A5241C30A8B421C
S1131D0001D3CB02C01A5241830A8B4201D38B0206
S1131D10C01A5241430A8B4201D34B02C01A5241AA
S1131D20030A8B4201D30B02C01A5241CDD2C3091C
S1131D308B4201D3CB01C01A524183098B4201D398
S1131D408B01C01A524143098B4201D34B01C01A83
S1131D50524103098B4201D30B01C01A5241C308FB
S1131D608B4201D3CB00C01A524183088B4201D36A
S1131D708B00C01A524143088B4201D34B00C01A56
S1131D805241411A00D20146524110467047FFE7C2
S1131D9001B5002000F0F0F802BDC0460029F7D0DC
S1131DA076E7704703460B437FD4002243088B42F7
S1131DB074D303098B425FD3030A8B4244D3030BCE
S1131DC08B4228D3030C8B420DD3FF22090212BA93
S1131DD0030C8B4202D31212090265D0030B8B420F
S1131DE019D300E0090AC30B8B4201D3CB03C01AF9
S1131DF05241830B8B4201D38B03C01A5241430BD4
S1131E008B4201D34B03C01A5241030B8B4201D3C3
S1131E100B03C01A5241C30A8B4201D3CB02C01A2E
S1131E205241830A8B4201D38B02C01A5241430AA6
S1131E308B4201D34B02C01A5241030A8B4201D395
S1131E400B02C01A5241CDD2C3098B4201D3CB013C
S1131E50C01A524183098B4201D38B01C01A5241EB
S1131E6043098B4201D34B01C01A524103098B42EF
S1131E7001D30B01C01A5241C3088B4201D3CB00DA
S1131E80C01A524183088B4201D38B00C01A5241BD
S1131E9043088B4201D34B00C01A5241411A00D26D
S1131EA001465241104670475DE0CA0F00D04942D6
S1131EB0031000D34042534000229C4603098B4246
S1131EC02DD3030A8B4212D3FC22890112BA030ACE
S1131ED08B420CD3890192118B4208D38901921150
S1131EE08B4204D389013AD0921100E08909C309D5
S1131EF08B4201D3CB01C01A524183098B4201D3D7
S1131F008B01C01A524143098B4201D34B01C01AC1
S1131F10524103098B4201D30B01C01A5241C30839
S1131F208B4201D3CB00C01A524183088B4201D3A8
S1131F308B00C01A5241D9D243088B4201D34B00C3
S1131F40C01A5241411A00D20146634652415B1005
S1131F50104601D34042002B00D5494270476346E6
S1131F605B1000D3404201B5002000F005F802BD2B
S1131F700029F8D016E770477047C046F0B5CE4642
S1131F80474615042D0C2E0080B50704140C3F0C95
S1131F909946030C7E435D43674363437F19340CC6
S1131FA0E4199C46A54203D980235B029846C444A5
S1131FB04B46514343433604360C250C24046544F4
S1131FC0A4195918491920000CBC90469946F0BD33
S1131FD070B500260C4D0D4C641BA410A64209D10B
S1131FE0002600F0A3FC0A4D0A4C641BA410A64270
S1131FF005D170BDB300EB5898470136EEE7B30046
S1132000EB5898470136F2E73829000038290000D8
S1132010382900003C290000002310B59A4200D161
S113202010BDCC5CC4540133F8E700000EB410B505
S11320309DB002A9029008610B488224886048611F
S1132040012040421FABC881084804CBA4000068AB
S113205001938C8100F076F80023029A13701DB06E
S113206010BC08BC03B01847FFFFFF7F2C00002002
S11320700023C25C0133002AFBD1581E70470000C4
S1132080F0B58E6885B007000C00039201939E4260
S113209039D890238A89DB001A4234D00325096990
S11320A023685B1A0293636902985D43EB0F5D1921
S11320B0019B6D1001331B18AB4200D91D00530561
S11320C032D52900380000F031FB061E09D10C235B
S11320D03B6040230120A28940421343A38105B001
S11320E0F0BD029A2169FFF797FFA389144A1A40A9
S11320F080231343A381029B2661F6182660656141
S1132100019EED1AA560019BB34200D21E0032006D
S11321100399206800F0ADFAA36800209B1BA3601C
S113212023689E192660DAE72A00380000F05CFB79
S1132130061EE0D12169380000F0AEFAC7E7C046B8
S11321407FFBFFFFF0B59FB0029005938B890F00D2
S113215016001B0611D50B69002B0ED1402100F08F
S1132160E5FA38603861002805D10C23029A013859
S113217013601FB0F0BD40237B61002306AD6B618B
S113218020336B761033AB7634002378002B47D1A1
S1132190A31B04930DD0A31B320039000298FFF750
S11321A06FFF431C00D1B5E06A69049B9446634405
S11321B06B612378002B00D1ACE001220023524252
S11321C06A6002A95432521801342B60EB60AB6090
S11321D01370AB65584E05222178300000F03EFAAA
S11321E0621C002820D12968CB0604D5532302AEF3
S11321F020309B1918700B0704D553232B2002AEF3
S11322009B19187023782A2B16D000200A21099BC9
S11322102278303A092A55D9002815D0099313E0B9
S1132220252BB5D00134B0E70123801B83402968F6
S113223014000B432B60CDE7059B181D1B6805900C
S1132240002B39DB0993140023782E2B0BD16378F0
S1132250621C2A2B3ED1059B02341A1D1B68059271
S1132260002B34DB0793354E21780322300000F035
S1132270F5F9002806D04023801B83402A680134E6
S113228013432B60217806222D48661C297600F022
S1132290E5F9002846D02B4B002B2FD12968059B4C
S11322A00722C90528D59B189343083305936B6906
S11322B0039A9B186B6167E75B42EB6002230B4355
S11322C02B60C0E74B4301349B180120A0E7012396
S11322D05B42C7E7002314000A201A006B602178D0
S11322E03039092903D9002BBDD00792BBE74243FB
S11322F0013452180123F2E70733D5E705AB009305
S11323003A00114B2900029800E000BF0390039BA0
S11323100133CCD1BB890B985B0600D429E701209B
S1132320404226E705AB00933A00074B2900029888
S113233000F07AF8EAE7C046F6280000FC2800001E
S1132340002900000000000081200000F7B51500FE
S113235001938A680B6900900C00934200DA130021
S113236022002B6043321278002A01D001332B6003
S113237023689B0602D52B6802332B60062723684B
S11323801F4027D0230043331B785A1E93412268F1
S1132390920630D42200019943320098089EB04737
S11323A0431C25D0062320682A68E16803400025E1
S11323B0042B03D18D1AEB43DB171D40A36822695C
S11323C0934201DD9B1AED180027BD4220D1002065
S11323D010E00137E3682A689B1A9F42D2DA220090
S11323E00123193201990098089EB047431CF0D18B
S11323F001204042FEBD3020E11843310870210025
S11324005A1C45310978A218433202331170C1E7CE
S1132410220001231A3201990098089EB047431CF8
S1132420E6D00137D1E70000F0B58BB006920A0080
S113243043320793059004920A7E0C00109B6E2A87
S113244000D18FE017D8632A2CD008D8002A00D1F5
S113245099E0582A54D026004236327029E0642A82
S113246001D0692AF7D121681A68080623D5111DFD
S11324701960156825E0732A00D188E008D86F2A0E
S113248029D0702AE7D1202209680A43226003E098
S1132490752A20D0782ADED12200782145321170A5
S11324A06C4A30E00E001A684236111D1960136838
S11324B03370012379E04906D9D5111D1960002331
S11324C0D55E002D03DA2D23049A6D421370624BFE
S11324D00A2703932FE020681968050603D5081D11
S11324E018600D6805E04006F9D50D68081D1860F0
S11324F0ADB2594B082703936F2A18D00A2716E068
S113250045310A70544A03921A682168101D1860F4
S11325101568080622D5CB0702D52023194321606C
S11325201027002D03D1202322689A432260230020
S1132530002243331A706368A360002B5CDB04221F
S1132540216891432160002D58D1049E002B64D052
S11325502600039B42361B7833705EE04806DAD5CA
S1132560ADB2D8E709681A68080605D5111D1960C7
S1132570136862691A6006E04906F7D5111D1960EF
S11325801368A28A1A800023049E236154E01A6807
S1132590111D1960166800216268300000F05EF8B1
S11325A0002801D0801B6060636823610023049AC3
S11325B0137041E02369320006990598079DA847E6
S11325C0431C43D0236800259B070FD4099BE06874
S11325D098423DDA18003BE02200012319320699A3
S11325E00598079EB047431C30D00135E368099A2B
S11325F09B1A9D42F0DBE9E7002DA9D0049E280038
S11326003900FFF7CBFB039B013E5B5C2800337072
S11326103900FFF73DFB051EF1D1082F09D12368CE
S1132620DB0706D563682269934202DC3023013E4E
S11326303370049B9B1B2361079B09AA0093210011
S1132640069B0598FFF782FE431CB3D1012040424C
S11326500BB0F0BD1829000007290000C9B2821888
S1132660904201D10020704703788B42FBD00130A7
S1132670F6E710B5884202D98B18984208D3002394
S11326809A4207D0CC5CC4540133F9E78B5C835481
S1132690013AFBD210BD000070B50500002910D02E
S11326A00C1F2368002B00DAE418280000F0D4F88B
S11326B01D4A1368002B05D163601460280000F0E4
S11326C0CCF870BDA34209D9216860188342F3D1C4
S11326D018685B6841182160EEE713005A68002A05
S11326E001D0A242F9D919685818A0420BD1206828
S11326F00918581819608242E0D1106852684118CC
S113270019605A60DAE7A04202D90C232B60D5E79E
S113271021686018824203D1106852684118216010
S113272062605C60CAE7C046E0000020032370B525
S1132730CD1C9D43083506000C2D1ED20C25A94244
S11327401DD8300000F088F8254A146821000029BB
S113275019D1244C2368002B03D1300000F06AF80F
S113276020602900300000F065F8431C2CD10C23B4
S11327703000336000F071F803E0002DDFDA0C2341
S11327803360002070BD0B685B1B1AD40B2B03D97C
S11327900B60CC18256003E08C420ED16368136093
S11327A0300000F05AF8200007220B30231D90431C
S11327B0C31AE7D05A42E250E4E74B6863600C0066
S11327C0EEE70C004968C2E70323C41C9C43A04203
S11327D0E0D0211A300000F02DF8431CDAD1C6E70E
S11327E0E0000020E4000020F8B507000D0016000A
S11327F0002905D11100FFF799FF04002000F8BD5E
S1132800002A03D1FFF748FF3400F7E700F026F869
S11328102C008642F2D931003800FFF787FF041EEE
S1132820ECD029003200FFF7F7FB29003800FFF74E
S113283033FFE3E7002370B5064C0500080023606E
S1132840FFF764F8431C03D12368002B00D02B60EE
S113285070BDC046BC010020704770470B1F1B6849
S1132860181F002B01DA0B58C018704700080042EB
S1132870000C00420010004200140042AE0D0000A3
S1132880AA0D0000AA0D0000FA0D0000FA0D0000C8
S1132890C20D0000B40D0000C80D0000A40F00001C
S11328A0840F0000840F0000F40F0000960F000056
S11328B0B20F0000880F0000C00F0000002000428B
S11328C00024004200280042002C00420030004254
S11328D0003400420001000200040008001000203F
S11328E0256400000A0D000048656C6C6F00000050
S11328F00D0E0F101112232D302B2000686C4C008C
S113290065666745464700303132333435363738EB
S11329103941424344454600303132333435363749
S1132920383961626364656600000000F8B5C0462A
S1132930F8BC08BC9E467047CD000000F8B5C04600
S10F2940F8BC08BC9E467047A5000000CF
S113294C401F00000800000001000000000000000F
S113295C080000000000000000000000000000005F
S113296C40EF07001B5B324A0000000030000020DF
S113297C0000000000000000000000000000000047
S113298C0000000000000000000000000000000037
S113299C0000000000000000000000000000000027
S11329AC0000000000000000000000000000000017
S11329BC0000000000000000000000000000000007
S11329CC00000000000000000000000000000000F7
S90318756F
