S0160000616476616E636564206D6963726F2E737265639E
S113000033C000004CC000004AC0000048C00000DB
S113001046C0000044C0000042C0000040C00000D0
S11300203EC000003CC000003AC0000038C00000E0
S113003036C0000034C0000032C0000030C00000F0
S11300402EC000002CC000002AC0000028C0000000
S113005026C0000024C0000022C0000020C0000010
S11300601EC000001CC0000011241FBECFEFD8E04A
S1130070DEBFCDBF11E0A0E0B1E0E2EDF2E002C0EE
S113008005900D92A030B107D9F721E0A0E0B1E0CE
S113009001C01D92AB33B207E1F7DDD018C1B0CF78
S11300A08CE284B983E58CBD0895882311F02A98E5
S11300B008952A9A08958EBD0DB407FEFDCF0895C4
S11300C02FEF2AB91BB828B1296028B928B12660B6
S11300D028B98BB940989BB9439888B1897F88B96E
S11300E089EF90E00197F1F700C000006BB988B187
S11300F0866088B908952FEF2AB91BB828B1296002
S113010028B928B1266028B98BB940989BB943987F
S11301101AB8419889EF90E00197F1F700C0000008
S113012089B1419A089595B184B180628F7784B979
S1130130892F806A85B908951F93CF93DF93182F71
S1130140D62FC42F81E0B1DF85E0B5DF812FB3DF87
S11301508D2FB1DF8C2FAFDF80E0A7DFDF91CF9150
S11301601F91089581E0A1DF80ECA5DF80E09DCFA1
S11301700895F8DF41E063E08BE2DEDF40E664E609
S113018080E6DADF40E064E08BE2D6DF40E06FEF48
S11301908AE2D2DF40EF6FEF89E2CEDF46E86FEF0D
S11301A088E2CADF40E060EE8FE0C6CF08958FEFAB
S11301B087B984B918B81BB815B80895EF92FF929F
S11301C00F931F93CF93DF93C82F7B01142F81E0EC
S11301D06CDF82E070DF8C2F6EDF112369F0E701A2
S11301E01150012F10E00F5F1F4F0E0D1F1D89913D
S11301F062DFC017D107D9F780E057DFDF91CF91D5
S11302001F910F91FF90EF9008950F931F93CF9339
S11302108C01FC01C481CF7040816FEF81E38CDFDE
S1130220F801418160EE82E387DF40E460E485E326
S113023083DF4C2F6FE085E37FDFF80162817381F8
S11302404C2F86E3BBDF4BE06BE080E375DFCF919F
S11302501F910F910895CF93DF9300D000D000D069
S1130260CDB7DEB760DFA3DF1BDF6AEA80E090E092
S113027027DF6BEB81E090E023DF6CEC82E090E021
S11302801FDF80E090E037DF8093000181E090E0A1
S113029032DF8093000182E090E02DDF8093000143
S11302A02A9A8AEA8E83198280E48A8382E08D8383
S11302B0CE0106969C838B835CDFCE010196A5DF7D
S11302C0CE010196A2DFCE0101969FDFFFCFF89405
S10502D0FFCF5A
S9030000FC
