S01800005261742073656E736F7220626F6172642E7372656303
S1130000C8100020DD320000D9320000D9320000CF
S113001000000000000000000000000000000000DC
S1130020000000000000000000000000D9320000C1
S11300300000000000000000D9320000D9320000A6
S1130040D932000011370000D9320000690B0000DA
S113005065030000D9320000D9320000D932000013
S1130060210200009D290000AD290000BD290000E7
S1130070CD2900000000000000000000D93200007B
S1130080D9320000D9320000610F0000710F000066
S1130090810F00000000000000000000D9320000C1
S11300A0D9320000D9320000D9320000D932000020
S11300B00000000010B5064C2378002B07D1054B37
S11300C0002B02D0044800E000BF0123237010BDC0
S11300D0200000200000000038440000084B10B548
S11300E0002B03D00749084800E000BF0748036815
S11300F0002B00D110BD064B002BFBD09847F9E72D
S113010000000000240000203844000038440000AF
S11301100000000070B50020084B98470500084C0B
S1130120FA218900A047074B186007492800A04717
S1130130064B18600522064B1A6070BD693000003A
S1130140C13E00000000002040420F0004000020D7
S113015010E000E030B5084B1C68084A00258021F7
S11301604902013807D3002CFBD054609560136812
S11301700B42FCD0F5E730BD0400002010E000E0A5
S113018030B5084B1C68084A002580214902013813
S113019007D3002CFBD05460956013680B42FCD04D
S11301A0F5E730BD0000002010E000E010B51B4B67
S11301B05B6B9B0704D5194A536B0224A343536317
S11301C04A880B880C792343134380246400A24299
S11301D00DD08A79002A01D004221343CA79002A57
S11301E001D040221343002805D0172010BD8022DF
S11301F092001343EDE74A7917303F2AF6D81204E8
S1130200FC2189030A401343044A536311008022EA
S11302101201CB681342FCD00020E7E7000800403D
S113022010B50B4B1C690B498A69986802439A60A4
S1130230094B8B61002C05D0206863689847A4683B
S1130240002CF9D1024BD9689A688A439A6010BD90
S11302500800002000040042FFFF0F0F064A136A43
S113026002210B4313620122044B1A7019000B780C
S11302701342FCD17047C046000400400004004211
S113028001230370002343708370C3707047000020
S1130290F0B583B005000E00244B9847244B1B682F
S11302A0DA070ED55B08012401221A420AD05B0842
S11302B00134E4B20C2CF8D11E4B9847142003B03F
S11302C0F0BD00241A4A11680123A3400B431360B4
S11302D01379013B1371174B98471420FF2CEED070
S11302E02C707378022B0AD001A9F3780B70E71DE8
S11302F0FFB23800104B98473800104B9847B3783A
S11303001B04FE22D203134072781206C021890412
S11303100A40134332789206C02109050A40134368
S11303200F2214401C436C600020C8E7E129000040
S113033008000020212A000081310000F53000006F
S1130340037801331B02F822520113401F2211408B
S11303500B43034A13814368536000207047C0462F
S11303600004004270B50022104B1A70002310499B
S11303701F25104E0D4C0AE00D4908E02378013387
S1130380DBB223700F2B10D800211F2BF4D92800C7
S113039018400122824008691042EFD00A619B0094
S11303A09B59002BEAD09847E8E770BD450500202B
S11303B00018004048050020044A137802210B432A
S11303C0137053785BB2002BFBDB704700180040BE
S11303D000B583B0124A936940210B43936101A98C
S11303E000230B7005200F4B984705200E4B9847B0
S11303F00E4A137801210B43137053785BB2002B20
S1130400FBDB0B4B19004031002204C39942FCD1A1
S11304101022084B1A60084B984703B000BDC04631
S11304200004004081310000F53000000018004055
S11304304805002000E100E0B90300000023036048
S1130440436001220272427283720233C3727047A4
S1130450F0B583B005000C0001A900234B70CB70EC
S113046023790B70237A8B702078154B98470020E2
S11304701F2D00D8134807222A409200E77AA37A56
S1130480002B01D008231F43EB089B00C318996974
S11304900F269640B14397403A000A439A61637A23
S11304A0002B06D143690122AA409343436103B060
S11304B0F0BD42690123AB4013434361F7E7C046F3
S11304C0793200000018004010B5002300210124F7
S11304D002E00133202B06D0C25C002AF9D02200AE
S11304E09A401143F5E7024B5A681143596010BD15
S11304F00018004010B500230021012402E001335C
S1130500202B06D0C25C002AF9D022009A40114365
S1130510F5E7024A53688B43536010BD001800404E
S113052010B51E4AD36904210B43D3611C4B20220E
S1130530FF321A831A7D0523D20701D4180010BD97
S113054003781B02C022920013404178C901FF22A4
S11305500A401343817849001E220A401343C2789B
S113056092048021C9020A40134302791204C02173
S113057089020A4013430A4A536093685B035B0F82
S1130580084908249C400C8093684B8043780B7185
S1130590138BDB05DB0F1B01D0E7C04600040040D2
S11305A0004000413C00002030B50400254A10887A
S11305B0538843438B420BD280229201224BCB18A7
S11305C0934205D9214A1820214BCB1893420ED8C7
S11305D0204B5D688022D2022A435A602022FF32D7
S11305E01A831B7DDB0703D41A4B5D60052030BDE5
S11305F0452C22D8A300184AD3589F46154B1B8B71
S1130600DB0503D5134B5D601020F0E78908490032
S1130610104BD96103E0890849000E4BD961A5202C
S1130620000204430B4B1C80190001220B7D134272
S1130630FCD0084B5D600020D9E7064B5D601720B5
S1130640D5E7C0463C00002000C07FFFFF07000044
S11306500000C0FF004000416C420000F8B52F4B81
S11306601C885B886343834207D22D4E18252D4B8B
S1130670C318B34206D8012600E00026631E1825DD
S1130680184201D02800F8BD013D9442FAD3264B0C
S11306901B7D123DDB07F5D5244C234B1C801D002C
S11306A001242B7D2342FCD02024FF341E4B1C83C9
S11306B0002A2CD0012305009D430023541EA44688
S11306C009E0CF187F783F023C432C8002339BB271
S11306D002359A4204D9CC5C6345F2DBA4B2F4E758
S11306E00E4B1B790025002BCCD13F2ACAD8002EF3
S11306F006D10022010004200D4B98470500C1E7F4
S1130700002201001C200A4B98470500BAE7034B5E
S11307101B790025002BEAD0B4E7C0463C0000203A
S1130720FF0700000000C0FF0040004144A5FFFF98
S1130730A905000070B51B4B1C885B88634383428A
S113074005D2194E1825194BC318B34203D8631E9A
S11307501825184201D0280070BD013D9442FAD3F7
S1130760134B1B7D123DDB07F5D52024FF34104BC2
S11307701C83002A14D0012398430023561E04E04E
S113078002339BB202309A4208D90488A4B2CC54F2
S1130790B342F5DACD18240A6C70F1E70025DAE7E4
S11307A00025D8E73C000020FF0700000000C0FF40
S11307B00040004110B51D4A138852885A438242B2
S11307C007D21B4C18221B494118A14207D801210A
S11307D000E000219B00013B1822184201D01000C8
S11307E010BD154B1B7D133ADB07F8D5124A2023A5
S11307F0FF33138383085B00D361002913D00123E3
S11308009843002303800D4A0B4B1A8019000122E0
S11308100B7D1342FCD0084B1A8B1C200240501E47
S113082082419200DBE7064AEEE7C0463C00002026
S1130830FF0700000000C0FF004000411AA50000AF
S113084002A50000154B2022FF321A839B6859032E
S1130850490F183AFF3A8A40027043801B0D838186
S11308600F4B1B885B065B0F072B10D00622D21A96
S11308700423934043600A4B1B8807221340072B31
S113088008D00722D21A04239340836070470023C0
S11308904360F0E700238360F8E7C046004000416E
S11308A00040800000B583B001AB80221A700A7842
S11308B05A704A789A708A78DA701900014B98470E
S11308C003B000BD793200000368987AC00970470C
S11308D070B5040006680822054B1A60054D200017
S11308E0A8470028FBD1338802221343338070BD0C
S11308F000E100E0C908000070B5040006680821A2
S11309008023074AD150074D2000A8470028FBD177
S1130910C123B3713372338802229343338070BD91
S113092000E100E0C908000070B504000668074B48
S113093098470023A382E382054D2000A84700289E
S1130940FBD1338801221343338070BDF9080000C2
S1130950C908000070B5040006684379002B0ED165
S11309600F4B73800F4D2000A8470028FBD123793B
S1130970002B12D00020012B00D1306970BD738888
S11309805B04F4D47388C022120213437380054DB0
S11309902000A8470028FBD1E9E7308A80B2EDE7C0
S11309A00080FFFFC9080000F0B583B00400019186
S11309B015000668114F2000B8470028FBD12379A1
S11309C0002B0AD0012B16D11730012D14D806356F
S11309D0AD00019BAB5100200EE01720022D0BD877
S11309E0074B019A9A4207D86B469B880C356D00D9
S11309F0AB53002000E01A2003B0F0BDC90800008A
S1130A00FFFF0000F0B583B00400160001602E4A19
S1130A10936920210B43936101A902230B700420E5
S1130A202A4B984704202A4B98472000294B984783
S1130A30B378237133796371274B1C60276833883B
S1130A403B80B378002B21D01720012B1CD13B888D
S1130A509BB23B80F378002B03D03B888022134366
S1130A603B801E4D2000A8470028FBD10022B1681E
S1130A7020001B4B984733790020002B04D07B883F
S1130A808022D20113437B8003B0F0BD3B88042253
S1130A9013433B80F3781720002BF5D10F4D200032
S1130AA0A8470028FBD10022B16820000C4B9847CE
S1130AB00A4D2000A8470028FBD10122F16820003C
S1130AC0074B9847D7E7C046000400408131000037
S1130AD0F53000002909000088050020C90800003D
S1130AE0A9090000F8B504000E0003791520002BB5
S1130AF000D0F8BD2768034D2000A8470028FBD18B
S1130B00BE82F6E7C9080000022A0BD00379002B45
S1130B1005D0012B12D11633012A0DD802E0172378
S1130B20022A09D8931C9B001950838A0121914001
S1130B300B439BB283820023180070471723FBE703
S1130B4010B5046802290BD001228A400323134004
S1130B50E371C38A01228A4013439BB2C38210BD4E
S1130B608023E371F5E7000010B5144B1A6814688C
S1130B70D18A938A1940207AE379034058B2002835
S1130B8006DBD8070FD5CB070AD40123237210BD87
S1130B904B0702D480232372F9E713699847F9E7D6
S1130BA093689847F1E79B07F1D58B0702D402239A
S1130BB02372ECE7D3689847F9E7C046880500201C
S1130BC0F0B5DE4657464E464546E0B587B080460A
S1130BD0049116001F000022002300218B463F24AD
S1130BE001202100009601975C4603944446059435
S1130BF013E02024641A0500E540A84614E0009C94
S1130C00019D121BAB415C464D462C43A346039CFD
S1130C1045462C430394013925D3202464420C19FE
S1130C20E7D40500A540A84604008C40A1469218CC
S1130C305B4114001D00059E4F463E40B446049E91
S1130C4047463E40B246664657463E4303D00600FA
S1130C50264332002B00009C019D9D42DBD8CED15F
S1130C609442D8D8CBE7039B5846190007B03CBC44
S1130C7090469946A246AB46F0BD10B549084023BC
S1130C800024814202D2180010BD1C00091A631C02
S1130C909BB28842F9D94023FF2CF4D81480002356
S1130CA0F1E70000F0B583B00F00160008AA117830
S1130CB004004C434022BC4202D9100003B0F0BDF2
S1130CC0002B14D1020008000021194CA047010098
S1130CD03A0000230020174CA04700220123121AD7
S1130CE08B41120C1B041A4332800022E5E70022D8
S1130CF0012BF9D10A00002300210D4CA04702006A
S1130D000B0000920193380000210A4CA047050013
S1130D1080239B0140229842CFD8790FF800009A93
S1130D20019BA047EA00821AD2B252032A43DBE7AE
S1130D30AD410000C10B000010B582B004000E4BA1
S1130D401B78002B07D0002905D10B4B5B7883421D
S1130D5010D01D200CE001A90C701320074B9847FC
S1130D601320074B9847044B5C7001221A70002033
S1130D7002B010BD0020FBE74400002081310000D8
S1130D80F53000002B4B984223D00FD92A4B9842C0
S1130D902FD02A4B984242D101293AD0002946D07B
S1130DA0022938D0032938D0002039E0244B984256
S1130DB035D1012907D0002933D0022905D00329D0
S1130DC005D000202CE01F482AE01F4828E01F48D7
S1130DD026E0012907D0002925D0022905D00329BE
S1130DE005D000201CE01A481AE01A4818E01A48F6
S1130DF016E0012907D0002917D0022905D00329BC
S1130E0005D000200CE015480AE0154808E0154814
S1130E1006E0154804E0154802E0154800E000200B
S1130E2070471448FCE70320FAE71348F8E713482F
S1130E30F6E7C046000C00420010004200140042D5
S1130E400008004203000500030006000300070039
S1130E500300010003001E0003001F00030009003B
S1130E6003000A0003000B0003001100030012003A
S1130E700300130003000400030008000300100033
S1130E8030B585B06A460F4B32CB32C21B68136053
S1130E900300009A824211D0019A82420AD0029A37
S1130EA0824209D00020039A9A4201D005B030BD95
S1130EB0033004E0012002E0022000E00020C0B280
S1130EC0F4E7C04684430000931C9B001950022A97
S1130ED009D0032A0CD0012393401A00037E134344
S1130EE0037600207047037E102213430376F8E74D
S1130EF0037E202213430376F3E7000070B58000DD
S1130F00164BC45823689D7B227E637E13401D408C
S1130F10EB0706D4AB070BD4EB0610D4AB0615D401
S1130F2070BD2000A3689847012322689373F1E7FA
S1130F302000E3689847022322689373ECE72000BB
S1130F4023699847102322689373E7E720006369B5
S1130F509847236820229A73E2E7C0468C05002054
S1130F6010B50020014B984710BDC046FD0E00008F
S1130F7010B50120014B984710BDC046FD0E00007E
S1130F8010B50220014B984710BDC046FD0E00006D
S1130F9030B585B001AA0B4B32CB32C2019B9842CB
S1130FA00DD0029B984208D00023039A824202D0BB
S1130FB0180005B030BD023302E0012300E0002335
S1130FC0DBB2F5E794430000F0B587B004000D00F0
S1130FD016000800854B9847070005AB1B221A70C2
S1130FE001325A709A7003AB802212011A80802257
S1130FF052015A80802292019A800023A360E36008
S113100023616361237663768200794BD450256033
S1131010B378082B06D023712B880520DB0705D570
S113102007B0F0BD1720FA07FAD5F4E7EB7B1730C9
S1131030DB06F5D42B889B07F2D4337C002B79D1C3
S1131040337F002B00D081E06A49086A7A0003AB41
S1131050D35A03430B62B378082B00D186E001A96D
S113106033780B7005ABDF5D3800634B984738006D
S1131070624B98473189B3880B43B178B2791143F5
S113108019437378002B02D080231B011943226873
S1131090D37B5BB2002BFBDB2980717B4B1E994118
S11310A08900B37B002B01D0012319432268D37B31
S11310B05BB2002BFBDBFF232B71002905D02268D8
S11310C0D37B5BB2002BFBDB6971B17AF37A002B23
S11310D001D010231943337B002B01D02023194363
S11310E02268D37B5BB2002BFBDBA9712268D37B24
S11310F05BB2002BFBDB2379042B3FD0082B5ED0A3
S11311001720002B00D08BE7D37B5BB2002BFBDBDB
S1131110338D2B822268D37B5BB2002BFBDB738D78
S11311202B832268D37B5BB2002BFBDBB38D6B83F9
S1131130002075E702A901238B700022CA70327E59
S11311400A704B70307D2E4B984779E702A9012332
S11311508B700022CA702432B21812780A704B7055
S11311601F33F3181878264B98476DE7086A7A1CE2
S1131170520003ABD35A03430B6270E7D37B5BB2D9
S1131180002BFBDB2823F35C2B742268D37B5BB23C
S1131190002BFBDB2923F35C2B752268D37B5BB22A
S11311A0002BFBDB2A23F35C2B762268D37B5BB218
S11311B0002BFBDB2B23F35C6B76002030E7D37B27
S11311C05BB2002BFBDBB36A2B612268D37B5BB27F
S11311D0002BFBDBF36AAB612268D37B5BB2002B91
S11311E0FBDB336BEB6100201AE7C046910F000074
S11311F08C0500200004004081310000F53000001F
S11312007932000070B50402034E044D7368181956
S1131210A8470528FAD070BD48000020B507000093
S1131220F0B5DE4657464E464546E0B583B04D4BD5
S11312301B89002B00D18FE000254A4B9A461F00E2
S113124027E00198484B98470434A4B2454B1B89C6
S1131250A34218D9013B9C42F6D07A68A301D35C1F
S1131260FF2BF1D09E42EFD14B46D35C4146515CFB
S11312709942E6D05946525C9A42E2D0A008C0B2E4
S1131280394B9847E0E70435ADB2364B1B899D4294
S113129017D2AB01984653465B6842469E5CFF2ECC
S11312A0F1D02C1DA4B22F4B1B899C4209D2802261
S11312B042449146402242449346AA08D2B2019243
S11312C0C8E7002B43D0274A977A516800225E1E54
S11312D0244D04E00132403190B298420AD2964241
S11312E0F8D0087884B2FF2CF4D0BC42F2D228188B
S11312F0C272EFE73F2087221A4988549D081FD005
S11313004C6804210027013B13E0013292B2914260
S113131007D09A42F9D09001005DFF28F5D000264D
S1131320F3E7002E09D10137BFB2043189B2BD42BF
S113133006D00A1F92B20126EBE78723094AD75445
S113134003B03CBC90469946A246AB46F0BD3F2153
S11313508723044AD154F3E73F218723014AD15418
S1131360EEE7C0464800002005120000F8B50D0065
S11313708401054F054E7B68181940222900B047A7
S11313800528F8D0F8BDC046480000203507000005
S1131390F8B50D008401054F054E7B6818194022ED
S11313A02900B0470528F8D0F8BDC0464800002001
S11313B05D06000070B58401044E054D736819196B
S11313C000220420A8470528F8D070BD480000205A
S11313D0A905000010B59AB018AB002119700122BC
S11313E05A702E4A5268D206120F9A70D970197127
S11313F02B4C18A8A0470528FBD014A8294B9847C4
S1131400159B16200B2B01D81AB010BD264C238136
S11314101A00083A5208A2721B049B0A5B428022FB
S113142052029446634463600022C823E2541F4B73
S113143098478723E35C1A203F2BE5D001AA1C4B75
S113144013CB13C2184B1889013880B204A9194B65
S11314509847049B019A934219D1059B029A93429F
S113146017D1069B039A934215D104ABDB7B102062
S1131470012BC9D104AB1B7B012BC5D104AB5B7B16
S1131480002BC1D10122084B1A700020BCE71A209E
S1131490BAE71A20B8E71A20B6E7C0460040004170
S11314A0210500004508000048000020211200002A
S11314B0A04300006D13000070B594B02F4C0022BF
S11314C08723E25400202E4B98472589042D25D9E3
S11314D00026042419E0A008C0B2294B984704ADA3
S11314E04022FF212800274B98472E702900200016
S11314F0254B98472000254B98470136B6B2013456
S1131500A4B21E4B1D89A54208D9013DAC42F6D0B8
S113151003232340DFD0012BF1D8E0E701AE1C4BBD
S1131520320013CB13C204AC4022FF212000154B20
S11315309847019B049373686360B368A3600123B5
S1131540E373237300236373A373013DEB17032039
S113155018404519AD10E8B2094B9847074D288942
S1131560013880B22100084B98472889013880B29D
S1131570064B9847074B984714B070BD48000020AD
S1131580051200005B42000091130000B513000037
S1131590A04300002112000010B590B00C00154BC0
S11315A01A781F23002A02D1180010B010BD114B65
S11315B09A7A18238242F7D9B0330E4AD35C002BAF
S11315C003D08823D35C83420CD00A4B1818C07A0A
S11315D06946094B98473C2201A92000074B9847CC
S11315E00023E1E73C2203498C312000034B984758
S11315F00023D9E7480000206D1300004942000091
S113160010B5C823084AD35C002B01D1002010BDBB
S113161014008823D35CD318D87A044B984700224B
S1131620C823E254F2E7C04648000020B513000086
S1131630F0B5DE4657464E464546E0B587B0040051
S113164000915A4B1B781F20002B06D107B03CBCDD
S113165090469946A246AB46F0BD544B9B7A073858
S1131660A342F3D9C823514AD35C002B05D0882365
S1131670D35CA34201D04E4B98474C4B1B19DE7AE6
S1131680032331009943494B5868B3011B5CFF2B7A
S113169047D0751CEDB20431C9B2A94257D06B1CB6
S11316A0DBB2AA01125CFF2A3CD01D00F5E705AAB3
S11316B0D218567069E005AFFF187D7063E070784A
S11316C002993C4B9847394C21008831A8B23A4BD7
S11316D098474B461B78E318DD720122C823E25475
S11316E001370236022F13D087235A46D55CAD004A
S11316F0ED19D047B146337801998B42DFD1882365
S11317002A4AD1543C22009903982C4B9847DAE793
S1131710444640462A4B98478723244AD454002001
S113172094E73500214E8823F45430008C303C2259
S11317300099224B984731008831A8B21E4B984734
S11317403419E5720122C823F25400207EE7B3085D
S113175098461B02154A5268D31805AA19781170C5
S113176003218E4356703D31595C9170711CD170C8
S11317708022985C4032995C0023B51C033605AA8C
S1131780D25C904297D08A4291D00233042BF6D196
S113179005AE0027054B9B46054B9A465B468833AE
S11317A002930433039301949EE7C046480000204B
S11317B0011600006D13000091130000494200005F
S11317C00512000084B070B5049005910692079349
S11317D006220F4B1A70053A13A904A80D4B98471B
S11317E00B4D0D4C0122290004A8A0470028F9D173
S11317F00A4C00232370002213A904A8054B984720
S11318000F20074B9847207870BC08BC04B01847D9
S11318109C0500206D210000612200009905002034
S11318208101000084B030B58FB0129013911492EE
S11318301593382216A96846114B984712981399A4
S1131840149A159B0F4CA0470F4DC7232B700122F0
S113185021A912A80D4CA0470122290012A80C4B63
S11318609847002221A912A8A0470A480A4B984782
S11318700A4B18780FB030BC08BC04B01847C046F7
S113188049420000C51700009C0500206D2100009E
S113189061220000701700008101000099050020FA
S11318A084B070B50490059106920793104C0B23F5
S11318B02370149B1A0C62701A0AA270E37001223E
S11318C013A904A80B4DA8470623FF33159A21003A
S11318D004A8094CA047002213A904A8A847012082
S11318E0064B9847064B187870BC08BC04B01847E0
S11318F09C0500206D2100007124000055010000AA
S11319009905002084B030B58FB0129013911492D1
S11319101593382216A96846174DA84712981399AB
S1131920149A159B154CA047154C02232370229B37
S11319301A0C62701A0AA270E370201D80225200F1
S11319402399A847012221A912A80E4DA847822253
S11319505200210012A80C4B9847002221A912A87A
S1131960A8470320094B9847094B18780FB030BC9F
S113197008BC04B01847C04649420000C51700001F
S11319809C0500206D2100006122000081010000FF
S113199099050020F0B5DE4657464E464546E0B56B
S11319A091B005000C00160029600800BC4B984754
S11319B0020023680520DB0706D511B03CBC904625
S11319C09946A246AB46F0BD236817309B07F4D472
S11319D0B449086A971C0123BB4003430B620FA957
S11319E02D27F35D0B701432D3B202931800AE4B63
S11319F098470298AD4B9847F05D0021AC4B98474F
S1131A00F37A6B712423F35CAB712523F35CEB71E4
S1131A10F37E2B72337F6B722B6898461800A04BB1
S1131A209847143000220E2306A98C4663441A807A
S1131A30328A02928023DB019A4200D19EE00FD9C0
S1131A40C023DB01029A9A4200D192E080231B0258
S1131A509A4200D01FE1032306930023079308E072
S1131A6080239B019A4200D015E1102306930F3B7B
S1131A70079333680593F368039373690493337E80
S1131A809B462623F35C9A4673689946002B00D143
S1131A90A0E080235B05994500D184E0737E002B90
S1131AA002D0B37E424693732A68029FD369002B07
S1131AB0FCD10E3306AA944663441B8842469381A4
S1131AC0059B039A1343049A13434A4613431F4343
S1131AD05B461B021F4353465B071F432723F35CEC
S1131AE0002B01D104331F43737E9B02327F5202C9
S1131AF01343727F120213432422B25C5204134331
S1131B002522B25C12041343B17AF27A11431943C9
S1131B103389FF2B00D181E08022520417431943FB
S1131B202C23F35C002B03D1624B9B789B0701D5DC
S1131B3080231F432A68D369002BFCD14346596094
S1131B402A68D369002BFCD143461F600EAB802268
S1131B501A7000225A70DA709A70336B0A93736B9E
S1131B600B93B36B0C93F36B02930D9300270AAEA4
S1131B7063E008230693073B07937AE733680593EA
S1131B80F368039373690493337E9B462623F35CC3
S1131B909A4673689946002B18D080235B059945B3
S1131BA001D0002025E02723F35C002B00D075E74B
S1131BB0336A1F00C0B2404B984701000E2206ABA7
S1131BC09C46624438003D4B984712E00823069334
S1131BD0002307932723F35C002B0ED0069B00936E
S1131BE0079B0E2206A98C466244B16A306A344FC0
S1131BF0B847002800D0E0E650E7336A1F00C0B2BF
S1131C002D4B98470100069B0093079B0E2206A8C4
S1131C108446624438002A4FB847EAE7F37E002B33
S1131C2000D17DE78023DB041F4379E72000254BA7
S1131C30984707E00137042F0DD0F9B2BB0098593B
S1131C400028F3D0431CF5D00EA90870000CC0B2D4
S1131C501D4B9847EEE70023EB602B616B61AB6192
S1131C60EB612B62AB626B620022EB85AB85303398
S1131C70EA540133EA540133EA540133EA5428683C
S1131C80074B984704001149114B9847A400114B86
S1131C90E550002091E61023069300230793E8E61D
S1131CA0810E00000004004081310000F530000086
S1131CB0390D0000002000419D3100007B0C000024
S1131CC0A50C0000850D000079320000C51D000040
S1131CD039290000A4060020C2791C23002A01D15E
S1131CE018007047C28D92B2173B002AF8D10368DE
S1131CF0DA69002AFCD1198502211A7E0A42FCD035
S1131D000023EDE7F0B5CE46474680B583B0050025
S1131D1001911720002A04D103B00CBC90469946C7
S1131D20F0BDEB790530002BF6D02C68E369002B6D
S1131D30FCD1013A93B29946002601271F4B9846DD
S1131D4011E0731C9BB2019A915D6A79012A17D044
S1131D5089B21E0028001A4B98474B46013B9BB2A0
S1131D609946434513D0237E3B42EAD1134B227E4E
S1131D703A42E6D1012B19D0013B002BF7D1E0E721
S1131D800236B6B2019AD35C1B021943E2E7237E02
S1131D909B070DD4094B0221227E0A420AD1012B52
S1131DA00AD0013B002BF7D10020B5E71220B3E79E
S1131DB00020B1E70020AFE71220ADE7FFFF0000ED
S1131DC0D91C0000F8B58000624BC5582C68E36943
S1131DD0002BFCD1237EA67D1E403023EB5C3122F8
S1131DE0AF5C1F40F30722D5EB8D9BB2002B1CD0B8
S1131DF0AA6A1378DBB2511CA962697901290ED051
S1131E009BB2DB05DB0D2385EB8D013B9BB2EB85A0
S1131E10002B0CD1013323750133A37507E05178EE
S1131E2009020B430232AA62EBE701232375B307CD
S1131E3006D50223237500223133EA54FB071AD452
S1131E40730765D5AB8D9BB2002B5FD0638BDBB280
S1131E501A0714D43F221340002B34D09A0711D50B
S1131E601A223223EA54303B63837B0750D528007F
S1131E706B6998474CE02800EB689847E0E7372205
S1131E801340E9E75A0705D51E223223EA542E3BB4
S1131E906383EAE7DA0705D513223223EA54313B98
S1131EA06383E2E7DA0605D542223223EA54223B71
S1131EB06383DAE720221A42D7D021323223EA544C
S1131EC0123B6383D1E7238DDB05DB0DDAB2696A4C
S1131ED00A706A6A511C69626979012910D0AB8D54
S1131EE0013B9BB2AB85002B12D104332375002236
S1131EF02E33EA54BB070BD528002B69984707E01B
S1131F001B0A53706B6A01336B62E8E70423237581
S1131F10F30604D5102323752376FB060ED4B306EB
S1131F2004D52023237523763B070BD4330704D52C
S1131F30082323752376BB0608D4F8BD2800EB6973
S1131F409847ECE72800AB699847EFE72B6A28002D
S1131F509847F2E7A4060020F0B58BB005000C000A
S1131F60160029600B681C209B0701D50BB0F0BD3F
S1131F700B681738DB07F9D408006F4B98476F4A92
S1131F80116A871C0123BB400B43136209A9242750
S1131F90F35D0B701430C3B201931800684B98477B
S1131FA00198684B9847F05D0021674B9847337858
S1131FB0012B3FD03378002B03D12368082213432D
S1131FC023602B000C3329002831002204C38B42E8
S1131FD0FCD10023EB62AB620024AB862B86363344
S1131FE0EC540133EC540133EC54353B6B722C71DB
S1131FF02868514B984707005449554B9847BF00F0
S1132000544BFD502F6804AB80221A705C707F3AE9
S11320109A70DC703378002B02D1002204AB9A70E2
S1132020B36A0593F36A0693336B0793736B089350
S113203000240BE023680C2213432360BAE7380022
S1132040454B98470AE00134042C10D0E1B2A300B8
S113205002AA0C201218D0580028F0D0431CF2D049
S113206004A90870000CC0B23C4B9847EBE73378E6
S11320706B71337CAB71B37CEB71337D2B720022BB
S113208002ABDA803378012B12D03378002B26D1BF
S1132090B069B28B7B6AF17F0904B47F2143194391
S11320A079622023F35C002B1BD040231A4318E0F1
S11320B02868214B98471430C0B2294B9847010037
S11320C002AB9A1DB069274B984703001720002BD9
S11320D000D04BE702AB06331B783B73D5E70022F5
S11320E000207368B1680B43F1680B430343317CF0
S11320F00A43717C002903D11B498978890701D5DA
S113210080210B43B17C002902D0802189020A433B
S1132110F17C002902D0802189000A43317D002905
S113212002D0802189010A4339680B433B607B68F4
S11321301A437A60002019E7810E00000004004071
S113214081310000F5300000390D00001127000036
S113215039290000A4060020850D00007932000012
S11321609D3100007B0C00000020004110B5447933
S11321701523012C01D0180010BD047A0023002C73
S1132180F9D1002A58D04B78002B44D003681B7E29
S1132190DB0710D40A78D1090023002904D153099C
S11321A0DB012E498C4663441F21114001228A40E1
S11321B09A610523DFE70A78D4090023002C04D1AF
S11321C05309DB01254CA44663441F241440012217
S11321D0A2405A6103681A7ED20701D58A789A62AE
S11321E0C2790023002AC6D102680421137E0B425F
S11321F0FCD0117E00234907BDD5538B5B0701D565
S1132200042353838379012B02D0936A0023B2E71A
S1132210936A0023AFE70A78D1090023002904D187
S11322205309DB010D498C4663441F2111400122EF
S11322308A405A6100239EE70A78D10900230029C5
S113224004D15309DB0105498C4663441F21114025
S113225001228A409A6100238DE7C0460044004170
S1132260F0B5DE4657464E464546E0B583B03823C2
S1132270C45C333B052C02D01233002A07D118006A
S113228003B03CBC90469946A246AB46F0BD4379A8
S1132290002B03D103681C7EA4070AD493460024B0
S11322A001230225AC460235A846013A92B28A4679
S11322B023E002241C76F1E7357E61460D422ED1DF
S11322C0357E1D4200D1C2E00668357E1D42FCD039
S11322D0671CBFB251460D5D8179012923D0ADB28F
S11322E03C00377E1F4202D0ED05ED0DB562551E50
S11322F0ADB2C679002E1DD12A005A4DAA4270D023
S11323004579002DE0D10668357E1D42D4D1564D65
S1132310377E1F42D0D1013D002DF9D1CCE70223F5
S113232033760233ABE70234A4B25146CF5D3F02A9
S11323303D43D6E751464579002D37D14B4D0191A8
S113234012E00234A4B24946019F795C0902009F5D
S11323500F431BE0013A92B20668377E41460F42B2
S11323601BD1013D002D18D0002AF5D00668377E18
S11323701F42F1D0671CB9B289460199095D0091E9
S113238081790129DDD069460F884C46317E194296
S1132390E0D0FF05FF0DB762DCE70199357E6746A3
S11323A03D4218D1357E4646354252D00668357EC8
S11323B047463D42FBD0357E3D4207D0758B3D42BA
S11323C000D077838579012D09D0B56A5D46013D3A
S11323D0ADB2AB4669E70223337602334FE7B56A01
S11323E0F4E74379012B0BD0002B34D1C279002AB6
S11323F000D144E704245B465D46002B19D13EE737
S1132400016802220B7E1342FCD0002337E70B7EC7
S1132410234222D00B7E234207D04B8B234200D091
S11324204C838379012B10D08B6A013DADB2002D12
S113243015D001680B7E2342E9D10B4B0A7E224260
S1132440E5D1013B002BF9D1E1E78B6AEDE71223DB
S113245015E7122313E7002311E712230FE70023E4
S11324600DE7C046FFFF0000102700001127000001
S1132470F0B5DE4657464E464546E0B585B088463B
S1132480039299463823C35C0524052B03D01234E8
S11324904B46002B07D1200005B03CBC9046994622
S11324A0A246AB46F0BDC3790534002BF3D0437983
S11324B0002B03D103681A7E920707D44B46591E9A
S11324C089B200239A460122042775E002221A7673
S11324D0F4E7022333760424DDE702339BB2444657
S11324E0A65D36025C4634438FE002339BB241461C
S11324F06646895D0902029E0E431AE0019901397C
S113250089B201910468267E3E4219D1013D002D15
S113251016D00468267E1642F4D05E1CB6B2B446C9
S11325204646F15C0E00029181790129DDD0B6B2F4
S11325306346217E1142E1D0F605F60DA662DDE781
S11325400199257E0226354205D1247E3C4200D1E4
S1132550CEE00E0004E00223237604249BE70E0061
S11325600568297E3942FCD04946013989B2894639
S1132570297E394200D1BDE0698B0024019439429F
S113258002D06F831E2101918179012949D0AD6A5E
S1132590EDB20199002900D0B4E05146013189B26D
S11325A08B46039C514665548479012C3DD0DA4610
S11325B0711E89B2002E45D04479002C13D10668CF
S11325C0347E144206D1504C357E154202D1013C72
S11325D0002CF9D1347E02252C4200D079E7347ED8
S11325E0144200D182E005682C7E1442FCD05E1CAB
S11325F0B6B24446E45CA3468479012C00D16CE76E
S11326005B466C46A380A48833002E7E164202D01B
S1132610E405E40DAC624479002CA0D13B4D01915A
S113262077E7AD6AED05ED0DB3E702218C46E24490
S113263051466C46218121898A462D0A03995C46BC
S11326400D55B5E7019C4379012B10D0002B00D028
S113265021E74B46002B00D11DE7042721001E254E
S113266004005046039B98460291494626E00168BF
S113267002220B7E1342FCD00DE7337E3B423BD05B
S1132680013989B2337E3B4238D0738B029A01926E
S11326903B4201D077830195A379012B1AD0B66A06
S11326A0F6B2019B002B2BD1431C9BB2424616541D
S11326B0A279012A12D01800002915D02668337E89
S11326C03B42DAD1104B327E3A42D6D1013B002B49
S11326D0F9D1D2E7B66AF605F60DE2E7023080B228
S11326E0360A4246D654E7E7019CD4E61224D2E6E1
S11326F01224D0E61024CEE61224CCE61024CAE636
S1132700019CC8E6019CC6E61027000011270000C2
S1132710F8B58000854BC45826683723E35C36221D
S1132720A75C1F40337EB57D1D40EB072ED5637932
S1132730012B25D0002B29D1637A002B26D02168C8
S1132740E26A1378DBB2501CE062A079012800D160
S113275069E09BB2DB05DB0D8B62A38E013B9BB270
S1132760A386A38E9BB2002B10D101333375637AF9
S1132770012B0BD1E379002B08D10233B37505E0AB
S1132780637A002B3ED0637A002BD8D16B0711D526
S1132790738B5B0751D5637A012B08D01E22382333
S11327A0E254353B6372023333753B0741D4B36A59
S11327B004237383AB0715D56379002B0ED107333C
S11327C03375053B3376013363720023A386238676
S11327D038330022E254FB0600D57FE06379012BF5
S11327E000D17FE02B0708D56379002B05D108338E
S11327F033753376BB0600D58AE06DB2002D00DA5E
S11328008AE0F8BD4A4B1B88B362638E013B9BB2DE
S11328106386638E9BB2002B01D1013333756379D8
S1132820012BB0D086E75078000203430232E26203
S113283090E72000A3699847B9E7637A012B27D072
S113284023689B6ADB05DB0DDAB2A16A0A70A26A0F
S1132850511CA162A179012933D0238E013B9BB283
S11328602386238E9BB2002BA4D100223833E2545A
S1132870343B3375637A022B29D0637A002B00D062
S113288098E7BB0700D495E720002369984791E7B0
S113289023689B6A638E013B9BB26386638E9BB203
S11328A0002B00D086E70433337500223433E2541E
S11328B0353B6372FB0700D47CE72000E36898474C
S11328C078E71B0A5370A36A0133A362C5E77B0749
S11328D000D46FE72000636998476BE72000E36941
S11328E098477BE7637A012B00D086E7E379002BD6
S11328F000D082E70233337501336372002235332B
S1132900E254FB0700D46DE72000E368984769E7C9
S11329102000236A984770E78023337533767B065B
S113292000D46EE7636A200098476AE7A406002093
S1132930A00600207047000030B50B4B1B78002B1D
S11329400ED10A4C0A4D25600A4B00221A606560BC
S11329505A60A5609A60E560DA600132024B1A7031
S11329608000024BC15030BD14010020180100202A
S113297035290000A406002010B582B001AC09235B
S11329802370013363700133A3700133E370024B8E
S11329909847205602B010BD810E000010B5024BBE
S11329A01B680020984710BD1801002010B5024B89
S11329B05B680120984710BD1801002010B5024B38
S11329C09B680220984710BD1801002010B5024BE7
S11329D0DB680320984710BD1801002070470000F1
S11329E00C4B1B68002B06D1EFF31083002B07D090
S11329F00022094B1A70074A1368013313607047A9
S1132A0072B6BFF35F8F0022044B1A700132024B7F
S1132A101A70F0E7280100202C0100201C0000207F
S1132A20084B1A68013A1A601B68002B09D1064B3F
S1132A301B78002B05D00122044B1A70BFF35F8F63
S1132A4062B67047280100202C0100201C000020E1
S1132A5010B5082803D880001B4B1B589F46002044
S1132A6030E01A4B18692DE0194B1B6A9B059B0F2C
S1132A701848D84026E0154B586923E0134B1B68CF
S1132A8000209B071ED512491022CB681A42FCD0A5
S1132A900E4B1B685B0701D40F4813E000200F4B5B
S1132AA098470A4B9B681B041B0C58430AE05023AD
S1132AB0074AD35C00205B0704D5044BD86801E0C7
S1132AC08020000210BDC046AC430000300100204D
S1132AD00008004000127A00006CDC029D31000006
S1132AE070B50C490B6A047885784078012210404F
S1132AF080014026B34303432A40D201802083430C
S1132B0013430322224012020348034013430B627F
S1132B1070BDC04600080040FFFCFFFFF0B5CE4684
S1132B20474680B5194B99469B6941788C46057890
S1132B300679C7784479807801210840800004220E
S1132B409343034360460840C00004329343034365
S1132B503800084080014027BB430343300008404D
S1132B60C0018026B3430343072005402D020848D3
S1132B7003402B4321400903064803400B434A46C4
S1132B8093610CBC90469946F0BDC04600080040D5
S1132B90FFF8FFFFFFEFFFFFF0B5DE4657464E4656
S1132BA04546E0B50100264B9B469B8A4578007854
S1132BB04242424191468878CA7894460A799046BE
S1132BC04E7B0F7B8C7B8A681E494A6101214A46F1
S1132BD092009146042293434A46134342460A40D4
S1132BE0D2009046082293434246134362460A4069
S1132BF01201944610229343624613430840400155
S1132C002022934303430F40BF01402083433B43AF
S1132C100E40F601403083433343793805402D029A
S1132C20094803402B4321400903084803400B4350
S1132C305A4693823CBC90469946A246AB46F0BDA8
S1132C400008004030010020FFF8FFFFFFEFFFFF06
S1132C50F8B50500C468037D012B3BD0AB681801AF
S1132C602100204B98470F22024003092E78F601D9
S1132C70697889010E43F6B21B494427CE551604E0
S1132C80013B1B051B0D33438B64AB781B03EE78B0
S1132C90F60033432E79B6003343AF7C03263E401F
S1132CA033432E8A3604114F3E403343EE7C3602C2
S1132CB0E027FF003E4033432E7D3601302535406A
S1132CC02B43CB640F239843801844432409084BB7
S1132CD0DC60F8BD018A013149002000014B9847AE
S1132CE00400BBE7C13E0000000800400000FF07ED
S1132CF030010020082803D88000254B1B589F462C
S1132D00172044E0234A136A02210B431362002074
S1132D103DE0204A936902210B439361002036E091
S1132D201C4A138A02210B43138200202FE0194A04
S1132D30938A02210B439382002028E016490B68F2
S1132D40022213430B60134B9A8419000E32CB6892
S1132D501A42FCD0104A91680E4BD96252689A62AA
S1132D6000229A8419001032CB681A42FCD00A4B14
S1132D701B689BB2074A9384002008E0054944225B
S1132D808B5C022003438B54002000E0002070473A
S1132D90D04300000008004030010020F0B5CE46CA
S1132DA0474680B591B0C222D200584B9A60584A27
S1132DB053681E218B431C390B43536004236A461A
S1132DC013700024534DE0B26946A8470134252C02
S1132DD0F9D10CA800230370837080221202826050
S1132DE0C37001220271837306214170437302731D
S1132DF0494B98470520494B984744490222CB68E0
S1132E001A42FCD0464B1B68DB0440498A695B0EBE
S1132E101B044448024013438B610AA801254570F2
S1132E20857005710723037000244471C5703E4BFF
S1132E3098470420394EB04709A844700470847040
S1132E403A4B98470620B047394B98476B465C701D
S1132E5006236A4613701472547208239946019328
S1132E6069460120334B984698470120324FB847B2
S1132E706B465C705C7204236A4613701C330193C6
S1132E80157269460220C0470220B84701956B4677
S1132E905C701C725C724A461A7069460320C04713
S1132EA00320B84703A844708470C4700471234B92
S1132EB0836080231B02C36005820475C474847418
S1132EC004701F4B98470820B04710485021032234
S1132ED0435C1340032BFBD11A4A00231372537231
S1132EE09372D372012201926A4653700622694694
S1132EF00A700B724B7200200E4B984700200E4B49
S1132F00984711B00CBC90469946F0BD00080040AB
S1132F100040004181310000992B0000F52C000095
S1132F2024608000FFFF80FF1D2B0000E12A0000C9
S1132F30492F00006D2F000025300000006CDC02DA
S1132F40512C000000040040064A936908210B43F9
S1132F5093610122044B1A7019000B781342FCD1BF
S1132F607047C04600040040000C004070B50600E5
S1132F7004000D782D0205434B78002B02D08023EA
S1132F80DB021D434B7A002B02D080231B031D431D
S1132F904868012810D9431E184234D1022830D978
S1132FA00223002201325B009842FBD81202324312
S1132FB0140080235B031D430B7A002B02D0802373
S1132FC09B031D43134A53785BB2002BFBDB124B6C
S1132FD09847124B1E700F4A53785BB2002BFBDBF1
S1132FE00C4B9C601A0053785BB2002BFBDB094A44
S1132FF05368802149020B401D435560084B984794
S113300070BD0022D2E70402344380239B021D4397
S1133010D2E7C046000C0040E1290000080C004043
S1133020212A000010B504000B4A53785BB2002B30
S1133030FBDB0A4B98470A4B1C70074A53785BB278
S1133040002BFBDB044A516880235B020B43536073
S1133050044B984710BDC046000C0040E129000015
S1133060040C0040212A000070B504001A4A537869
S11330705BB2002BFBDB194B9847194B1C70164AAB
S113308053785BB2002BFBDB134E7068C004C00E98
S1133090144B98470500124B1C707668F602F60F25
S11330A0114B1C700C4A53785BB2002BFBDB0A4BB0
S11330B09C682402240C0D4B9847002E07D1012C48
S11330C007D9210028000A4B9847050001E0013484
S11330D0E540280070BDC046000C0040E129000016
S11330E0040C0040512A0000080C0040212A000072
S11330F0C13E000010B50400064B9847064B1C70F7
S1133100064A53888021C9010B435380044B9847D6
S113311010BDC046E1290000020C0040000C004034
S1133120212A000010B504000F4B98470F4B1C7068
S11331300F4A53881B05180F53880E490B405380C0
S113314053880D490B40538011008022D2014B88D3
S11331501342FCD106494A8803020648024013433D
S11331604B80064B984710BDE1290000020C00403B
S1133170000C0040FFF0FFFFFFBFFFFF212A00000B
S113318010B50C7824020443024B9847A4B2024BB6
S11331905C8010BD25310000000C004010B5040017
S11331A0064B9847064B1C70064B5C882405240F7D
S11331B0054B98472000054B984710BDE1290000B6
S11331C0020C0040000C0040212A0000693000007D
S11331D030B5D378002B35D11378802B29D01B063A
S11331E080246402234354780225AC4306D19478A6
S11331F0002C20D18024A402234341605478013C54
S1133200012C1CD90D042D0CA024E4052C431C43D3
S113321084620D0CD02424062C431C438462D4788D
S1133220002C22D15B031CD59378012B1ED0416165
S113323017E00023D7E7C024E4022343DDE70D4C65
S11332402340DFE741600C04240CA023DB05234367
S113325083620C0CD0231B0623438362D378002B98
S113326003D15378013B012B02D930BD8161F8E7CA
S11332708160FAE7FFFFFBFF10B50A00C1090023D4
S1133280002904D14309DB0105498C4663441F240A
S11332902040012181401800024B984710BDC046D0
S11332A000440041D13100007047000010B5054BC7
S11332B09847054B9847054B9847054B9847054B4E
S11332C0984710BD9D2D0000DD2900005D0200001F
S11332D0D1030000A9320000FEE70000F8B52A4A35
S11332E02A4B9A4211D01A00294B9A420DD2294AEC
S11332F003339B1A9B0801339B0000222348224975
S11333008C58845004329A42FAD1234A234B9A426D
S11333100AD2D34321495B1803218B4304339B18FE
S1133320002102C29342FCD11D4AFF211D4B8B4355
S11333309360FD3990235B001B4AD1501B4AD3781C
S11333400325AB4302242343D370D3780C27BB4318
S113335008263343D370164B987B302290432022A7
S113336010439873997BB943314399739A7BAA4369
S113337022439A730F4A536880210B4353600E4BC8
S113338098470E4B9847FEE73844000000000020A1
S1133390200000200400002020000020C808002095
S11333A000ED00E00000000000700041005000410A
S11333B0004800410040004101420000113B000070
S11333C082B00F4B1B5CFF2B19D0EFF310835A42D2
S11333D05341019372B6BFF35F8F0022094B1A70F9
S11333E00199074A135C01331354002905D00122C3
S11333F0044B1A70BFF35F8F62B602B07047FEE7EA
S1133400400500201C00002070B50E4A13680133EB
S113341013600D4C80235B02A3618025A5610B48DA
S11334200B4B98470A200B4B984701220A4B1A7002
S11334300A480B4B98470B4B186000225A60656191
S113344070BDC0462C0400200044004188080020C0
S1133450C90400008101000048010020DC060020AE
S11334605509000038040020F0B591B080225202C2
S11334707C4B9A617C4B198B7C4C49007C487D4B7E
S1133480984720607C487D4B984702007C4B186825
S11334907C4B43437C490868181880187B4B1860A0
S11334A023687B4A1278002A00D0B3E0794A127864
S11334B0002A0FD0784A1588E9000722774C64184F
S11334C0A35401061B0A0B43000A013AF8D2013542
S11334D0714B1D80704B1B881F2B02D901226C4B32
S11334E01A706C4A13780133DBB213700A2B00D8BC
S11334F0AFE0802252025B4B5A616948694B98479E
S11335000022644B1A70624B1E78002E04D10122F3
S1133510654B1A7011B0F0BD80229204514B9A6130
S11335205D4A13881F3B1380604C5C4B636421002D
S11335301031382268465E4DA84720686168A26849
S1133540E3685C4CA0475C4C21001031382268468B
S1133550A84720686168A268E368584CA047584BA4
S11335601D685C68574F0537574B591CFF310020C5
S11335700F9603E0013701338B420ED03E781E7064
S11335805E79FF2EF6D19E79FF2EF3D1DA79FF2AE8
S1133590F0D10F9879250024ECE7002836D1802259
S11335A05200494949484A4B9847404A136C0133F1
S11335B0FF33136440490A6C0132FF320A648021EC
S11335C08904284A516143491A0C4A701A0A8A70BC
S11335D0CB702E4B1B681A0E0A711A0C4A711A0A08
S11335E08A71CB7100203C4B98473C4B98472A4B3F
S11335F01988C9000023294C39481A5C1A5501332B
S11336008B42FADD0022224B1A7080E72C4B1D609E
S11336105C60C4E71F4A1278002A12D01E4A15883B
S113362029002039C90007222D4C6418A35401062F
S11336301B0A0B43000A013AF8D20135164B1D80D0
S113364048E7154B1B881F2B00D947E70122114B74
S11336501A70FA204000234B98471148224B984790
S113366058E7C046004400410030004250010020A9
S1133670006CDC02D53F0000DC0600205509000088
S11336802C040020881300002804002034040020A7
S113369049010020540100204A0100204004002078
S11336A088080020F50400003004002000080020F1
S11336B0494200000519000028070020A118000055
S11336C0F00700202003002058010020BC07002040
S11336D0051D0000700700203116000001160000CF
S11336E05802002081010000C904000010B5064BF7
S11336F09847162802D0002801D110BDFEE7034BDD
S11337009847014B9847F8E7D5130000B914000017
S113371010B5064B9B685B0500D410BD8022D20017
S1133720024B9A60024B9847F7E7C04600080040F6
S11337300116000030B591B08023DB05009300230F
S11337400193FF2269460A8100228B72CB72012108
S113375024206C4621540130215425316354013115
S113376063540A93053163540131635405932382EE
S1133770E3762276227762761323A3766277FA239E
S11337809B02089380235B030393124B0C93124B0D
S11337900D9301235B420E930F93104D104C6A4618
S11337A010492800A0470028F9D10C4D2C682000AE
S11337B00D4B98471F2318401E3B83400B4A136050
S11337C02A68D369002BFCD12368022213432360A7
S11337D011B030BD0300040003000500BC07002045
S11337E095190000000800427929000000E100E07A
S11337F070B582B001AC0023237001266670A370FB
S1133800210002200B4DA84721001220A847267052
S113381021001020A84721000720A84721000F20DD
S1133820A84721001920A84780225202024B5A615E
S113383002B070BDA50800000044004100B583B08B
S113384001A901238B700022CA7007320A704B70E1
S11338501620024B984703B000BDC04679320000E1
S1133860F0B591B02A4C0923237000236370A37030
S113387001A901224A708B700A700920254B9847D0
S11338802378D9090022002904D15A09D2012249F6
S11338908C4662441F2633400125290099409161DA
S11338A002AC257000230393049323746374A574FA
S11338B0E57423752422A354183A002108A8174B51
S11338C09847174BA36180235B02E360154BA36207
S11338D001235B42E362144B2363144B6363144F71
S11338E0220014493800144B98473C682000134BBD
S11338F098470640B540124B1D603A68D369002BC7
S1133900FCD1236802221343236011B0F0BDC046EA
S113391084080020A5080000004400415B42000028
S1133920A08601000300080003000A0003000B0046
S11339304808002000100042591F000079290000A7
S113394000E100E000B58FB001AA002393700021CC
S113395093809171138151709172917351731174A9
S11339605361936111771362536213855385938571
S11339700133D37213730233137003490348044BA6
S113398098470FB000BDC04600300042A808002090
S1133990C90F000000B585B000236A46D3700293B6
S11339A00393138093700123137103490348044B59
S11339B0984705B000BDC04600140040DC06002056
S11339C0050A000010B5054C022205492000054BEC
S11339D0984702212000044B984710BDDC060020C4
S11339E009340000090B0000410B0000F0B5C64685
S11339F000B586B0394B06225A71053ADA70384A56
S1133A0011681B795A1E93411B01344A9278002A8B
S1133A105FD120321343314A1278002A02D0802227
S1133A20520113432D4A5278002A02D08022920177
S1133A3013434A890620024313439BB24B81284C0B
S1133A40022228492000284B98472068274B984792
S1133A50274B1A5C1F231340012290469A40254BA2
S1133A601A60637E10221343637610232268537313
S1133A7003AD2800204B98471223039300266E6061
S1133A8002272F720E3BEB726E72290002201B4B31
S1133A9098471B4B42469A7068461A4B98470E2328
S1133AA06A46937016705770694601A8164B98477A
S1133AB0132101A8154B98472268D37B5BB2002BD6
S1133AC0FBDB138802210B43138006B004BC904631
S1133AD0F0BD9022520013439DE7C046F807002032
S1133AE0A808002069340000C90E0000910F0000EE
S1133AF01444000000E100E03D0400005104000013
S1133B0088080020810200009102000041030000A7
S1133B10F0B5D6464F464646C0B590B0B34B98472D
S1133B20B34B9847B34B98470EA9002399460027F7
S1133B300B804B8001268E71CE7110230B712033C4
S1133B404B710020AC4B9847AC4B5A6B02210A4393
S1133B505A638022D2005A60A94B1960A94B984736
S1133B60A94B9847A94B9847A94B9847A94B984705
S1133B70A94B9847A94B9847A94B9847A94B9847F5
S1133B80A949AA48AA4B9847AA4B1F705F709F7017
S1133B90DF701E71A84F3E70BFF35F8F62B6A74BF4
S1133BA098463C22A6491800A64B9A469847404698
S1133BB03C300322A449D04743464A461A64A34BE7
S1133BC042465364A24B98463C229D491800D04774
S1133BD040463C3003229C49D04743464A461A6437
S1133BE09C4B42465364802292049B4B9A613E70E4
S1133BF0BFF35F8F62B6994E31000020984B98470F
S1133C009848994B98473378FF2B26D19349002342
S1133C100B704B708B70CB700020944B9847944B77
S1133C209847864E3100103138226846854B9847B4
S1133C3030687168B268F3688E4EB04720228E49AE
S1133C408E488F4B984704208E4EB0470420B047CF
S1133C50784B1B79002B1DD1FEE7804A53787749B6
S1133C60086C03431B02907803431B02D078034380
S1133C700B6477490B6484491379086803431B0276
S1133C80507903431B02907903431B02D2791343F7
S1133C900B60D8E7EFF31082534253410E9372B690
S1133CA0BFF35F8F0022644B1A700E99614A137937
S1133CB0013B1371002905D001225F4B1A70BFF339
S1133CC05F8F62B65B4B1B78002B19D1594B0133C4
S1133CD01A78002AFBD00023564A01320133DBB2A2
S1133CE011780029F9D0694A1370802292045A4B42
S1133CF05A614E48664B9847664FB946664E23E074
S1133D000023F0E700234A4613706448B0471EE0DE
S1133D10190001324B1CDBB210780028F8D0002BBC
S1133D2028D10122444B1A70BFF35F8F62B63F481B
S1133D305B4B984700255B4B1A685B682900801A27
S1133D4099410A1E47D143D03B78002BDAD1564B18
S1133D501B78002BEBD00023534A137072B6BFF3C9
S1133D605F8F354A1370334B1B78002BD9D1002158
S1133D70304ACEE772B6BFF35F8F00222E4B1A7023
S1133D804A4B9B691B051B0F022B05D8484A5068F8
S1133D90C0239B000343536002290BD9032911D08C
S1133DA00122254B1A70BFF35F8F62B6BFF34F8FAA
S1133DB030BFBCE73F4A13690420834313613E4B81
S1133DC05970EDE73B4A136904210B431361E7E79C
S1133DD0154B9842B8D90122334B1A702F48374BF0
S1133DE09847802252021C4B5A61ADE7AD32000065
S1133DF0DD290000ED360000AD01000000080040A0
S1133E0000E100E0353700003D380000F1370000E4
S1133E10613800001501000045390000ED3900004B
S1133E2095390000C539000088130000DC06002025
S1133E30E50A0000400500201C00002000080020C6
S1133E404808002049420000840800204004002063
S1133E5028070020200300200044004170070020B0
S1133E6099150000102700008101000031160000A0
S1133E700116000025180000F4430000BC070020D0
S1133E80051D0000C1330000280400204C0100205F
S1133E90D108000048010020C9040000880800205F
S1133EA0550900003804002030040020002000419F
S1133EB00040004100ED00E000040040F504000073
S1133EC0002243088B4274D303098B425FD3030A55
S1133ED08B4244D3030B8B4228D3030C8B420DD368
S1133EE0FF22090212BA030C8B4202D312120902F6
S1133EF065D0030B8B4219D300E0090AC30B8B4234
S1133F0001D3CB03C01A5241830B8B4201D38B03E1
S1133F10C01A5241430B8B4201D34B03C01A524186
S1133F20030B8B4201D30B03C01A5241C30A8B42C9
S1133F3001D3CB02C01A5241830A8B4201D38B02B4
S1133F40C01A5241430A8B4201D34B02C01A524158
S1133F50030A8B4201D30B02C01A5241CDD2C309CA
S1133F608B4201D3CB01C01A524183098B4201D346
S1133F708B01C01A524143098B4201D34B01C01A31
S1133F80524103098B4201D30B01C01A5241C308A9
S1133F908B4201D3CB00C01A524183088B4201D318
S1133FA08B00C01A524143088B4201D34B00C01A04
S1133FB05241411A00D20146524110467047FFE770
S1133FC001B5002000F0F0F802BDC0460029F7D08A
S1133FD076E7704703460B437FD4002243088B42A5
S1133FE074D303098B425FD3030A8B4244D3030B7C
S1133FF08B4228D3030C8B420DD3FF22090212BA41
S1134000030C8B4202D31212090265D0030B8B42BC
S113401019D300E0090AC30B8B4201D3CB03C01AA6
S11340205241830B8B4201D38B03C01A5241430B81
S11340308B4201D34B03C01A5241030B8B4201D371
S11340400B03C01A5241C30A8B4201D3CB02C01ADC
S11340505241830A8B4201D38B02C01A5241430A54
S11340608B4201D34B02C01A5241030A8B4201D343
S11340700B02C01A5241CDD2C3098B4201D3CB01EA
S1134080C01A524183098B4201D38B01C01A524199
S113409043098B4201D34B01C01A524103098B429D
S11340A001D30B01C01A5241C3088B4201D3CB0088
S11340B0C01A524183088B4201D38B00C01A52416B
S11340C043088B4201D34B00C01A5241411A00D21B
S11340D001465241104670475DE0CA0F00D0494284
S11340E0031000D34042534000229C4603098B42F4
S11340F02DD3030A8B4212D3FC22890112BA030A7C
S11341008B420CD3890192118B4208D389019211FD
S11341108B4204D389013AD0921100E08909C30982
S11341208B4201D3CB01C01A524183098B4201D384
S11341308B01C01A524143098B4201D34B01C01A6F
S1134140524103098B4201D30B01C01A5241C308E7
S11341508B4201D3CB00C01A524183088B4201D356
S11341608B00C01A5241D9D243088B4201D34B0071
S1134170C01A5241411A00D20146634652415B10B3
S1134180104601D34042002B00D549427047634694
S11341905B1000D3404201B5002000F005F802BDD9
S11341A00029F8D016E770477047C046F0B5CE46F0
S11341B0474615042D0C2E0080B50704140C3F0C43
S11341C09946030C7E435D43674363437F19340C74
S11341D0E4199C46A54203D980235B029846C44453
S11341E04B46514343433604360C250C24046544A2
S11341F0A4195918491920000CBC90469946F0BDE1
S113420070B500260C4D0D4C641BA410A64209D1B8
S1134210002600F001F90A4D0A4C641BA410A642C2
S113422005D170BDB300EB5898470136EEE7B300F3
S1134230EB5898470136F2E7244400002444000078
S11342402444000028440000002310B59A4200D101
S113425010BDCC5CC4540133F8E7030082189342C8
S113426000D1704719700133F9E700003A060000E5
S11342703A060000160600003A0600001606000082
S1134280FC050000FC0500003A0600003A060000A8
S11342903A0600003A0600003A0600003A0600001A
S11342A03A0600003A0600003A0600003A0600000A
S11342B03A0600003A0600003A0600003A060000FA
S11342C03A0600003A0600003A0600003A060000EA
S11342D03A060000160600003A0600001606000022
S11342E03A0600003A0600003A0600003A060000CA
S11342F03A0600003A0600003A0600003A060000BA
S11343003A0600003A0600003A0600003A060000A9
S11343103A0600003A0600003A0600003A06000099
S11343203A0600003A0600003A0600003A06000089
S11343303A0600003A0600003A0600003A06000079
S11343403A0600003A0600003A0600003A06000069
S11343503A0600003A0600003A0600003A06000059
S11343603A0600003A0600003A060000160600006D
S1134370160600001E0600001E0600001E060000B1
S11343801E06000000080042000C0042001000421B
S113439000140042002C004200300042003400426D
S11343A0454574414D4F52502E756D45622A0000AB
S11343B05E2A00005E2A0000C02A0000C02A000015
S11343C0762A0000682A00007C2A0000AE2A000039
S11343D0202D0000002D0000002D00008C2D000079
S11343E0122D00002E2D0000042D00003C2D000095
S11343F07C2D000043484950204552415345442CEC
S1134400205354415254494E472050524F47524131
S11344104D0D0A0012131400F8B5C046F8BC08BCD0
S11344209E467047DD000000F8B5C046F8BC08BCE5
S10B44309E467047B500000030
S1134438401F000008000000000000000C000000FD
S1134448000000000000000000000000010000005F
S90332DDED
