:10000000D8200020391900003519000035190000EA
:1000100000000000000000000000000000000000E0
:100020000000000000000000000000003519000082
:100030000000000000000000351900003519000024
:100040003519000035190000351900003519000078
:100050003519000035190000351900003519000068
:1000600035190000F10D0000010E0000110E000016
:10007000210E0000310E0000410E00003519000075
:100080003519000035190000351900003519000038
:100090003519000035190000351900003519000028
:1000A0003519000035190000351900003519000018
:1000B0000000000010B5064C2378002B07D1054B3B
:1000C000002B02D0044800E000BF0123237010BDC4
:1000D0001000002000000000081E0000084B10B5B2
:1000E000002B03D00749084800E000BF0748036819
:1000F000002B00D110BD064B002BFBD09847F9E731
:100100000000000014000020081E0000081E00006F
:100110000000000030B585B004000023039305689B
:100120002F4B98472B79002B56D101332B712D4B38
:1001300098479F2201AB1A706279D10900230029E8
:1001400004D15309DB0128498C4663441F21114027
:1001500001228A405A61012201A92068234B984755
:100160000023032203A92068214DA8476279D10901
:100170000023002904D15309DB011B498C46634449
:100180001F21114001228A409A61002322681371C5
:100190002379092B15D89B00164AD3589F46164B36
:1001A00012E0164B10E0164B0EE0164B0CE0164B0F
:1001B0000AE0164B08E0164B06E0164B04E0164B1F
:1001C00002E0002300E0154B039A9A4202D014206B
:1001D00005B030BD0020FBE7024B98470520F7E74C
:1001E000910A0000D10A000000440041FD10000007
:1001F00029100000E41C00001F4300001F44010000
:100200001F4502001F4501001F4602001F46030054
:100210001F8600001F4701001F4800001F650000E7
:10022000F0B585B004000E0001921F005A18037942
:10023000092B15D89B003249CB589F468023DB02FF
:1002400012E080231B030FE080235B030CE080237C
:100250009B0309E08023DB0306E080231B0403E00B
:10026000002301E080235B0217209A4201D905B0E8
:10027000F0BD2568234B98472B79002B3CD10133E7
:100280002B71214B98470B2302AA1370D670330AA7
:100290009370360C56706279D1090023002904D17D
:1002A0005309DB0119498C4663441F211140012287
:1002B0008A405A61052202A92068154B9847002FF1
:1002C00013D16279D1090023002904D15309DB013C
:1002D0000E498C4663441F21114001228A409A61D5
:1002E000236800221A710020C1E700233A00019917
:1002F0002068084DA847E4E7034B98470520B6E778
:100300000C1D0000910A0000D10A000000440041C9
:10031000FD10000029100000F0B5DE4657464E469D
:100320004546E0B585B005000E0001921F005A1841
:100330000379092B15D89B00AE49CB589F468023E3
:10034000DB0212E080231B030FE080235B030CE041
:1003500080239B0309E08023DB0306E080231B044A
:1003600003E0002301E080235B0217209A4206D9B4
:1003700005B03CBC90469946A246AB46F0BD2C6801
:100380009D4B98472379002B00D02EE10133237138
:100390009A4B9847062302AA13706A79D109002361
:1003A000002904D15309DB0195498C4663441F2180
:1003B000114001228A405A61012202A92868914B0A
:1003C00098476A79D1090023002904D15309DB0138
:1003D0008B498C4663441F21114001228A409A6157
:1003E000FF22324080235B009B1A1A1C9BB2BB4247
:1003F00000D93A1C93B29A46022302AA1370D6700F
:10040000330A9370330C53706A79D10900230029A1
:1004100004D15309DB017A498C4663441F21114002
:1004200001228A405A61042202A92868754B984724
:100430005346002B45D16A79D1090023002904D104
:100440005309DB016E498C4663441F211140012290
:100450008A409A612B68196801220B7E1342FCD0F6
:100460006A79D1090023002904D15309DB016449C9
:100470008C4663441F21114001228A405A612B6837
:100480001B681A7ED20701D505229A622868026885
:100490000421137E0B42FCD0137E00245B0709D598
:1004A000538B5B0701D5042353838379012B0ED033
:1004B000946AE4B20121002398460420B4462E0039
:1004C00010E05246019928684E4B9847B3E7936A6B
:1004D000DB05DC0DEEE7AB79012B1AD0946AE4B2B0
:1004E00021421AD033681A68137E0B42FCD0137E67
:1004F0000B4201D04346936235682A68137E03425B
:10050000FCD0137E0342EBD0538B0342E3D05083E5
:10051000E1E7946AE405E40DE2E7350066466A79AE
:10052000D1090023002904D15309DB0134498C4649
:1005300063441F21114001228A409A611020A306C2
:100540004FD45346FF1ABBB21900019A91460020BE
:10055000002B46D01F239B4601242A4B9846534626
:1005600001938A4658E01A0049462868254B984767
:10057000A4E0906AC005C00DE1E0BB79012B1AD060
:10058000906AC0B204421AD02B681A68137E2342C4
:10059000FCD0137E234201D0002393622F683A6877
:1005A000137E0B42FCD0137E0B42EBD0538B0B42DD
:1005B000E3D05183E1E7906AC005C00DE2E76B79B3
:1005C000D9090022002904D15A09D2010C498C46CC
:1005D000624459460B40210099409161830613D52E
:1005E00010202B6800221A71C2E6044B98470520A0
:1005F000BEE6C046381D0000910A0000D10A000086
:1006000000440041FD1000005346019A9B1A9BB222
:100610009A46002B00D194E002AB06221A706B7947
:10062000D9090022002904D15A09D20146498C4631
:10063000624459460B40210099405161220002A9B1
:100640002868C0476B79D9090022002904D15A09CA
:10065000D2013D498C46624459460B4021009940E5
:100660009161019A94466644E144574680235B00B9
:100670009A4501D9354B1F88BBB20193022302AAC8
:100680001370D670330A9370330C53706B79D90999
:100690000022002904D15A09D2012B498C46624418
:1006A00059460B40210099405161042202A9286853
:1006B000274B9847019B002B00D054E76B79D90951
:1006C0000022002904D15A09D2011F498C466244F4
:1006D00059460B402100994091612B681A68137E9E
:1006E0002342FCD06B79D9090022002904D15A0990
:1006F000D20115498C46624459460B40210099406D
:1007000051612B681B681A7E224201D005229A6231
:100710002B689C461A680421137E0B42FCD0137E82
:1007200000205B070BD5538B5B0701D50423538354
:1007300063469B79012B00D11BE7906AC0B204216C
:1007400022E700204DE7C04600440041341D000070
:10075000FD10000070B582B004000D000668354B36
:1007600098473379002B60D101333371324B98476E
:1007700006236A4613706279D1090023002904D147
:100780005309DB012D498C4663441F21114001228E
:100790008A405A61012269462068294B984762794C
:1007A000D1090023002904D15309DB0123498C46D8
:1007B00063441F21114001228A409A613C236A1E32
:1007C00095416D422B406A46D37101236A461370EE
:1007D0006279D1090023002904D15309DB011749AB
:1007E0008C4663441F21114001228A405A61012234
:1007F00069462068124DA84701226B46D91D206822
:10080000A8476279D1090023002904D15309DB01EB
:100810000A498C4663441F21114001228A409A6193
:10082000236800221A71002002E0034B984705203C
:1008300002B070BD910A0000D10A000000440041DE
:10084000FD100000F0B583B004000E001500037920
:10085000092B00D97FE09B00424AD3589F46802352
:10086000DB0210E080231B030DE080235B030AE022
:1008700080239B0307E08023DB0304E080231B0429
:1008800001E080235B021720B34201D803B0F0BD22
:100890002768354B98473B79002B5ED101333B717C
:1008A000324B984706236A4613706279D1090023B8
:1008B000002904D15309DB012D498C4663441F21D3
:1008C000114001228A405A61012269462068294B61
:1008D00098476279D1090023002904D15309DB012B
:1008E00023498C4663441F21114001228A409A61AA
:1008F0003623002D00D103336A461370D670330AB5
:100900009370360C56706279D1090023002904D106
:100910005309DB0116498C4663441F211140012213
:100920008A405A61042269462068124B98476279CE
:10093000D1090023002904D15309DB010C498C465D
:1009400063441F21114001228A409A6123680022DA
:100950001A7100209AE7172098E7044B9847052062
:1009600094E7C046601D0000910A0000D10A000013
:1009700000440041FD10000030B583B0040005685C
:100980001C4B98472B79002B2ED101332B711A4B1E
:100990009847B9236A4613706279D1090023002968
:1009A00004D15309DB0115498C4663441F211140D2
:1009B00001228A405A61012269462068104B9847FB
:1009C0006279D1090023002904D15309DB010B49C5
:1009D0008C4663441F21114001228A409A6123689A
:1009E00000221A71002002E0034B9847052003B053
:1009F00030BDC046910A0000D10A00000044004109
:100A0000FD10000030B583B0040005681C4B98470A
:100A10002B79002B2ED101332B711A4B9847AB2326
:100A20006A4613706279D1090023002904D1530961
:100A3000DB0115498C4663441F21114001228A4085
:100A40005A61012269462068104B98476279D109A2
:100A50000023002904D15309DB010B498C46634470
:100A60001F21114001228A409A61236800221A71D5
:100A7000002002E0034B9847052003B030BDC0467C
:100A8000910A0000D10A000000440041FD1000005E
:100A90000C4B1B68002B06D1EFF31083002B07D003
:100AA0000022094B1A70074A13680133136070471C
:100AB00072B6BFF35F8F0022044B1A700132024BF3
:100AC0001A70F0E72C000020300000200000002009
:100AD000084B1A68013A1A601B68002B09D1064BB3
:100AE0001B78002B05D00122044B1A70BFF35F8FD7
:100AF00062B670472C00002030000020000000206B
:100B0000F0B583B001AC012565700027A770257092
:100B100021003E20064EB0478022D205054B9A6147
:100B20002770657021000F20B04703B0F0BDC046AC
:100B3000390B00008044004100B583B001AB802236
:100B40001A700A785A704A789A708A78DA7019009E
:100B5000014B984703B000BDD518000010B54908F7
:100B600040230024814202D2180010BD1C00091A43
:100B7000631C9BB28842F9D94023FF2CF4D814801F
:100B80000023F1E710B582B004000E4B1B78002B58
:100B900007D0002905D10B4B5B78834210D01D2074
:100BA0000CE001A90C701320074B98471320074B4A
:100BB0009847044B5C7001221A70002002B010BDEF
:100BC0000020FBE734000020DD1700005117000073
:100BD000404B984231D00AD93F4B98424DD03F4BC1
:100BE00098425AD03E4B984237D0002070473D4B38
:100BF00098420CD03C4B9842F7D1012917D00029DC
:100C00005DD0022915D0032915D00020EEE7012977
:100C100007D0002951D0022905D0032905D0002092
:100C2000E4E73248E2E73248E0E73248DEE73248BC
:100C3000DCE73248DAE73248D8E7012907D0002953
:100C40003FD0022905D0032905D00020CEE72D484A
:100C5000CCE72D48CAE72D48C8E7012907D000296D
:100C600031D0022905D0032905D00020BEE728484D
:100C7000BCE72848BAE72848B8E7012907D0002987
:100C800023D0022905D0032905D00020AEE7234850
:100C9000ACE72348AAE72348A8E7012907D00029A1
:100CA00015D0022905D0032905D000209EE71E4853
:100CB0009CE71E489AE71E4898E71E4896E70320DF
:100CC00094E71D4892E71D4890E71D488EE71D48B0
:100CD0008CE7C0460010004200180042001C004291
:100CE0000014004200080042000C0042030005000E
:100CF00003000600030007000300010003001E00BC
:100D000003001F000300090003000A0003000B009A
:100D100003001100030012000300130003000D0084
:100D200003000E0003000F0003001700030018006B
:100D30000300190003000400030008000300100072
:100D400003000C000300160030B587B00B4B6A4659
:100D500032CB32C232CB32C2009B83420BD0012352
:100D60009A0069465258824206D00133062BF7D1C9
:100D7000002007B030BD0023D8B2FAE7881D00007C
:100D800070470000F0B50A4B1B78002B0CD1094FBF
:100D9000094E0A4D0024DE515A1914600433182BF1
:100DA000F9D10122024B1A708000024BC150F0BDF4
:100DB0003600002038000020810D00007400002063
:100DC00000B583B009236A461370013353700133B1
:100DD00093700133D3700133137101335371034B9B
:100DE00098476B46185603B000BDC046490D000039
:100DF00010B5024B1B680020984710BD380000203A
:100E000010B5024B5B680120984710BD38000020E8
:100E100010B5024B9B680220984710BD3800002097
:100E200010B5024BDB680320984710BD3800002046
:100E300010B5024B1B690420984710BD38000020F4
:100E400010B5024B5B690520984710BD38000020A3
:100E5000F0B58BB005000C00160029600B681C2053
:100E60009B0701D50BB0F0BD0B681738DB07F9D431
:100E70000800604B9847604A116A871C0123BB40F9
:100E80000B43136209A92427F35D0B701430C3B21E
:100E900001931800594B98470198594B9847F05DBA
:100EA0000021584B98473378012B38D02B000C3356
:100EB00029002831002204C38B42FCD10023EB62BD
:100EC000AB620024AB862B863633EC540133EC54F2
:100ED0000133EC54353B6B722C712868454B9847B5
:100EE00007004949494B9847BF00494BFD502F68BF
:100EF00004AB80221A705C707F3A9A70DC70337891
:100F0000002B02D1002204AB9A70B36A0593F36AF6
:100F10000693336B0793736B089300240BE02368ED
:100F20000C2213432360C1E738003A4B98470AE08C
:100F30000134042C10D0E1B2A30002AA0C20121834
:100F4000D0580028F0D0431CF2D004A90870000C3F
:100F5000C0B2314B9847EBE733786B71337CAB71A0
:100F6000B37CEB71337D2B72002202ABDA803378D5
:100F7000012B28D07368B2681343F2681343317CA5
:100F8000727C002A03D1254A9278920701D58022EB
:100F90001343B27C002A02D0802292021143F27CD9
:100FA000002A02D0802292001143327D002A02D012
:100FB0008022920111433A6813433B607B680B43E4
:100FC0007B6000204EE728680A4B98471430C0B277
:100FD000134B9847010002AB9A1DB069114B98471B
:100FE00003001720002B00D03CE702AB06331B7830
:100FF0003B73BFE7490D000000040040DD1700000F
:1010000051170000850B0000C9110000850D00007C
:1010100074000020D10B0000D51800000020004112
:10102000F91700005D0B0000F0B5D646474680B5C5
:1010300083B03824055D333C052D02D01234002ADC
:1010400005D1200003B00CBC90469A46F0BDC4798F
:10105000002C44D11C34F4E705682C7E3C42FCD0C3
:101060002C7E3C421AD04446AC6217E08479012CB5
:1010700026D0AD6AECB2A446019C002C3AD1751C76
:10108000ADB264468C558479012C1ED02E00013AF5
:1010900092B252451FD04479012CDDD005682C7ED8
:1010A0001C42FCD02C7E1C4217D06C8BA446002422
:1010B000019464461C42D9D06B831E240194D5E769
:1010C000AC6AE405E40DA446D6E70236B6B264463F
:1010D000240A4C55DBE7019CB3E71024B1E7013A41
:1010E00092B200260127DB05DB0D98460423024C53
:1010F000A246D0E7019CA4E7FFFF0000F0B5DE4662
:1011000057464E464546E0B583B08A463823C45C10
:10111000333B052C02D01233002A4BD1180003B008
:101120003CBC90469946A246AB46F0BD0237BFB2E2
:1011300041465346595C09025B460B4318E08379EC
:10114000012B2AD0936A013EB6B2664527D00268C9
:10115000137E2342FCD07B1C9BB298465346DB5D3A
:101160009B4681790129E1D06946CB80CB884746EF
:10117000117E214202D0DB05DB0D9362C379002B87
:10118000E1D00268137E2B42FCD0137E2B42DAD0D2
:10119000538B2B42D3D05583D1E7936AD3E742795F
:1011A0000023012ABAD1016801320B7E1342FCD020
:1011B0000023B3E7013A96B2002701240425014B2E
:1011C0009C46C4E7FFFF0000F8B58000704BC45890
:1011D00026683723E75C3622A25C1740337EB57D54
:1011E0001D40EB0702D56379012B1ED06B0711D58B
:1011F000738B5B075AD5637A012B08D01E223823E4
:10120000E254353B6372023333753B074AD4B36A09
:1012100004237383AB0703D56379012B00D197E0D7
:101220006DB2002D00DAA9E0F8BD637A002B22D060
:10123000637A002BDAD02168E26A1378DBB2501CA3
:10124000E062A079012827D09BB2DB05DB0D8B6221
:10125000A38E013B9BB2A386A38E9BB2002BC5D16C
:1012600001333375637A012BC0D1E379002BBDD1F3
:101270000233B375BAE7474B1B88B362638E013BF9
:101280009BB26386638E9BB2002B01D10133337511
:101290006379012BCCD0A9E75078000203430232D6
:1012A000E262D2E72000A3699847B0E7637A012B96
:1012B00028D023689B6ADB05DB0DDAB2A16A0A70CD
:1012C000A26A511CA162A179012934D0238E013B6D
:1012D0009BB22386238E9BB2002B00D09AE700227C
:1012E0003833E254343B3375637A022B29D0637A66
:1012F000002B00D08EE7BB0700D48BE720002369CA
:10130000984787E723689B6A638E013B9BB263869D
:10131000638E9BB2002B00D07CE704333375002230
:101320003433E254353B6372FB0700D472E720008C
:10133000E36898476EE71B0A5370A36A0133A36200
:10134000C4E77B0700D465E720006369984761E73D
:10135000637A012B00D063E7E379002B00D05FE7CD
:10136000023333750133637200223533E254FB07D5
:1013700000D455E72000E368984751E78023337590
:1013800033767B0600D44FE7636A200098474BE72B
:10139000740000208C00002010B5082803D88000BD
:1013A0001B4B1B589F46002030E01A4B18692DE05C
:1013B000194B1B6A9B059B0F1848D84026E0154B1C
:1013C000586923E0134B1B6800209B071ED5124968
:1013D0001022CB681A42FCD00E4B1B685B0701D46D
:1013E0000F4813E000200F4B98470A4B9B681B04E3
:1013F0001B0C58430AE05023074AD35C00205B07CC
:1014000004D5044BD86801E08020000210BDC0461E
:10141000A01D0000500000200008004000127A00CB
:10142000006CDC02F917000070B50C490B6A0478F7
:10143000857840780122104080014026B343034361
:101440002A40D20180208343134303222240120208
:101450000348034013430B6270BDC04600080040C0
:10146000FFFCFFFF082803D88000254B1B589F4630
:10147000172044E0234A136A02210B431362002021
:101480003DE0204A936902210B439361002036E03E
:101490001C4A138A02210B43138200202FE0194AB1
:1014A000938A02210B439382002028E016490B689F
:1014B000022213430B60134B9A8419000E32CB683F
:1014C0001A42FCD0104A91680E4BD96252689A6257
:1014D00000229A8419001032CB681A42FCD00A4BC1
:1014E0001B689BB2074A9384002008E00549442208
:1014F0008B5C022003438B54002000E000207047E7
:10150000C41D0000000800405000002030B585B028
:10151000C222D2001A4B9A601A4A53681E218B438A
:10152000536001236A4613700024174DE0B26946E8
:10153000A8470134252CF9D103A8002444700125C3
:1015400085700470114B98470620114B9847114B3A
:101550009847114B1C725C729C72DC7201956B4651
:101560005C7006236A461370147254726946002038
:101570000A4B984700200A4B984705B030BDC0463B
:101580000008004000400041DD1700002914000061
:1015900065140000A515000000040040C9150000F6
:1015A00081160000064A936908210B4393610122CA
:1015B000044B1A7019000B781342FCD17047C046D7
:1015C00000040040000C004070B5060004000D78D7
:1015D0002D0205434B78002B02D08023DB021D43F4
:1015E0004B7A002B02D080231B031D43486801283F
:1015F00010D9431E184234D1022830D902230022C8
:1016000001325B009842FBD812023243140080235F
:101610005B031D430B7A002B02D080239B031D43E9
:10162000134A53785BB2002BFBDB124B9847124BEB
:101630001E700F4A53785BB2002BFBDB0C4B9C6097
:101640001A0053785BB2002BFBDB094A53688021F8
:1016500049020B401D435560084B984770BD00225E
:10166000D2E70402344380239B021D43D2E7C046E5
:10167000000C0040910A0000080C0040D10A000054
:1016800010B504000B4A53785BB2002BFBDB0A4B0E
:1016900098470A4B1C70074A53785BB2002BFBDB60
:1016A000044A516880235B020B435360044B984704
:1016B00010BDC046000C0040910A0000040C004020
:1016C000D10A000070B504001A4A53785BB2002BAF
:1016D000FBDB194B9847194B1C70164A53785BB2C9
:1016E000002BFBDB134E7068C004C00E144B9847F0
:1016F0000500124B1C707668F602F60F114B1C7039
:101700000C4A53785BB2002BFBDB0A4B9C6824022B
:10171000240C0D4B9847002E07D1012C07D921002E
:1017200028000A4B9847050001E00134E5402800F5
:1017300070BDC046000C0040910A0000040C00403F
:1017400099130000080C0040D10A0000751B00002E
:1017500010B50400064B9847064B1C70064A538888
:101760008021C9010B435380044B984710BDC046EC
:10177000910A0000020C0040000C0040D10A000059
:1017800010B504000F4B98470F4B1C700F4A53883D
:101790001B05180F53880E490B40538053880D4981
:1017A0000B40538011008022D2014B881342FCD1A0
:1017B00006494A8803020648024013434B80064B01
:1017C000984710BD910A0000020C0040000C004038
:1017D000FFF0FFFFFFBFFFFFD10A000010B50C783C
:1017E00024020443024B9847A4B2024B5C8010BD14
:1017F00081170000000C004010B50400064B98470C
:10180000064B1C70064B5C882405240F054B98473B
:101810002000054B984710BD910A0000020C0040C3
:10182000000C0040D10A0000C516000030B5D37886
:10183000002B35D11378802B29D01B06802464021D
:10184000234354780225AC4306D19478002C20D150
:101850008024A402234341605478013C012C1CD90C
:101860000D042D0CA024E4052C431C4384620D0CB4
:10187000D02424062C431C438462D478002C22D12B
:101880005B031CD59378012B1ED0416117E0002328
:10189000D7E7C024E4022343DDE70D4C2340DFE714
:1018A00041600C04240CA023DB05234383620C0C51
:1018B000D0231B0623438362D378002B03D15378B4
:1018C000013B012B02D930BD8161F8E78160FAE765
:1018D000FFFFFBFF10B50A00C1090023002904D156
:1018E0004309DB0105498C4663441F242040012144
:1018F00081401800024B984710BDC046004400418B
:101900002D1800007047000010B5054B9847054B97
:101910009847054B9847054B9847054B984710BD8E
:101920000D150000010B000005190000051900004D
:1019300005190000FEE70000F8B52A4A2A4B9A4232
:1019400011D01A00294B9A420DD2294A03339B1A0F
:101950009B0801339B000022234822498C58845065
:1019600004329A42FAD1234A234B9A420AD2D343F1
:1019700021495B1803218B4304339B18002102C2C9
:101980009342FCD11D4AFF211D4B8B439360FD39CF
:1019900090235B001B4AD1501B4AD3780325AB43ED
:1019A00002242343D370D3780C27BB430826334348
:1019B000D370164B987B30229043202210439873AB
:1019C000997BB943314399739A7BAA4322439A7313
:1019D0000F4A536880210B4353600E4B98470E4BC0
:1019E0009847FEE7081E00000000002010000020BD
:1019F0000400002010000020D400002000ED00E0D2
:101A0000000000000070004100500041004800410B
:101A1000004000418D1C00001D1A000070B590B000
:101A20003D4B984702AC0125257000230393049396
:101A300023746374A574E57423752422A354183A9F
:101A4000002108A8354B9847354BA36180235B02E2
:101A5000E360344BA36201235B42E362324B2363B6
:101A6000324B6363324E220032493000324B98478A
:101A700034682000314B98471F2318408540304B75
:101A80001D603268D369002BFCD123680222134306
:101A900023602C4C0423237109336371244B23608E
:101AA00001A901234B7000228A700B700D20264B78
:101AB00098476279D1090023002904D15309DB0139
:101AC00022498C4663441F21114001228A409A61B9
:101AD0001C4C20001E4B984720001E4B98470A23A1
:101AE0001D4A002120001D4DA84780256D020022BF
:101AF000290020001A4B98470A231A4A290020007F
:101B0000194DA84701212000184B98472000184B79
:101B10009847002010B070BD09190000D51C0000C6
:101B2000C0D401000200300003003600030037007B
:101B300098000020001C0042510E0000C10D000062
:101B400000E100E090000020390B0000004400415B
:101B5000050A0000150100006800002021020000B5
:101B6000450800000400002019030000550700008C
:101B700079090000002243088B4274D303098B4289
:101B80005FD3030A8B4244D3030B8B4228D3030C4D
:101B90008B420DD3FF22090212BA030C8B4202D3EF
:101BA0001212090265D0030B8B4219D300E0090A17
:101BB000C30B8B4201D3CB03C01A5241830B8B4220
:101BC00001D38B03C01A5241430B8B4201D34B0309
:101BD000C01A5241030B8B4201D30B03C01A52416E
:101BE000C30A8B4201D3CB02C01A5241830A8B42F3
:101BF00001D38B02C01A5241430A8B4201D34B02DC
:101C0000C01A5241030A8B4201D30B02C01A52413F
:101C1000CDD2C3098B4201D3CB01C01A52418309F3
:101C20008B4201D38B01C01A524143098B4201D32D
:101C30004B01C01A524103098B4201D30B01C01A58
:101C40005241C3088B4201D3CB00C01A52418308D2
:101C50008B4201D38B00C01A524143088B4201D3FF
:101C60004B00C01A5241411A00D20146524110465F
:101C70007047FFE701B5002000F006F802BDC0463E
:101C80000029F7D076E770477047C04670B5002648
:101C90000C4D0D4C641BA410A64209D1002600F087
:101CA000A3F80A4D0A4C641BA410A64205D170BDCE
:101CB000B300EB5898470136EEE7B300EB5898476E
:101CC0000136F2E7F41D0000F41D0000F41D0000D1
:101CD000F81D000003008218934200D1704719706C
:101CE0000133F9E7C60100009E010000A2010000D7
:101CF000A6010000AA010000AE010000B201000030
:101D0000B6010000BA010000BE010000640200003C
:101D10003C020000420200004802000048020000AD
:101D20004E0200004E0200004E020000540200006D
:101D30005A02000000010000660300003E0300009C
:101D4000440300004A0300004A030000500300005F
:101D50005003000050030000560300005C03000025
:101D6000820800005E080000640800006A080000A5
:101D70006A08000070080000700800007008000089
:101D8000760800007C08000000080042000C0042B9
:101D9000001000420014004200180042001C0042E3
:101DA000AA130000A6130000A613000008140000E8
:101DB00008140000BE130000B0130000C41300009C
:101DC000F61300009014000070140000701400005E
:101DD000FC140000821400009E1400007414000023
:101DE000AC140000EC140000F8B5C046F8BC08BC08
:101DF0009E467047DD000000F8B5C046F8BC08BC40
:081E00009E467047B50000008A
:101E0800010000000001020304050607080900009C
:0400000300001939A7
:00000001FF
