S01300004C4344204558414D504C452E7372656312
S11300000C945A000C946F000C946F000C946F00C5
S11300100C946F000C946F000C946F000C946F00A0
S11300200C946F000C946F000C946F000C946F0090
S11300300C946F000C946F000C946F000C946F0080
S11300400C946F000C946F000C946F000C946F0070
S11300500C946F000C946F000C946F000C946F0060
S11300600C946F000C946F000C946F000C946F0050
S11300700C946F000C946F000C946F000C946F0040
S11300800C946F000C946F000C946F000C946F0030
S11300900C946F000C946F000C946F000C946F0020
S11300A00C946F000C946F000C946F000C946F0010
S11300B00C946F0011241FBECFEFD8E0DEBFCDBF7C
S11300C011E0A0E0B1E0E2E5F3E002C005900D929A
S11300D0A431B107D9F70E9454010C94A7010C94E0
S11300E0000087B18F6087B987B1806387B90895AD
S11300F098B1907F82958F70892B88B94498459ADE
S11301008FE99FE00197F1F700C0000045988FE95F
S11301109FE00197F1F700C00000089598B1907F27
S1130120282F22952F70922B98B94498459AEFE97D
S1130130FFE03197F1F700C000004598EFE3FFE1DD
S11301403197F1F700C0000098B1907F8F70892B30
S113015088B94498459A8FE99FE00197F1F700C068
S113016000004598EFE3FFE13197F1F700C000008C
S1130170089598B1907F282F22952F70922B98B9CB
S1130180449A459AEFE9FFE03197F1F700C0000087
S11301904598EFE9FFE03197F1F700C0000098B10E
S11301A0907F8F70892B88B9449A459A8FE99FE094
S11301B00197F1F700C000004598EFE3FFE13197A4
S11301C0F1F700C0000008950E94710080E30E94CE
S11301D078008FE090E40197F1F700C0000080E31D
S11301E00E9478008FE891E00197F1F700C00000C9
S11301F080E30E94780080E20E94780088E20E94F6
S11302008E0088E00E948E0081E00E948E0086E0CD
S11302100E948E008FE00E948E009FEF2BED85E000
S1130220915020408040E1F700C0000008950F93F2
S11302301F93CF93DF93009781F0662371F0EC0155
S11302406150062F10E00F5F1F4F080F191F89918F
S11302500E94B900C017D107D1F7DF91CF911F9148
S11302600F910895613009F4805C80680E948E00CB
S11302700895CF93DF93882341F0D82FC0E080E125
S11302800E948E00CF5FDC13FACFDF91CF910895E7
S113029081E00E94390161E080E091E00E94170151
S11302A081E00E94390108950E94E40060E182E047
S11302B091E00E9417012FEF87EA91E621508040D8
S11302C09040E1F700C0000081E00E948E0010E041
S11302D090E0F12CD0E000E0C1E0EFE3FCE93197DD
S11302E0F1F700C000001F992EC08C2F9111802FB0
S11302F0882349F1D031D1F46C2FF110602FD62F1F
S1130300FF2029F08C2F1111802F182F03C0802F6C
S11303100E943201812F8D2339F0602F80E10E94E9
S11303203201FD2ED0E002C0FD2ED0E0112319F0E1
S11303300E94480105C06C2F82E191E00E941701E0
S1130340DF5F9C2FCACF1F9BC8CF902FC6CFF894D6
S1050350FFCFD9
S113035220004C434420494E495449414C495A4592
S107036244002A0025
S9030000FC
