:1000000008230020D1280000CD280000CD280000C2
:1000100000000000000000000000000000000000E0
:10002000000000000000000000000000CD280000DB
:100030000000000000000000CD280000CD280000D6
:10004000CD280000CD280000CD280000CD280000DC
:10005000CD280000CD280000CD280000CD280000CC
:10006000CD280000CD0C0000DD0C0000ED0C0000E0
:10007000FD0C00000D0D00001D0D0000CD2800003E
:10008000CD280000CD280000CD280000CD2800009C
:10009000CD280000CD280000CD280000CD2800008C
:1000A000CD280000CD280000CD280000CD2800007C
:1000B0000000000010B5064C2378002B07D1054B3B
:1000C000002B02D0044800E000BF0123237010BDC4
:1000D00068000020000000009C4B0000084B10B599
:1000E000002B03D00749084800E000BF0748036819
:1000F000002B00D110BD064B002BFBD09847F9E731
:10010000000000006C0000209C4B00009C4B000095
:10011000000000000C4B1B68002B06D1EFF310838E
:10012000002B07D00022094B1A70074A13680133CD
:100130001360704772B6BFF35F8F0022044B1A70D2
:100140000132024B1A70F0E7840000208800002082
:100150000000002010B582B0174B1868002820D08E
:10016000164B1B68002B12D0144B1A68013A1A6008
:100170001B68002B09D1124B1B78002B05D00122E4
:10018000104B1A70BFF35F8F62B602B010BD0E4BFA
:1001900001930E4B00934C230D4A01210D4CA047B7
:1001A000E2E7064B1B68002BDED14C33084A0649B8
:1001B00009480A4CA047FEE78C000020840000207C
:1001C0008800002000000020A8420000D04200006B
:1001D0007042000011020000E84200001D370000DC
:1001E00010B582B00090019100280BD00648074B53
:1001F0009847041E02D0200002B010BD0198009B59
:100200009847F8E70024F6E7900000203738000010
:10021000F0B583B00C0008AD80CDC16819481A4E06
:10022000B0470195194E336898682A003900184B79
:100230009847306882689368013B9360002B15DB18
:100240001368591C11600D221A70104B18688268CF
:100250009368013B9360002B0FDB1368591C1160FE
:100260000A221A7021000B480B4B984791698B4268
:10027000E6DA0D21094B9847E7E70A21074B984733
:10028000F0E7C0460C4300001D37000004000020CA
:10029000F5330000900000204F380000C539000001
:1002A000F0B5DE4657464E464546E0B585B00700F8
:1002B00081683A483A4B98473B689846002B6AD089
:1002C0000026002399469846364B9B46344B9A4667
:1002D00003971BE0E1680300334A3448304CA047E1
:1002E00009E00300324AE16830482D4FB84728E062
:1002F00000222C4B1A60002D38DBEB175D1BED0F35
:10030000A8440136039B1A68B24233D9B300039A5A
:1003100052689C585B461C60E1682648D0472368B9
:10032000002B08D02448254B984721002068244BF7
:100330009847051ECED121006068214B9847051EC5
:10034000CFD1A368002BD3D01E481C4B9847210067
:10035000A0681B4B9847031ECAD0002DC8D1E16886
:100360000500194A11480E4CA047C1E701239C46DD
:10037000E144C6E71F00B9684B4600934346134863
:10038000074CA0474046484405B03CBC90469946BF
:10039000A246AB46F0BD1A009946ECE72C4300009C
:1003A0001D3700008C000020744300007C430000D7
:1003B000A04300004C4300006043000011380000DF
:1003C000E1010000A8430000C0430000C843000052
:1003D000F0B583B001AC012565700027A7702570CA
:1003E00021003E20064EB0478022D205054B9A617F
:1003F0002770657021000F20B04703B0F0BDC046E4
:10040000A50700008044004130B583B004002A4BAA
:10041000186800281AD0002C0ED0284AD36904216D
:100420000B43D361264B2022FF321A831B7D05200C
:10043000DB0714D403B030BD224B0193224B009351
:100440006B23224A0121224DA847E6E7002CE4D184
:100450006B231E4A1B491F481F4CA047FEE7237809
:100460001B02E232FF3213406178C901FF220A40C9
:100470001343A17849001E220A401343E2789204F4
:100480008021C9020A40134322791204C021890243
:100490000A4013430A4A536093685B035B0F0F499A
:1004A00003309840088093684B8063780B71108B01
:1004B000C005C00F0001BDE78C0000200004004013
:1004C0000040004150450000D04200002C45000093
:1004D00011020000E84200001D370000EC0000207F
:1004E00030B50400224A1088538843438B4206D219
:1004F0008022920118201F4BCB1893420ED81E4B1E
:100500005D688022D2022A435A602022FF321A8379
:100510001B7DDB0703D4184B5D60052030BD452CE7
:1005200022D8A300154AD3589F46134B1B8BDB05DB
:1005300003D5114B5D601020F0E7890849000E4B90
:10054000D96103E0890849000B4BD961A52000025D
:100550000443094B1C80190001220B7D1342FCD07F
:10056000054B5D600020D9E7034B5D601720D5E7A0
:10057000EC00002000C07FFF004000410844000064
:10058000F8B5254B1D885B886B431824834201D244
:100590002000F8BD6B1E1842FAD1013C9542F7D3FA
:1005A0001E4B1B7D123CDB07F2D51D4C1B4B1C80E8
:1005B0001D0001242B7D2342FCD02024FF34174B47
:1005C0001C83002A22D0012305009D430023571ECF
:1005D00009E0CE187678360234432C8002339BB281
:1005E00002359A4204D9CC5CBB42F2DBA4B2F4E7F8
:1005F000094B1B790024002BCAD13F2AC8D80022FE
:1006000001000420074B98470400C1E7024B1B7907
:100610000024002BF3D0BBE7EC0000200040004199
:1006200044A5FFFFE104000070B5184B1D885B88EE
:100630006B431824834201D2200070BD6B1E184208
:10064000FAD1013C9542F7D3114B1B7D123CDB07DD
:10065000F2D52024FF340E4B1C83002A14D0012332
:1006600098430023561E04E002339BB202309A42A4
:1006700008D90488A4B2CC54B342F5DACD18240AC0
:100680006C70F1E70024D7E70024D5E7EC000020E8
:1006900000400041134B1A885B8853431821834262
:1006A00001D2080070479200013A1042F9D10E4B76
:1006B0001B7D1339DB07F4D50B4B2022FF321A8345
:1006C00080084000D861094A1A80190001220B7D78
:1006D0001342FCD0044B198B1C200140481E814161
:1006E0008900DEE7EC0000200040004102A5FFFF8A
:1006F00030B583B00400214B186800282ED0002CA0
:1007000022D01F4B2022FF321A8399684A03520FCE
:1007100008239340237061801A4B1B885B065B0F94
:10072000072B24D00622D21A042393406360154B72
:100730001B8807221340072B1CD00722D21A042340
:100740009340A36003B030BD0F4B01930F4B009358
:100750000F4B104A0121104DA847D2E7002CD0D1F1
:100760000B4B0C4A08490D480D4CA047FEE70023EF
:100770006360DCE70023A360E4E7C0468C00002050
:10078000004000410040800020450000D0420000B1
:10079000B90200002C45000011020000E8420000F0
:1007A0001D37000070B584B005000C00134B1868AD
:1007B000002819D000290DD003A980230B702378BD
:1007C0004B7063788B70A378CB7028000C4B9847E4
:1007D00004B070BD0B4B01930B4B009341230B4AAC
:1007E00001210B4EB047E7E70029E5D14123074A35
:1007F00004490848084CA047FEE7C0468C0000208A
:10080000B520000050450000D042000058450000CF
:1008100011020000E84200001D370000F0B5DE467E
:1008200057464E464546E0B587B0804604911600CF
:100830001F000022002300218B463F2401202100BD
:10084000009601975C4603944446059413E02024E7
:10085000641A0500E540A84614E0009C019D121BA7
:10086000AB415C464D462C43A346039C45462C4376
:100870000394013925D3202464420C19E7D40500E0
:10088000A540A84604008C40A14692185B41140084
:100890001D00059E4F463E40B446049E47463E40DE
:1008A000B246664657463E4303D006002643320012
:1008B0002B00009C019D9D42DBD8CED19442D8D81C
:1008C000CBE7039B5846190007B03CBC90469946BD
:1008D000A246AB46F0BD10B5490840230024814232
:1008E00002D2180010BD1C00091A631C9BB288427A
:1008F000F9D94023FF2CF4D814800023F1E700003D
:10090000F0B583B00F00160008AA117804004C431C
:100910004022BC4202D9100003B0F0BD002B14D11C
:10092000020008000021194CA04701003A000023F2
:100930000020174CA04700220123121A8B41120CF1
:100940001B041A4332800022E5E70022012BF9D173
:100950000A00002300210D4CA04702000B0000926A
:100960000193380000210A4CA047050080239B0119
:1009700040229842CFD8790FF800009A019BA047F7
:10098000EA00821AD2B252032A43DBE7B1300000F8
:100990001D08000010B582B004000E4B1B78002B20
:1009A00007D0002905D10B4B5B78834210D01D2066
:1009B0000CE001A90C701320074B98471320074B3C
:1009C0009847044B5C7001221A70002002B010BDE1
:1009D0000020FBE7F4000020D11E0000E51D000010
:1009E00010B582B0464B984245D013D9454B98423A
:1009F00053D0454B98425ED0444B984222D10129B6
:100A000047D0002900D174E0022944D0032919D12C
:100A10003F4826E03F4B98420CD03F4B984211D1C3
:100A2000012924D0002960D0022922D0032909D12C
:100A30003A4816E0012916D0002952D0022952D096
:100A4000032912D0364B1868002842D0354B019349
:100A5000354B009383235B00344A0121344CA0477B
:100A6000002002B010BD3348FBE73348F9E73348B4
:100A7000F7E73348F5E7012907D0002937D00229E5
:100A800005D00329DED12F48EBE72F48E9E72F48AF
:100A9000E7E72F48E5E72F48E3E7012907D00029DA
:100AA00029D0022905D00329CCD12B48D9E72B48DE
:100AB000D7E72B48D5E7012907D000291DD0022907
:100AC00005D00329BED12748CBE72748C9E72748E7
:100AD000C7E783235B00154A12492548254CA047E8
:100AE000FEE72548BDE72548BBE70320B9E72448D2
:100AF000B7E72448B5E72448B3E72448B1E7C04640
:100B00000010004200180042001C00420014004285
:100B10000300130000080042000C004203001F0005
:100B20008C000020BC450000D0420000944500002D
:100B3000110200000300050003000700030001008C
:100B400003001E0003000B000300090003000A005D
:100B5000030011000300120003000F0003000D004A
:100B600003000E0003001900030017000300180023
:100B7000E84200001D3700000300040003000600E7
:100B8000030008000300100003000C00030016001F
:100B900030B589B002A9174B0A0032CB32C232CB32
:100BA00032C20300029A824219D0012002A98200B7
:100BB00052589A4214D001300628F8D10E4B1868CA
:100BC00000280FD00D4B01930D4B009390235B0039
:100BD0000C4A01210C4CA047002009B030BD002078
:100BE000C0B2FAE790235B00064A04490748084C64
:100BF000A047FEE77C4500008C000020BC450000BB
:100C0000D04200009445000011020000E8420000BC
:100C10001D37000010B582B00A4B186800280AD0B2
:100C2000094B0193094B00934123094A0121094CC7
:100C3000A04702B010BD4123054A03490648074CAE
:100C4000A047FEE78C000020BC450000D042000019
:100C5000C445000011020000E84200001D370000FA
:100C6000F0B50A4B1B78002B0CD1094F094E0A4DE9
:100C70000024DE515A1914600433182BF9D10122D3
:100C8000024B1A708000024BC150F0BDF6000020EC
:100C9000F8000020150C00000002002000B583B011
:100CA00009236A4613700133537001339370013383
:100CB000D3700133137101335371034B98476B4663
:100CC000185603B000BDC046910B000010B5024B92
:100CD0001B680020984710BDF800002010B5024B9B
:100CE0005B680120984710BDF800002010B5024B4A
:100CF0009B680220984710BDF800002010B5024BF9
:100D0000DB680320984710BDF800002010B5024BA7
:100D10001B690420984710BDF800002010B5024B55
:100D20005B690520984710BDF8000020F0B5DE464D
:100D300057464E464546E0B591B004000E001500FA
:100D4000BF4B1868002826D0002C15D0002E38D0B4
:100D5000BB4B1868002D4BD026603000B94B98472C
:100D600032680523D2074ED5180011B03CBC90461E
:100D70009946A246AB46F0BDB34B0193B34B0093EB
:100D80004623FF33B24A0121B24FB847AC4B186833
:100D90000028DBD101E0002C0BD0002E20D0002D4C
:100DA000DAD14823FF33AA4AAB49AC48AC4CA04740
:100DB000FEE74623FF33A64AA349A848A84CA0470C
:100DC000FEE7A84B0193A14B0093A3235B00A04A2D
:100DD0000121A04FB8479A4B18680028BAD1DEE726
:100DE000A3235B009A4A9F499C489D4CA047FEE77D
:100DF000994B0193954B00934823FF33944A01216B
:100E0000944FB847A8E7326817339207ACD4964A94
:100E1000116A871C1B3BBB400B4313620FA92D2794
:100E2000EB5D0B701430C3B2029318008F4B9847E0
:100E300002988F4B9847E85D00218E4B9847EB7ADC
:100E400063712423EB5CA3712523EB5CE371EB7EE0
:100E500023722B7F63727A4B1868002831D0002CE4
:100E600021D02368002B3FD023689B461800754B88
:100E70009847143000220E2306A98C4663441A803A
:100E80002B8A98468023DB0198457CD036D9C02335
:100E9000DB01984573D080231B02984532D103278C
:100EA0000023029335E0684B0193684B00933D2388
:100EB000674A0121674FB847614B18680028D0D1B5
:100EC00001E0002C09D02368002BCDD13E33604ACD
:100ED00069496248624CA047FEE73D235C4A5A4993
:100EE0005E485F4CA047FEE7634B0193574B00936E
:100EF0003E23574A0121574FB847B5E780239B014E
:100F0000984503D010270023029302E01027012305
:100F100002932B680393EB6804936B6905932B7E14
:100F200006932623EB5C07936B689946002B42D00F
:100F300080235B05994513D12723EB5C002B0FD150
:100F40002F6AC0B24D4B984701000E2206AB9C465B
:100F5000624438004A4B98470300002B00D003E757
:100F60006B7E002B02D0AB7E5A469373344B1868CD
:100F700000284CD0002C3FD0314F029591E008273B
:100F800001230293C5E72B680393EB6804936B6915
:100F900005932B7E06932623EB5C07936B6899469B
:100FA000002B05D080235B059945C5D00023D4E7ED
:100FB0000827002302932723EB5C002B0BD000971C
:100FC000029B0E2206A98C466244A96A286A2D4F0C
:100FD000B8470300C1E72B6A9A46C0B2274B98472F
:100FE00001000097029B0E2206A8844662445046E8
:100FF000244FB8470300B0E7134B0193134B009302
:101000008123DB00204A0121124FB847B4E7002CAE
:10101000B2D18123DB001C4A0B491048104CA04779
:10102000FEE7094B0193094B0093184B164A012127
:10103000084DA847024B1868002837D12AE0C0465F
:101040008C000020910B000028460000D0420000D8
:10105000F84500001102000050450000E842000081
:101060001D3700003846000000040040D11E00007B
:10107000E51D00009509000030460000491F0000F2
:10108000D7080000010900003C460000F3030000FF
:10109000002C19D02368002B1DD02368DB69002B9E
:1010A00021D038680028F3D0002CBAD02368002B58
:1010B000F3D1B94B0193B94B0093FD239B00B84A80
:1010C0000121B84DA847E8E7B74BB54AB749B8483A
:1010D000B84CA047FEE7FD239B00B14AAE49B44897
:1010E000B44CA047FEE7029D0E3306AA9446634423
:1010F0001B885A469381039F049B1F43059B1F43F4
:101100004B461F4343461F43069B1B021F43079B3F
:101110005B071F43BA462723EB5C002B03D1043344
:101120003A001A4392466B7E9B022A7F5202134377
:101130006A7F120213432422AA5C5204134325221D
:10114000AA5C12041343AA7AE97A0A431A43904626
:101150002B89FF2B1ED080225204514611438A4610
:1011600042461A4390462C23EB5C002B03D1924B52
:101170009B789B0703D5802352461A4392468F4B98
:10118000186800281AD0002C0DD08C4B9946574671
:10119000029534E0EB7E002BE5D08023DB04524641
:1011A0001A439246DFE7814B01937C4B00938123E6
:1011B000DB007B4A01217B4FB847E6E7002CE4D1F6
:1011C0008123DB00764A794979487A4CA047FEE7CB
:1011D000764B0193714B0093734B714A0121714D12
:1011E000A847764B186800280FD101E0002C1AD0D0
:1011F0002368002B1ED02368DB69002B22D04B46CE
:1012000018680028F2D0002CE2D02368002BF2D11D
:10121000614B0193614B0093FD239B00604A0121C8
:10122000604DA847E7E7604B5D4A60496048614C04
:10123000A047FEE7FD239B00594A57495C485D4C97
:10124000A047FEE7BA46029D5B4642465A605B4BAA
:101250001868002811D0002C04D0584B98465746E7
:1012600002952BE0514B01934C4B00938123DB0003
:101270004B4A01214B4FB847EFE7002CEDD18123BA
:10128000DB00474A49494A484A4CA047FEE7474BDA
:101290000193424B0093444B414A0121414DA847E1
:1012A000464B1868002802D00EE0002C1AD02368A4
:1012B000002B1ED02368DB69002B22D04346186820
:1012C0000028F2D0002CE2D02368002BF2D1324B60
:1012D0000193324B0093FD239B00314A0121314D94
:1012E000A847E7E7304B2E4A30493148314CA047F8
:1012F000FEE7FD239B002A4A27492D482D4CA04795
:10130000FEE7029D5B461F600EAB80221A70002232
:101310005A70DA709A702B6B0A936B6B0B93AB6BF2
:101320000C93EB6B02930D9300250AAF06E030009F
:10133000234B984707E00135042D0DD0E9B2AB00EF
:10134000D8590028F3D0431CF5D00EA90870000C22
:10135000C0B21C4B9847EEE70023E3602361636152
:10136000A361E3612362A36263620022E385A38534
:101370003033E2540133E2540133E2540133E25496
:101380002068114B984705001049114B9847AD0054
:10139000104BEC500023E7E430460000D042000040
:1013A0003C46000011020000F30300002846000044
:1013B000E84200001D370000002000418C000020A2
:1013C000E1090000B5200000910B00002517000086
:1013D000610C000000020020F0B5CE46474680B503
:1013E00083B004000D00534B186800281CD0002C5B
:1013F0000BD02368002B2CD0E3791C20002B33D199
:1014000003B00CBC90469946F0BD4B4B01934B4B3F
:101410000093E423FF334A4A01214A4EB047454B2B
:1014200018680028E5D101E0002C0AD02368002BC1
:10143000E2D1E533FF33424A43494448444CA04794
:10144000FEE7E423FF333E4A3B494048404CA04777
:10145000FEE73D4B0193394B0093F2235B00384A82
:101460000121384EB047C7E7E38D9BB21738002BF8
:10147000C6D126682F4B186800280FD0002C02D048
:101480002C4B99462BE02C4B01932C4B0093812342
:10149000DB00304A01212B4FB847F1E7002CEFD198
:1014A0008123DB002B4A24492848294CA047FEE72A
:1014B000214B0193214B0093274B264A0121214FB9
:1014C000B8471C4B186800280FD101E0002C1AD037
:1014D0002368002B1ED02368DB69002B22D04B46EB
:1014E00018680028F2D0002CE2D02368002BF2D13B
:1014F000154B0193114B0093FD239B00154A0121CD
:10150000104FB847E7E7144B124A0B490F48104CED
:10151000A047FEE7FD239B000E4A0B490B480C4CED
:10152000A047FEE735850222337E1342FCD000201F
:1015300066E7C0468C00002028460000D04200002C
:10154000F84500001102000030460000E8420000AB
:101550001D3700003C460000F3030000F0B5CE4606
:10156000474680B583B004000D00634B186800281F
:101570001CD0002C0BD02368002B2BD0A3791C206F
:10158000002B31D103B00CBC90469946F0BD5B4BAB
:1015900001935B4B009389239B005A4A01215A4EC9
:1015A000B047554B18680028E5D101E0002C09D060
:1015B0002368002BE2D1554B524A55495548564CA9
:1015C000A047FEE789239B004E4A4C495148524CA4
:1015D000A047FEE74E4B0193494B00934B4B494AC2
:1015E0000121494EB047C9E7A38D9BB21738002BA4
:1015F000C8D12668337E5B07C4D53F4B18680028E6
:101600000FD0002C02D03C4B99462BE03B4B019372
:101610003B4B00938123DB00404A01213A4FB847FE
:10162000F1E7002CEFD18123DB003C4A33493948F4
:10163000394CA047FEE7314B0193314B0093384BB7
:10164000364A0121304FB8472B4B186800280FD17C
:1016500001E0002C1AD02368002B1ED02368DB6920
:10166000002B22D04B4618680028F2D0002CE2D084
:101670002368002BF2D1264B0193214B0093FD23CD
:101680009B00264A0121204FB847E7E7244B234A15
:101690001A492048204CA047FEE7FD239B001F4A23
:1016A0001B491C481C4CA047FEE7738BDBB29A0613
:1016B0001DD09A0703D5022373831A2062E75A07C5
:1016C00003D5042373831E205CE7DA0703D50123C7
:1016D0007383132056E7DA0603D510237383422061
:1016E00050E79B0603D52023738341204AE7338DBF
:1016F0002B80002046E7C0468C00002028460000D2
:10170000D0420000F8450000110200002502000050
:1017100030460000E84200001D3700003C46000053
:10172000F3030000F0B583B080008D4BC4582568EA
:101730008C4B186800280ED0002C01D0894E2BE06D
:10174000894B0193894B00938123DB00884A012157
:10175000884EB047F2E7002CF0D18123DB00844AA9
:1017600081498548854CA047FEE77F4B01937F4B1D
:101770000093834B7E4A01217E4FB847794B18680E
:1017800000280ED101E0002C19D02368002B1DD0B9
:101790002368DB69002B21D030680028F3D0002CAF
:1017A000E3D02368002BF3D1764B01936F4B00936A
:1017B000FD239B006E4A01216E4FB847E8E7704B4E
:1017C0006B4A69496C486D4CA047FEE7FD239B00BE
:1017D000674A6C496848694CA047FEE72B7EAF7D9D
:1017E0001F403023E35C3122A65C1E40FB0719D565
:1017F000E38D9BB2002B59D0A26A1178C9B28BB28B
:10180000501CA062607901284AD0DB05DB0D2B85D6
:10181000E38D013B9BB2E385002B03D101332B7594
:101820000133AB75BB0706D502232B75002231337C
:10183000E254F3073DD47B0717D5A38D9BB2002B51
:1018400000D182E06A8BD2B23F231340110701D549
:1018500037231340002B55D09A072ED51A22322356
:10186000E254303B6B83730748D4FB0605D5102345
:101870002B752B76F30600D56AE0BB0604D5202332
:101880002B752B76330767D43B0707D508232B75B9
:101890002B76B30602D5236A2000984703B0F0BD2B
:1018A00053781B020B430232A262AEE701232B7571
:1018B000B8E72000E3689847BDE75A0705D51E2220
:1018C0003223E2542E3B6B83CDE7DA0705D5132292
:1018D0003223E254313B6B83C5E7DA0605D5422259
:1018E0003223E254223B6B83BDE720221A42BAD056
:1018F00021323223E254123B6B83B4E72000636948
:101900009847B2E72B8DDB05DB0DDAB2616A0A700E
:10191000626A511C61626179012910D0A38D013B7B
:101920009BB2A385002BA0D104332B7500222E334C
:10193000E254B30799D520002369984795E71B0A1D
:101940005370636A01336362E8E704232B758CE705
:101950002000E369984790E72000A369984793E740
:10196000000200208C00002028460000D042000029
:101970003C46000011020000E84200001D37000054
:10198000F30300003046000010B5082803D880009B
:101990001B4B1B589F46002030E01A4B18692DE066
:1019A000194B1B6A9B059B0F1848D84026E0154B26
:1019B000586923E0134B1B6800209B071ED5124972
:1019C0001022CB681A42FCD00E4B1B685B0701D477
:1019D0000F4813E000200F4B98470A4B9B681B04ED
:1019E0001B0C58430AE05023074AD35C00205B07D6
:1019F00004D5044BD86801E08020000210BDC04629
:101A0000AC460000100100200008004000127A00DF
:101A1000006CDC02491F000070B50C490B6A0478A9
:101A2000857840780122104080014026B34303436B
:101A30002A40D20180208343134303222240120212
:101A40000348034013430B6270BDC04600080040CA
:101A5000FFFCFFFF10B582B0082848D88000304B4B
:101A60001B589F462F4A136A02210B431362002022
:101A700002B010BD2B4A936902210B4393610020F1
:101A8000F6E7284A138A02210B4313820020EFE76E
:101A9000244A938A02210B4393820020E8E72249DB
:101AA0000B68022213430B601E4B9A8419000E32FE
:101AB000CB681A42FCD01C4A91681A4BD962526812
:101AC0009A6200229A8419001032CB681A42FCD024
:101AD000154B1B689BB2134A93840020C8E7114939
:101AE00044228B5C022003438B540020C0E70F4B41
:101AF000186800280AD00E4B01930E4B00930E4B32
:101B00000E4A01210E4CA0471720B1E70A4B0B4AA1
:101B100007490C480C4CA047FEE70020A8E7C04648
:101B2000D046000000080040100100208C0000207A
:101B3000BC450000D042000043020000F446000013
:101B400011020000E84200001D37000030B585B0EA
:101B5000C222D2001A4B9A601A4A53681E218B4344
:101B6000536001236A4613700024174DE0B26946A2
:101B7000A8470134252CF9D103A80024447001257D
:101B800085700470114B98470620114B9847114BF4
:101B90009847114B1C725C729C72DC7201956B460B
:101BA0005C7006236A4613701472547269460020F2
:101BB0000A4B984700200A4B984705B030BDC046F5
:101BC0000008004000400041D11E0000191A00002A
:101BD000551A0000E51B000000040040091C00002D
:101BE000151D0000064A936908210B4393610122E9
:101BF000044B1A7019000B781342FCD17047C04691
:101C000000040040000C0040F0B583B007000E0057
:101C1000354B1868002808D1002911D17523334AA3
:101C200033493448344CA047FEE7002908D1304BF3
:101C30000193324B009375232C4A0121304CA0476D
:101C40003D00347824023C437378002B02D080237B
:101C5000DB021C43737A002B02D080231B031C433E
:101C60007368012B10D95A1E134235D1022B31D97A
:101C700002210022013249008B42FBD812023A4372
:101C8000150080235B031C43337A002B02D0802392
:101C90009B031C431B4A53785BB2002BFBDB1A4BA4
:101CA00098471A4B1F70174A53785BB2002BFBDB27
:101CB000144B9D601A0053785BB2002BFBDB114A7A
:101CC0005368802149020B401C435460104B9847D5
:101CD00003B0F0BD0022D1E71B023B431D0080236F
:101CE0009B021C43D0E7C0468C00002058470000F0
:101CF00050450000E84200001D370000D0420000BF
:101D000011020000000C004015010000080C00400A
:101D10005501000010B504000B4A53785BB2002B4C
:101D2000FBDB0A4B98470A4B1C70074A53785BB29F
:101D3000002BFBDB044A516880235B020B4353609A
:101D4000044B984710BDC046000C00401501000030
:101D5000040C00405501000070B504001A4A537885
:101D60005BB2002BFBDB194B9847194B1C70164AD2
:101D700053785BB2002BFBDB134E7068C004C00EBF
:101D8000144B98470500124B1C707668F602F60F4C
:101D9000114B1C700C4A53785BB2002BFBDB0A4BD7
:101DA0009C682402240C0D4B9847002E07D1012C6F
:101DB00007D9210028000A4B9847050001E00134AB
:101DC000E540280070BDC046000C00401501000031
:101DD000040C004089190000080C00405501000067
:101DE000992F000010B50400064B9847064B1C7055
:101DF000064A53888021C9010B435380044B9847FE
:101E000010BDC04615010000020C0040000C00404F
:101E10005501000010B582B00400204B9847204BBC
:101E20001C70204B186800282BD01F4B5B88DB0BE5
:101E30001CD11D4A53881B05180F53881B490B40A2
:101E4000538053881A490B40538011008022D201DD
:101E50004B881342FCD114494A88030213480240BC
:101E600013434B80134B984702B010BD124B0193A4
:101E7000124B00939823FF33114A0121114CA047C4
:101E8000D7E7094B5B88DB0BD3D09823FF330C4A91
:101E900009490D480D4CA047FEE7C046150100005A
:101EA000020C00408C000020000C0040FFF0FFFFFF
:101EB000FFBFFFFF550100003C470000D04200007B
:101EC0005847000011020000E84200001D370000E2
:101ED00070B582B005000C00124B1868002817D0AE
:101EE00000290AD0247824022C4328000E4B98475E
:101EF000A4B20E4B5C8002B070BD0D4B01930D4B34
:101F000000936223FF330C4A01210C4EB047E9E7EE
:101F10000029E7D16223FF33074A05490848094CE5
:101F2000A047FEE78C000020151E0000000C0040BA
:101F300050450000D0420000584700001102000048
:101F4000E84200001D37000010B50400064B98471A
:101F5000064B1C70064B5C882405240F054B9847E4
:101F60002000054B984710BD15010000020C0040F1
:101F7000000C004055010000591D0000F0B583B071
:101F800005000E001400424B1868002841D0002DB7
:101F900031D0002C4FD0E378002B5FD12378802BF9
:101FA00053D01B06802252021343627802218A43D7
:101FB00006D1A278002A4AD18022920213436E6091
:101FC0006278013A012A46D93104090CA022D205CF
:101FD0000A431A43AA62310CD02212060A431A435A
:101FE000AA62E278002A4CD15B0346D5A378012B84
:101FF00049D06E6141E0274B0193274B0093412369
:10200000264A0121264FB847214B18680028C0D125
:1020100001E0002D08D0002CBDD142231F4A2149E8
:102020002148224CA047FEE741231C4A19491E487B
:102030001E4CA047FEE71B4B0193174B0093422316
:10204000164A0121164FB847A5E70023ADE7C02285
:10205000D2021343B3E7164A1340B5E76E60320469
:10206000120CA023DB051343AB62320CD0231B06FA
:102070001343AB62E378002B03D16378013B012B60
:1020800003D903B0F0BDAE61F7E7AE60F9E7C04633
:102090008C000020CC470000D04200009C4700008C
:1020A0001102000050450000E84200001D3700000A
:1020B000FFFFFBFF70B582B005000C00C3090FD015
:1020C000124B1868002819D0114B0193114B009343
:1020D0006223FF33104A0121104EB047002004E074
:1020E0004009C0010E4B9C4660441F232B40012138
:1020F000994022000B4B984702B070BD6223FF331A
:10210000054A03490848094CA047FEE78C00002017
:10211000BC450000D0420000D4470000110200007E
:10212000004400417D1F0000E84200001D37000010
:102130007047000010B5054B9847054B9847054B75
:102140009847054B9847054B984710BD4D1B00001D
:10215000D1030000312100003121000031210000B5
:1021600070B50402034E044D73681819A84705287A
:10217000FAD070BD2801002095060000F0B5DE46BB
:1021800057464E464546E0B583B04D4B1B89002B64
:1021900000D18FE000254A4B9A461F0027E00198A6
:1021A000484B98470434A4B2454B1B89A34218D925
:1021B000013B9C42F6D07A68A301D35CFF2BF1D09F
:1021C0009E42EFD14B46D35C4146515C9942E6D0EA
:1021D0005946525C9A42E2D0A008C0B2394B9847A7
:1021E000E0E70435ADB2364B1B899D4217D2AB01F7
:1021F000984653465B6842469E5CFF2EF1D02C1DEC
:10220000A4B22F4B1B899C4209D2802242449146A2
:10221000402242449346AA08D2B20192C8E7002B5A
:1022200043D0274A977A516800225E1E244D04E06D
:102230000132403190B298420AD29642F8D00878E2
:1022400084B2FF2CF4D0BC42F2D22818C272EFE75D
:102250003F2087221A4988549D081FD04C680421CA
:102260000027013B13E0013292B2914207D09A421B
:10227000F9D09001005DFF28F5D00026F3E7002E8D
:1022800009D10137BFB2043189B2BD4206D00A1F5D
:1022900092B20126EBE78723094AD75403B03CBC2E
:1022A00090469946A246AB46F0BD3F218723044A9B
:1022B000D154F3E73F218723014AD154EEE7C046CA
:1022C0002801002061210000F8B50D008401054FB0
:1022D000054E7B68181940222900B0470528F8D020
:1022E000F8BDC0462801002029060000F8B50D0001
:1022F0008401054F054E7B68181940222900B0471C
:102300000528F8D0F8BDC04628010020810500004E
:1023100070B58401044E054D73681919002204201C
:10232000A8470528F8D070BD28010020E10400006E
:10233000064B1A781F23002A01D1180070471D335D
:102340000370024B9B7A43800023F6E728010020AC
:1023500010B598B016AB0021197001225A702E4AA0
:102360005268D206120F9A70D97019712B4C16A8A8
:10237000A0470528FBD013A8294B9847149B16208B
:102380000B2B01D818B010BD264C23811A00083A37
:102390005208A2721B049B0A5B428022D20294461E
:1023A000634463600022C823E2541F4B984787238D
:1023B000E35C1A203F2BE5D06A461C4B13CB13C2BB
:1023C000184B1889013880B21100194B9847039BAC
:1023D000009A934219D1049B019A934217D1059B0D
:1023E000029A934215D103ABDB7B1020012BC9D19C
:1023F00003AB1B7B012BC5D103AB5B7B002BC1D196
:102400000122084B1A700020BCE71A20BAE71A20F4
:10241000B8E71A20B6E7C0460040004109040000B2
:10242000F1060000280100207D2100000448000082
:10243000C922000070B594B02F4C00228723E254CB
:1024400000202E4B98472589042D25D900260424E9
:1024500019E0A008C0B2294B984704AD4022FF21E3
:102460002800274B98472E7029002000254B9847BD
:102470002000254B98470136B6B20134A4B21E4B5A
:102480001D89A54208D9013DAC42F6D00323234063
:10249000DFD0012BF1D8E0E701AE1C4B320013CBAB
:1024A00013C204AC4022FF212000154B9847019B2A
:1024B000049373686360B368A3600123E3732373B9
:1024C00000236373A373013DEB17032018404519E4
:1024D000AD10E8B2094B9847074D2889013880B202
:1024E0002100084B98472889013880B2064B98474D
:1024F000074B984714B070BD2801002061210000EF
:102500005F310000ED2200001123000004480000AC
:102510007D21000010B590B00C00154B1A781F23D8
:10252000002A02D1180010B010BD114B9A7A18235E
:102530008242F7D9B0330E4AD35C002B03D08823F4
:10254000D35C83420CD00A4B1818C07A6946094BF9
:1025500098473C2201A92000074B98470023E1E758
:102560003C2203498C312000034B98470023D9E7D4
:1025700028010020C92200004D310000F0B5DE46E0
:1025800057464E464546E0B593B0050089461700CC
:102590003C21234B9847C3B2009303A91800214B59
:1025A00098470190002832D13C2128001E4B9847C3
:1025B00089B22C00002905D103AB1B784A46137061
:1025C0006C1CA4B22600AB46B846A84444451EDAAB
:1025D000154B9A4603AF09E05B46F61A7B5D4A4607
:1025E00093550134A4B22600444510DA3C21200062
:1025F000D0478DB2002DEFD1009B0133DBB20093A9
:1026000039001800074B98470028E5D00190019841
:1026100013B03CBC90469946A246AB46F0BDC046BE
:10262000992F000015250000A530000010B5C82323
:10263000084AD35C002B01D1002010BD1400882370
:10264000D35CD318D87A044B98470022C823E254AD
:10265000F2E7C0462801002011230000F0B5DE4655
:1026600057464E464546E0B587B0040000915A4BA8
:102670001B781F20002B06D107B03CBC9046994622
:10268000A246AB46F0BD544B9B7A0738A342F3D920
:10269000C823514AD35C002B05D08823D35CA342C6
:1026A00001D04E4B98474C4B1B19DE7A0323310067
:1026B0009943494B5868B3011B5CFF2B47D0751CED
:1026C000EDB20431C9B2A94257D06B1CDBB2AA01EA
:1026D000125CFF2A3CD01D00F5E705AAD2185670FF
:1026E00069E005AFFF187D7063E0707802993C4B9C
:1026F0009847394C21008831A8B23A4B98474B464D
:102700001B78E318DD720122C823E2540137023638
:10271000022F13D087235A46D55CAD00ED19D04760
:10272000B146337801998B42DFD188232A4AD154AC
:102730003C22009903982C4B9847DAE744464046E0
:102740002A4B98478723244AD454002094E7350025
:10275000214E8823F45430008C303C220099224BC7
:10276000984731008831A8B21E4B98473419E5725A
:102770000122C823F25400207EE7B30898461B02CA
:10278000154A5268D31805AA1978117003218E438F
:1027900056703D31595C9170711CD1708022985CEB
:1027A0004032995C0023B51C033605AAD25C9042E6
:1027B00097D08A4291D00233042BF6D105AE002780
:1027C000054B9B46054B9A465B4688330293043380
:1027D000039301949EE7C046280100202D260000A7
:1027E000C9220000ED2200004D31000061210000EF
:1027F000F0B5DE4657464E464546E0B591B0050079
:10280000894690463C212D4B9847C7B23C21280071
:102810002B4B984789B2002935D143463B2B3FD9F2
:102820004B461A7801AB1A706C1CA4B22600AB465A
:10283000A844A04522DD224B9A460AE05B46F61AE0
:102840004B469A5D01AB5A550134A4B2260044456B
:1028500014DA3C212000D0478DB2002DEED101A921
:102860003800184B9847002813D10137FFB201A94F
:102870003800154B98470028E0D00AE001A938003D
:10288000104B984705E001A938000F4B98470028E6
:102890000DD011B03CBC90469946A246AB46F0BD67
:1028A00001A93800084B98470028B9D0F1E72E005D
:1028B000AB46A844A845ECDD2C00BCE7992F0000EE
:1028C000A53000005D26000015250000FEE7000091
:1028D000F8B52A4A2A4B9A4211D01A00294B9A423B
:1028E0000DD2294A03339B1A9B0801339B00002217
:1028F000234822498C58845004329A42FAD1234A00
:10290000234B9A420AD2D34321495B1803218B43BC
:1029100004339B18002102C29342FCD11D4AFF21BF
:102920001D4B8B439360FD3990235B001B4AD150B4
:102930001B4AD3780325AB4302242343D370D378B7
:102940000C27BB4308263343D370164B987B3022A9
:102950009043202210439873997BB9433143997374
:102960009A7BAA4322439A730F4A536880210B43F0
:1029700053600E4B98470E4B9847FEE79C4B000068
:1029800000000020680000200400002068000020F3
:102990000403002000ED00E0000000000070004192
:1029A0000050004100480041004000410531000056
:1029B000D52D0000F0B5C64600B50C0090460028A5
:1029C0000FD1002A11DD8F18094E0A4D3068210001
:1029D0002B6898470134BC42F8D1404604BC90466D
:1029E000F0BD01235B429846F7E78046F5E7C04615
:1029F0002002002018020020F0B5C64600B50E00E7
:102A000015000138022810D8002A11D000240C4BE0
:102A100098460C4F43461868315D3B68984700283C
:102A200008DB0134A542F5D106E00124644203E04D
:102A3000140001E001246442200004BC9046F0BD73
:102A4000200200201C0200200300064A1268002A0F
:102A500004D0044A1068C318136070470249014A41
:102A60001160F6E7F4010020082300200120404215
:102A7000704780239B014B60002070470120704706
:102A80000020704730B501220023074D074C00207D
:102A9000EA54191908700133013292B2132BF7D19D
:102AA0001322034B1A8030BD58020020AC020020D4
:102AB000A802002030B501220023074D074C00205A
:102AC000EA54191908700133013292B23C2BF7D144
:102AD0003C22034B1A8030BD6C020020C002002053
:102AE000A8020020F0B587B004002C4B1B78002B07
:102AF0001CD02B4901202B4B984717236B4418708F
:102B00001B78002B1BD1284B984728490120284BC4
:102B1000984717236B4418701B78002B19D100229B
:102B2000244B1A8000231E4E204D23E0224B00939D
:102B30009C235B00214A0121214DA847D9E7214B65
:102B400000933E23FF331D4A012120001C4DA8475E
:102B5000D9E71D4B00934623FF33184A012120007B
:102B6000174DA847DBE7134A138801339BB2138044
:102B70003B2B10D8F25CE95C8A42F4D003910292BC
:102B80000193124B0093A6235B000C4A0121200005
:102B90000B4FB847E7E707B0F0BDC046AA020020D8
:102BA0006C0200205D2600002D260000C0020020DF
:102BB00015250000A80200204C4A0000384A0000F9
:102BC00011020000784A0000944A0000AC4A00005C
:102BD000F0B587B004002C4B1B78002B1ED01322BD
:102BE0002A497B202A4B984717236B4418701B787F
:102BF000002B1BD1274B9847132227497B20274BBB
:102C0000984717236B4418701B78002B18D10022AB
:102C1000234B1A8000231D4E1F4D22E0214B0093B1
:102C2000FD23214A0121214DA847D8E7204B0093DD
:102C30000423FF331C4A012120001C4DA847D9E77B
:102C40001C4B009386235B00174A01212000174D7F
:102C5000A847DCE7124A138801339BB21380122B7A
:102C600010D8F25CE95C8A42F4D00391029201939D
:102C7000114B00931423FF330B4A012120000B4F0B
:102C8000B847E7E707B0F0BDAA02002058020020CD
:102C9000F12700002D260000AC0200207D25000059
:102CA000A80200204C4A0000384A0000110200002F
:102CB000FC480000184900003449000070B584B099
:102CC00005000122274B1A70274B9847040016284D
:102CD00026D0244B1B78002B3AD0002C26D1234839
:102CE000234B984700280AD000221E4B1A70214B14
:102CF0000093D523204A01212800204CA0471B4BDC
:102D00001B783C2B0AD002933C2301931C4B00936D
:102D1000D923194A01212800184CA04704B070BDDE
:102D2000104B00221A701B78002B11D0154B9847BE
:102D30000D4B98470028D2D000220A4B1A70124B34
:102D40000093CC230C4A012128000C4CA047C6E775
:102D50000E4B0093C023084A01212800074EB047BC
:102D6000BBE7C046AA02002051230000FC0200205D
:102D700031230000D4490000384A0000110200004D
:102D8000F849000035240000AC49000070490000FB
:102D900070B582B005000E0000226B46DA80064C4A
:102DA0006B46991D2800A0470028F9D16B460633D1
:102DB0001B88337002B070BD5D15000070B5050052
:102DC0008CB2034E21002800B0470028FAD170BD14
:102DD000D9130000F0B5CE46474680B599B0544BA4
:102DE000984702AA8023DB05029300235360FF214A
:102DF000118100219372D3720120242410550134D3
:102E00001055253013540130135493620530135478
:102E10000130135453611382D376117611775176B2
:102E200013239376517780235B03D360414B136365
:102E3000414B536301235B429363D36396231B028D
:102E400013623E483E4B18603E493F4B19603F4974
:102E50003F4B19603F49404B9847404D2B6898685D
:102E600000213F4CA0472B6858680021A0473D4BEC
:102E7000186800281CD0314B1B68002B0ED02F4B3C
:102E80001C682000384B98471F2318401E3B834086
:102E9000364A1360334F294EB1461CE0344B019340
:102EA000344B0093344B354A0121354CA047E6E7BB
:102EB000224B1B68002BE2D12F4B304A2C49314862
:102EC000314CA047FEE73368002B16D01B4B1B6824
:102ED000DB69002B19D038680028F4D04B461B68FA
:102EE000002BF3D1224B0193224B0093FD239B0037
:102EF000224A0121224DA847E8E7FD239B001F4AF3
:102F00001B492048204CA047FEE7236802221343B8
:102F1000236015AB1D4A190031CA31C10322129238
:102F200013931B4B149312A81A4B9847FEE7C04605
:102F300035210000020016000200170024020020C4
:102F400020020020BD2D00001C020020912D000059
:102F500018020020001400422D0D00000400002083
:102F6000253800008C0000209D0C000000E100E0EE
:102F700030460000D0420000750400003C460000CE
:102F800011020000E84200001D3700001048000058
:102F9000A4480000A1020000002243088B4274D321
:102FA00003098B425FD3030A8B4244D3030B8B424A
:102FB00028D3030C8B420DD3FF22090212BA030C53
:102FC0008B4202D31212090265D0030B8B4219D334
:102FD00000E0090AC30B8B4201D3CB03C01A524154
:102FE000830B8B4201D38B03C01A5241430B8B429C
:102FF00001D34B03C01A5241030B8B4201D30B0385
:10300000C01A5241C30A8B4201D3CB02C01A5241AB
:10301000830A8B4201D38B02C01A5241430A8B426E
:1030200001D34B02C01A5241030A8B4201D30B0257
:10303000C01A5241CDD2C3098B4201D3CB01C01A71
:10304000524183098B4201D38B01C01A524143097B
:103050008B4201D34B01C01A524103098B4201D369
:103060000B01C01A5241C3088B4201D3CB00C01AD6
:10307000524183088B4201D38B00C01A524143084E
:103080008B4201D34B00C01A5241411A00D2014673
:10309000524110467047FFE701B5002000F006F8E6
:1030A00002BDC0460029F7D076E770477047C0469A
:1030B000F0B5CE46474615042D0C2E0080B507040A
:1030C000140C3F0C9946030C7E435D4367436343F6
:1030D0007F19340CE4199C46A54203D980235B0276
:1030E0009846C4444B46514343433604360C250CA2
:1030F00024046544A4195918491920000CBC9046B1
:103100009946F0BD70B500260C4D0D4C641BA41003
:10311000A64209D1002601F031FD0A4D0A4C641B7C
:10312000A410A64205D170BDB300EB5898470136F4
:10313000EEE7B300EB5898470136F2E7884B000002
:10314000884B0000884B00008C4B0000002310B51A
:103150009A4200D110BDCC5CC4540133F8E703009F
:103160008218934200D1704719700133F9E79368D0
:1031700010B5013B9360002B05DA9469A34208DB8C
:10318000CBB20A2B05D01368581C10601970C8B256
:1031900010BD00F017FCFBE7F8B506000F001400A7
:1031A000D518AC4201D1002007E021783A00300068
:1031B000FFF7DDFF0134431CF3D1F8BDF0B59FB03C
:1031C00006000F0014000593002804D08369002B2B
:1031D00001D100F0BBFD7F4B9F425CD17768BB897A
:1031E0001B0762D53B69002B5FD0002306AD6B61E6
:1031F00020336B761033AB760294029C2378002B3D
:103200005DD1029BE31A04930DD0049B029A39000E
:103210003000FFF7C1FF431C00D1CCE06A69049B7A
:10322000944663446B612378002B00D1C3E00122F4
:10323000002352426A6002A95432521801342B60B2
:10324000EB60AB601370AB6521780522624800F03B
:1032500089FE631C9C46002835D12968CB0604D51D
:10326000532302AA20309B1818700B0704D5532350
:103270002B2002AA9B18187023782A2B2CD0002010
:103280000A21099B2278303A092A00D86BE00028ED
:103290002AD0099328E0514B9F4201D1B7689EE79D
:1032A0004F4B9F429BD1F76899E73900300000F0FF
:1032B000DFFB002899D0012040421FB0F0BD252B34
:1032C0009FD001349AE7444B2968C01A01238340F8
:1032D0000B432B606446B7E7059B181D1B680590E0
:1032E000002B3ADB0993644623782E2B0BD16378AD
:1032F000621C2A2B3FD1059B02341A1D1B680592C4
:10330000002B35DB079321780322364800F02AFE94
:10331000002807D0334B2A68C01A40238340134348
:103320002B6001342178631C06222F4802932976F2
:1033300000F018FE002844D02C4B002B2FD1296818
:10334000059B0722C90528D59B189343083305938D
:103350006B69039A9B186B614FE75B42EB6002233A
:103360000B432B60BFE74B4301349B18012089E7D7
:1033700001235B42C6E7002314000A201A006B6099
:1033800021783039092903D9002BBCD00792BAE73C
:103390004243013452180123F2E70733D5E705AB66
:1033A00000933A00124B2900300000E000BF039068
:1033B000039B0133CCD1BB895B0600D57BE70B981F
:1033C0007BE705AB00933A00094B2900300000F081
:1033D0008BF8ECE73C4B0000E84A00005C4B000037
:1033E0001C4B0000EE4A0000F24A00000000000002
:1033F0009931000010B513000A000100024800686E
:10340000FFF7DCFE10BDC04604000020F7B5150034
:1034100001938A680B6900900C00934200DA130054
:1034200022002B6043321278002A01D001332B6036
:1034300023689B0602D52B6802332B60062723687E
:103440001F4027D0230043331B785A1E9341226824
:10345000920630D42200019943320098089EB0476A
:10346000431C25D0062320682A68E1680340002514
:10347000042B03D18D1AEB43DB171D40A36822698F
:10348000934201DD9B1AED180027BD4220D1002098
:1034900010E00137E3682A689B1A9F42D2DA2200C3
:1034A0000123193201990098089EB047431CF0D1BE
:1034B00001204042FEBD3020E11843310870210058
:1034C0005A1C45310978A218433202331170C1E702
:1034D000220001231A3201990098089EB047431C2C
:1034E000E6D00137D1E70000F0B58BB006920A00B4
:1034F00043320793059004920A7E0C00109B6E2ABB
:1035000000D18FE017D8632A2CD008D8002A00D128
:1035100099E0582A54D026004236327029E0642AB5
:1035200001D0692AF7D121681A68080623D5111D30
:103530001960156825E0732A00D188E008D86F2A41
:1035400029D0702AE7D1202209680A43226003E0CB
:10355000752A20D0782ADED12200782145321170D8
:103560006C4A30E00E001A684236111D196013686B
:103570003370012379E04906D9D5111D1960002364
:10358000D55E002D03DA2D23049A6D421370624B31
:103590000A2703932FE020681968050603D5081D44
:1035A00018600D6805E04006F9D50D68081D186023
:1035B000ADB2594B082703936F2A18D00A2716E09B
:1035C00045310A70544A03921A682168101D186028
:1035D0001568080622D5CB0702D5202319432160A0
:1035E0001027002D03D1202322689A432260230054
:1035F000002243331A706368A360002B5CDB042253
:10360000216891432160002D58D1049E002B64D085
:103610002600039B42361B7833705EE04806DAD5FD
:10362000ADB2D8E709681A68080605D5111D1960FA
:10363000136862691A6006E04906F7D5111D196022
:103640001368A28A1A800023049E236154E01A683A
:10365000111D1960166800216268300000F082FCBC
:10366000002801D0801B6060636823610023049AF6
:10367000137041E02369320006990598079DA84719
:10368000431C43D0236800259B070FD4099BE068A7
:1036900098423DDA18003BE02200012319320699D6
:1036A0000598079EB047431C30D00135E368099A5E
:1036B0009B1A9D42F0DBE9E7002DA9D0049E28006B
:1036C0003900FFF7EFFC039B013E5B5C2800337081
:1036D0003900FFF761FC051EF1D1082F09D12368DD
:1036E000DB0706D563682269934202DC3023013E82
:1036F0003370049B9B1B2361079B09AA0093210045
:10370000069B0598FFF782FE431CB3D1012040427F
:103710000BB0F0BD0A4B0000F94A00000FB40B4B90
:1037200013B51C68002C05D0A369002B02D1200022
:1037300000F00CFB05AB049AA16820000193FFF791
:103740003DFD16BC08BC04B01847C046040000206C
:1037500070B505000E00002804D08369002B01D14C
:1037600000F0F4FAAB69AC68002B02D1280000F03D
:10377000EDFA244B9C420FD16C68A3891B0702D53C
:103780002369002B20D12100280000F071F90028C6
:103790001AD00120404270BD1B4B9C4201D1AC6845
:1037A000EBE71A4B9C42E8D1EC68E6E7013B0136B7
:1037B000A360002B04DAA269934216DB0A2914D015
:1037C00023685A1C226019703178A3680029EDD152
:1037D000013BA360002B0FDA22000A31280000F021
:1037E000F1F8431CD5D00A20D5E72200280000F0CC
:1037F000E9F8431CE8D1CCE70A2023685A1C226070
:103800001870C8E73C4B00005C4B00001C4B0000EC
:1038100010B5034B01001868FFF79AFF10BDC046B2
:10382000040000204A424A41802310B55200DB00C8
:1038300000F01CF810BDF0C041464A4653465C46B5
:103840006D4676467EC02838F0C80020704710309C
:103850007CC890469946A246AB46B54608C828386B
:10386000F0C8081C00D1012018470000F0B51D0069
:103870004F4B85B01E6804000F000092002E05D04B
:10388000B369002B02D1300000F060FA494B9C4232
:1038900050D17468009B022B05D0012B00D984E025
:1038A000002D00DA81E02100300000F0E1F9616BC9
:1038B000002908D023004433994202D0300000F0A0
:1038C0005DFB002363630023A3616360A3891B0680
:1038D00003D52169300000F051FBA389364A13401B
:1038E000A381009B022B5AD003AB02AA2100300017
:1038F00000F0C2FAA3891843A081002D24D1029DB3
:10390000280000F025FB0195071E42D1029B019380
:10391000AB4239D1012040420223A2891343A38143
:103920000023A360230047332360236101236361E5
:1039300005B0F0BD214B9C4201D1B468AAE7204BF1
:103940009C42A7D1F468A5E7002FD9D0B369002B1A
:1039500002D1300000F0FAF9009B012B03D1A389BA
:10396000009A1A43A2810820A38927602761656114
:10397000184018D0012018400023984211D06D4201
:10398000A360A5611800D3E7019800F0E1FA071ED3
:10399000C0D08023A289019D1343A381D6E70020D4
:1039A000BAE7A560C4E7A060C2E701204042BFE7D4
:1039B000040000203C4B00005CF3FFFF5C4B000068
:1039C0001C4B0000F8B505000E001400002804D0C0
:1039D0008369002B01D100F0B9F9224B9C422DD113
:1039E0006C68A369A360A3891B0731D52369002BE9
:1039F0002ED023682269F7B2981A6369F6B298420A
:103A000005DB2100280000F033F9002826D1A36847
:103A10000130013BA36023685A1C22601F70636958
:103A2000984204D0A389DB071AD50A2E18D12100A9
:103A3000280000F01DF9002812D00FE00A4B9C422C
:103A400001D1AC68CDE7094B9C42CAD1EC68C8E70C
:103A50002100280000F00CF80028CAD00126764288
:103A60003000F8BD3C4B00005C4B00001C4B0000DC
:103A7000364B70B51D6806000C00002D05D0AB69F3
:103A8000002B02D1280000F061F9314B9C420FD18C
:103A90006C680C23E25E93B219072DD4D90611D4B9
:103AA00009230120336037331343A381404270BDA3
:103AB000284B9C4201D1AC68EBE7274B9C42E8D1F4
:103AC000EC68E6E75B0713D5616B002908D023009B
:103AD0004433994202D0300000F050FA002363636F
:103AE0002422A3899343A381002363602369236075
:103AF0000823A2891343A3812369002B0BD1A021A2
:103B00008022A389890092000B40934203D02100B8
:103B1000300000F0D9F90123A289134011D000230D
:103B2000A36063695B42A361002023698342BED125
:103B30000C23E25E1306BAD540231343A381013858
:103B4000B5E7920700D46369A360EDE704000020A5
:103B50003C4B00005C4B00001C4B0000F7B58A8911
:103B600005000C00130760D44B68002B04DC0B6CC1
:103B7000002B01DC0020FEBDE76A002FFAD00023F5
:103B80002E682B6080235B011A4034D0606DA389BE
:103B90005B0706D56368C01A636B002B01D0236CEA
:103BA000C01A0200216A00232800E76AB847A189E9
:103BB000431C06D12B681D2B31D82C4ADA40D30781
:103BC0002DD50023636023692360CB0405D5431CF6
:103BD00002D12B68002B00D16065616B2E6000293B
:103BE000C8D023004433994202D0280000F0C6F91F
:103BF00000206063BFE70123216A2800B847431C07
:103C0000C5D12B68002BC2D01D2B01D0162B01D1A2
:103C10002E60AFE74023A2891343A381ABE7402383
:103C20000B430120A3814042A5E70F69002FA1D0DB
:103C30000B680F60DB1B01930023920700D14B69D7
:103C4000A360019B002B00DC94E7019B3A00216AF2
:103C50002800A66AB047002803DC4023A28913434A
:103C6000DFE7019B3F181B1A0193EAE701004020A0
:103C70000B6970B505000C00002B01D1002070BD50
:103C8000002804D08369002B01D100F05FF80B4BB2
:103C90009C4209D16C680C22A35E002BEED021005F
:103CA0002800FFF75BFFEAE7054B9C4201D1AC68B7
:103CB000F1E7044B9C42EED1EC68ECE73C4B000092
:103CC0005C4B00001C4B000010B5024900F0B2F83C
:103CD00010BDC046713C0000002310B50400036015
:103CE0004360836081814366C28103614361836174
:103CF000190008225C30FFF732FA054B2462636238
:103D0000044BA362044BE362044B236310BDC04623
:103D1000F140000019410000514100007D410000C8
:103D200070B568254A1E55430E002900743100F015
:103D30006FF9041E08D000212A00016046600C3093
:103D4000A0606832FFF70BFA200070BD836913B5DD
:103D50000400002B28D18364C3640365134B144A09
:103D60001B6882620193984201D101238361200084
:103D700000F020F86060200000F01CF8A060200037
:103D800000F018F80022E06004216068FFF7A4FF4B
:103D900001220921A068FFF79FFF02221221E0689B
:103DA000FFF79AFF0123A36113BDC046E44A000058
:103DB000C93C0000F8B51E4B07001E68B369002B14
:103DC00002D13000FFF7C2FF4836B4687368013B88
:103DD00004D53368002B07D03668F6E70C22A55EC1
:103DE000002D0DD06834F2E704213800FFF798FF6A
:103DF00030600028F0D10C2304003B602000F8BDA7
:103E0000012320005B42E3810233A38165662560C4
:103E1000A560656025616561A561082229005C30A7
:103E2000FFF79DF96563A563A564E564E6E7C04611
:103E3000E44A0000F7B50400070000260191483469
:103E4000002C01D13000FEBD6368A5680093009B83
:103E5000013B009301D52468F2E7AB89012B08D917
:103E60000E22AB5E013304D029003800019B984735
:103E700006436835EBE7000070B50E001D000E2309
:103E8000C95E90B01400002907DA00232B60B389C3
:103E90001B0611D48023DB000FE001AA00F09AF981
:103EA0000028F2DBF022029B12021340054A9B1805
:103EB0005A4253412B60EDE740230020236010B0AD
:103EC00070BDC04600E0FFFFF7B502268B890500F4
:103ED0000C00334206D023004733236023610123C3
:103EE0006361F7BD01AB6A46FFF7C6FF00990700A3
:103EF000280000F08DF8002808D10C22A35E9A0556
:103F0000EFD4032293431E43A681E4E70F4BAB6239
:103F10008023A28920601343A381009B20616361F9
:103F2000019B002B0DD00E23E15E280000F064F908
:103F3000002806D00322A38993431A0001231343C8
:103F4000A381A0893843A081CBE7C046C93C0000CB
:103F500010B5034B0100186800F05AF810BDC046B8
:103F600004000020C9B28218904201D1002070479D
:103F700003788B42FBD00130F6E7000070B50500F6
:103F8000002910D00C1F2368002B00DAE418280049
:103F900000F058F91D4A1368002B05D163601460C6
:103FA000280000F050F970BDA34209D921686018BB
:103FB0008342F3D118685B6841182160EEE7130073
:103FC0005A68002A01D0A242F9D919685818A042AB
:103FD0000BD120680918581819608242E0D1106886
:103FE0005268411819605A60DAE7A04202D90C23DE
:103FF0002B60D5E721686018824203D110685268AF
:104000004118216062605C60CAE7C046F801002088
:10401000032370B5CD1C9D43083506000C2D1ED220
:104020000C25A9421DD8300000F00CF9254A14686F
:104030002100002919D1244C2368002B03D1300022
:1040400000F044F820602900300000F03FF8431CE5
:104050002CD10C233000336000F0F5F803E0002D84
:10406000DFDA0C233360002070BD0B685B1B1AD4B1
:104070000B2B03D90B60CC18256003E08C420ED1CA
:1040800063681360300000F0DEF8200007220B3078
:10409000231D9043C31AE7D05A42E250E4E74B682D
:1040A00063600C00EEE70C004968C2E70323C41C00
:1040B0009C43A042E0D0211A300000F007F8431CD6
:1040C000DAD1C6E7F8010020FC010020002370B51A
:1040D000064C050008002360FEF7B6FC431C03D124
:1040E0002368002B00D02B6070BDC0460003002069
:1040F00070B50C000E25495F00F0A6F8002803DB20
:10410000636D1B18636570BDA389024A1340A381C8
:10411000F9E7C046FFEFFFFFF8B51F008B890500E8
:104120000C001600DB0505D50E23C95E0022022314
:1041300000F074F8A389054A28001340A3813200D7
:104140000E23E15E3B0000F01FF8F8BDFFEFFFFF1C
:1041500070B50C000E25495F00F060F8A389421C81
:1041600003D1054A1340A38170BD8022520113433D
:10417000A3816065F8E7C046FFEFFFFF10B50E238F
:10418000C95E00F015F810BD70B5050008001100FB
:104190000022064C22601A00FEF72EFC431C03D1BD
:1041A0002368002B00D02B6070BDC04600030020A8
:1041B000002370B5064C050008002360FEF756FC8E
:1041C000431C03D12368002B00D02B6070BDC04678
:1041D00000030020002370B5064C05000800110004
:1041E0002360FEF746FC431C03D12368002B00D05C
:1041F0002B6070BD00030020002370B5064C050045
:1042000008002360FEF73AFC431C03D12368002B0F
:1042100000D02B6070BDC0460003002070B50500C3
:10422000080011000022064C22601A00FEF728FC4C
:10423000431C03D12368002B00D02B6070BDC04607
:10424000000300207047704770B50500080011009A
:104250000022064C22601A00FEF7ACFB431C03D17F
:104260002368002B00D02B6070BDC04600030020E7
:104270002E2E2F7372632F4153462F636F6D6D6F18
:104280006E2F7574696C732F696E746572727570B8
:10429000742F696E746572727570745F73616D5F8F
:1042A0006E7669632E6300006370755F6972715F7B
:1042B000637269746963616C5F73656374696F6E5F
:1042C0005F636F756E746572203E203000000000E1
:1042D000417373657274696F6E206661696C6564A1
:1042E0003A20257300000000417373657274696F92
:1042F0006E2027257327206661696C6564206174D0
:104300002025733A25640D0A00000000546573747B
:104310002027257327206661696C656420617420FD
:1043200025733A25753A0D0A0900000052756E6E24
:10433000696E6720746573742073756974652027CE
:104340002573272E2E2E0D0A0000000052756E6E6A
:10435000696E6720746573743A2025730D0A000036
:1043600053657474696E672075702066697874751A
:1043700072650D0073657475700000005465737488
:104380002027257327206661696C65642064757237
:10439000696E6720272573273A2025640D0A0000DF
:1043A0007465737400000000436C65616E696E672C
:1043B00020757020666978747572650D00000000C4
:1043C000636C65616E7570005465737420737569F4
:1043D0007465202725732720636F6D706C65746585
:1043E0003A2025752074657374732C20257520661A
:1043F00061696C757265732C202575206572726F0A
:1044000072730D0A0D0A00006805000068050000BF
:104410004405000068050000440500002A0500006E
:104420002A05000068050000680500006805000016
:1044300068050000680500006805000068050000C8
:1044400068050000680500006805000068050000B8
:1044500068050000680500006805000068050000A8
:104460006805000068050000680500006805000098
:104470006805000068050000680500006805000088
:104480006805000068050000680500006805000078
:104490006805000068050000680500006805000068
:1044A0006805000068050000680500006805000058
:1044B0006805000068050000680500006805000048
:1044C0006805000068050000680500006805000038
:1044D0006805000068050000680500006805000028
:1044E0006805000068050000680500006805000018
:1044F0006805000068050000680500006805000008
:10450000680500006805000044050000440500003F
:104510004C0500004C0500004C0500004C05000057
:10452000706172616D657465727300002E2E2F7359
:1045300072632F4153462F73616D302F6472697619
:104540006572732F6E766D2F6E766D2E6300000090
:10455000636F6E66696700002E2E2F7372632F41A2
:1045600053462F73616D302F647269766572732FB5
:10457000706F72742F706F72742E630000080042A7
:10458000000C0042001000420014004200180042DB
:10459000001C00422E2E2F7372632F4153462F733F
:1045A000616D302F647269766572732F7365726303
:1045B0006F6D2F736572636F6D2E630066616C7330
:1045C000650000002E2E2F7372632F4153462F7308
:1045D000616D302F647269766572732F73657263D3
:1045E0006F6D2F736572636F6D5F696E7465727244
:1045F0007570742E630000002E2E2F7372632F418E
:1046000053462F73616D302F647269766572732F14
:10461000736572636F6D2F75736172742F7573613B
:1046200072742E63000000006D6F64756C6500008D
:104630006D6F64756C652D3E687700002E2E2F73AC
:1046400072632F4153462F73616D302F6472697608
:104650006572732F736572636F6D2F7573617274FA
:104660002F75736172742E68000000002E2E2F7358
:1046700072632F4153462F73616D302F64726976D8
:104680006572732F736572636F6D2F7573617274CA
:104690002F75736172745F696E7465727275707470
:1046A0002E63000074785F64617461009A190000E1
:1046B0009619000096190000F8190000F81900007A
:1046C000AE190000A0190000B4190000E61900009E
:1046D000821A0000EE1A0000EE1A00001A1B0000F9
:1046E000741A0000901A0000641A00009E1A00005C
:1046F000DE1A00002E2E2F7372632F4153462F7344
:10470000616D302F647269766572732F737973747B
:10471000656D2F636C6F636B2F636C6F636B5F737F
:10472000616D6432315F7232315F64615F68613143
:104730002F636C6F636B2E63000000002147434CB6
:104740004B2D3E434C4B4354524C2E6269742E57B2
:1047500052544C4F434B00002E2E2F7372632F4147
:1047600053462F73616D302F647269766572732FB3
:1047700073797374656D2F636C6F636B2F636C6FEC
:10478000636B5F73616D6432315F7232315F64619C
:104790005F6861312F67636C6B2E63002E2E2F7361
:1047A00072632F4153462F73616D302F64726976A7
:1047B0006572732F73797374656D2F70696E6D7583
:1047C000782F70696E6D75782E630000706F72744B
:1047D000000000002E2E2F7372632F4153462F735B
:1047E000616D302F647269766572732F737973749B
:1047F000656D2F70696E6D75782F70696E6D757847
:104800002E680000454574414D4F52502E756D4540
:10481000DC480000CC480000EC480000546573748C
:10482000696E6720454550524F4D2062756666653A
:104830007220726561642F77726974652066756E87
:104840006374696F6E616C69747900005465737488
:10485000696E6720454550524F4D20656D756C61FE
:10486000746F7220696E697469616C697A617469C8
:104870006F6E000054657374696E67204545505231
:104880004F4D207061676520726561642F77726992
:1048900074652066756E6374696F6E616C69747996
:1048A0000000000053414D20454550524F4D2065BA
:1048B0006D756C61746F72207365727669636520C3
:1048C000746573742073756974650000852A00002F
:1048D000D12B0000000000001C4800000000000078
:1048E000BD2C0000000000004C480000B52A00006C
:1048F000E52A0000000000007448000045455052C1
:104900004F4D207772697465206275666665722006
:104910006661696C65640000454550524F4D2072D8
:1049200065616420627566666572206661696C65A2
:1049300064000000427566666572206461746120DF
:10494000696E636F727265637420617420696E644E
:1049500065782025643A2045787065637465642025
:104960002564202D2052656164202564000000002C
:104970004E6F20454550524F4D206D656D6F7279D9
:104980002073656374696F6E20686173206265656A
:104990006E2073657420696E207468652064657686
:1049A00069636527732066757365730045455052CA
:1049B0004F4D20656D756C61746F7220696E6974FE
:1049C00069616C697A6174696F6E206661696C6592
:1049D00064000000454550524F4D20706172616D7A
:1049E00065746572207265747269657665206661AA
:1049F000696C656400000000476574207061726135
:104A00006D657465722072657475726E6564207769
:104A1000726F6E6720706167652073697A6545788B
:104A2000706563746564202564202D20526574755B
:104A3000726E6564202564002E2E2F7372632F75AD
:104A40006E69745F746573742E630000536B6970D4
:104A500070696E6720746573742064756520746F67
:104A6000206661696C656420696E697469616C694E
:104A70007A6174696F6E0000454550524F4D207742
:104A8000726974652070616765206661696C656430
:104A900000000000454550524F4D20726561642072
:104AA00070616765206661696C6564005061676567
:104AB000206461746120696E636F72726563742033
:104AC000617420696E6465782025643A20457870A9
:104AD0006563746564202564202D2052656164201F
:104AE0002564000008000020232D302B2000686C76
:104AF0004C00656667454647003031323334353601
:104B00003738394142434445460030313233343539
:104B10003637383961626364656600000000000062
:104B20000000000000000000000000000000000085
:104B30000000000000000000000000000000000075
:104B40000000000000000000000000000000000065
:104B50000000000000000000000000000000000055
:104B60000000000000000000000000000000000045
:104B7000000000000000000000000000F8B5C04682
:104B8000F8BC08BC9E467047DD000000F8B5C04682
:0C4B9000F8BC08BC9E467047B500000051
:104B9C000100000008000020000000003C4B000059
:104BAC005C4B00001C4B00000000000000000000EB
:104BBC0000000000000000000000000000000000E9
:104BCC0000000000000000000000000000000000D9
:104BDC0000000000000000000000000000000000C9
:104BEC0000000000000000000000000000000000B9
:084BFC000000000000000000B1
:04000003000028D100
:00000001FF
