:10000000282000202D030000290300002903000000
:1000100000000000000000000000000000000000E0
:1000200000000000000000000000000029030000A4
:100030000000000000000000290300002903000068
:100040002903000029030000290300002903000000
:1000500029030000290300002903000029030000F0
:1000600029030000290300002903000029030000E0
:1000700029030000290300002903000029030000D0
:1000800029030000290300002903000029030000C0
:1000900029030000290300002903000029030000B0
:1000A00029030000290300002903000029030000A0
:1000B0000000000010B5064C2378002B07D1054B3B
:1000C000002B02D0044800E000BF0123237010BDC4
:1000D0000400002000000000E0040000084B10B500
:1000E000002B03D00749084800E000BF0748036819
:1000F000002B00D110BD064B002BFBD09847F9E731
:100100000000000008000020E0040000E0040000FF
:10011000000000000C4B1B68002B06D1EFF310838E
:10012000002B07D00022094B1A70074A13680133CD
:100130001360704772B6BFF35F8F0022044B1A70D2
:100140000132024B1A70F0E720000020240000204A
:1001500000000020084B1A68013A1A601B68002B47
:1001600009D1064B1B78002B05D00122044B1A70D5
:10017000BFF35F8F62B6704720000020240000208C
:100180000000002070B5060004000D782D02054324
:100190004B78002B02D08023DB021D434B7A002BCF
:1001A00002D080231B031D434868012810D9431E39
:1001B000184234D1022830D90223002201325B00D8
:1001C0009842FBD812023243140080235B031D4384
:1001D0000B7A002B02D080239B031D43134A5378D4
:1001E0005BB2002BFBDB124B9847124B1E700F4A81
:1001F00053785BB2002BFBDB0C4B9C601A005378EE
:100200005BB2002BFBDB094A5368802149020B409B
:100210001D435560084B984770BD0022D2E7040289
:10022000344380239B021D43D2E7C046000C0040AC
:1002300015010000080C00405501000010B5040035
:100240000B4A53785BB2002BFBDB0A4B98470A4BF7
:100250001C70074A53785BB2002BFBDB044A5168E1
:1002600080235B020B435360044B984710BDC0468C
:10027000000C004015010000040C00405501000076
:1002800010B50400064B9847064B1C70064A53886D
:100290008021C9010B435380044B984710BDC046D1
:1002A00015010000020C0040000C00405501000048
:1002B00010B504000F4B98470F4B1C700F4A538822
:1002C0001B05180F53880E490B40538053880D4966
:1002D0000B40538011008022D2014B881342FCD185
:1002E00006494A8803020648024013434B80064BE6
:1002F000984710BD15010000020C0040000C0040A2
:10030000FFF0FFFFFFBFFFFF5501000010B50C78A5
:1003100024020443024B9847A4B2024B5C8010BDF8
:10032000B1020000000C0040FEE70000F8B52A4AC8
:100330002A4B9A4211D01A00294B9A420DD2294ACF
:1003400003339B1A9B0801339B0000222348224958
:100350008C58845004329A42FAD1234A234B9A4251
:100360000AD2D34321495B1803218B4304339B18E2
:10037000002102C29342FCD11D4AFF211D4B8B4339
:100380009360FD3990235B001B4AD1501B4AD37800
:100390000325AB4302242343D370D3780C27BB43FC
:1003A00008263343D370164B987B3022904320228B
:1003B00010439873997BB943314399739A7BAA434D
:1003C00022439A730F4A536880210B4353600E4BAC
:1003D00098470E4B9847FEE7E0040000000000201D
:1003E0000400002004000020040000202800002059
:1003F00000ED00E0000000000070004100500041EE
:1004000000480041004000417904000065040000FC
:1004100000B585B001A900234B7006220A700B724B
:100420004B7280334B600120034B98470120034BF4
:10043000984705B000BDC046850100003D020000A0
:1004400000B583B001A901230B701B20034B984713
:100450001B20034B984703B000BDC0460D030000AE
:100460008102000010B5024B9847024B9847FEE707
:10047000110400004104000070B500260C4D0D4C25
:10048000641BA410A64209D1002600F019F80A4DF9
:100490000A4C641BA410A64205D170BDB300EB58F2
:1004A00098470136EEE7B300EB5898470136F2E77C
:1004B000CC040000CC040000CC040000D0040000F8
:1004C000F8B5C046F8BC08BC9E467047DD00000089
:1004D000F8B5C046F8BC08BC9E467047B5000000A1
:0404E0000100000017
:040000030000032DC9
:00000001FF
