S018000053445F4D4D435F4558414D504C4531312E737265636C
S1130000C0310020952A0000912A0000912A0000A6
S113001000000000000000000000000000000000DC
S1130020000000000000000000000000912A000011
S11300300000000000000000912A00004D31000083
S1130040912A0000912A0000912A0000912A0000C0
S1130050912A0000912A0000912A0000912A0000B0
S1130060912A0000391600004916000059160000B4
S1130070691600007916000089160000912A000014
S1130080912A0000912A0000912A0000912A000080
S1130090912A0000912A0000912A0000912A000070
S11300A0912A0000912A0000912A0000912A000060
S11300B00000000010B5064C2378002B07D1054B37
S11300C0002B02D0044800E000BF0123237010BDC0
S11300D09800002000000000A8490000084B10B55B
S11300E0002B03D00749084800E000BF0748036815
S11300F0002B00D110BD064B002BFBD09847F9E72D
S1130100000000009C000020A8490000A84900004D
S11301100000000010B5074B19682223CB5C5A1E5F
S11301209341DBB24A7C096803480078034CA0473A
S113013010BDC046B4000020BD000020710D0000B9
S113014010B50423002801D0180010BD404B197AC3
S1130150CA090023002A04D14B09DB013D4A944615
S11301606344186A1F220A4001239340184210D0A6
S1130170374B9B7B012B04D00422354B9A7302230B
S1130180E2E7354B1B78002BF6D00022334B1A6084
S1130190F2E72F4B9A7B042A05D0012A33D003239C
S11301A0032AD1D045E0033A9A732C4B1B68002BE9
S11301B017D00022284B1A700020294B9847FA22A6
S11301C0920000230021274CA047274A00238018CF
S11301D05941264A0023264CA047264B9847022320
S11301E0B2E701241C4B1C7000201D4B9847FA21D8
S11301F04901214B9847FA239B005843174B5860F9
S11302001C600223A0E7144B1B78002B07D0134B70
S11302101A680223D20397D50022104B1A600C4BA4
S113022002229A73154A1A6001225A74002121325B
S113023099540022124B1A70054C124B1C60124B3D
S11302409847A37B023B5A425341DBB27CE7C0464A
S11302500C00002000440041BC00002010E000E03D
S11302602128000025330000571B0000581B000004
S1130270E532000001000020CD310000801A0600A4
S1130280BD000020B400002015010000F8B5094DA0
S1130290094F0A4E00210A48B847041E07D0B04748
S11302A0FF23034203D0013D002DF3D1002420009D
S11302B0F8BDC046410D0300B50F0000CD0F00008E
S11302C00D1B000010B582B00C4B1B689989090402
S11302D00123009310220A480A4CA047002801D1A8
S11302E002B010BD054B186812300121064B984727
S11302F00028F5D0054B9847F2E7C046B40000202B
S113030009110800250E000051100000DD10000046
S113031010B5044B1B78002B00D010BD0020024BFD
S11303209847FAE7BD000020C50D000010B504226F
S1130330034B9A73FB32034B1A70034B984710BD5F
S11303400C000020BD000020650C00000120704757
S1130350F0B5C64600B588B0CB4B984704000128D9
S113036006D0CA4B9847200008B004BC9046F0BDA4
S1130370C74B1B680122DA7300221A749A81C54B99
S11303809847002188204001C34B9847002807D193
S1130390BF4B1B6803229A73BC4B98470324E2E7C4
S11303A0D5214900BD48BC4B98470026002825D1DB
S11303B0B74B1B68DB7BDB0700D5EBE1B44B1B6859
S11303C0DA7B09231340012B0FD180218900B44823
S11303D0B14B98470028DBD0AD4B1B68DB7BDB07B8
S11303E003D5B04B98470028D2D0AF4B9847A84BC1
S11303F01B6800229A73A54B9847B4E7AB4B984708
S1130400431C00D1C4E10005000DD5235B00013677
S11304109842BDD1CCE70021A5489F4B98470028BE
S113042019D19B4B1B680222DA73002188204001FA
S1130430994B98470028ABD09E4D974F9B4E002177
S11304409D48B8470028A3D0B047C3077DD5013DD8
S1130450002DF4D19CE7954B9847430005D58C4B70
S11304601A68D37B08210B43D373002193488A4B2A
S1130470984700288CD0864B1B68DB7BDA0700D4B6
S1130480A4E18F4B9847002882D0814B1A68537D92
S11304900721194089008B480858FA2189004143F3
S11304A05B061B0F9B0088481B584B431360937CCF
S11304B09B0900D03CE1917E8911537E9B00107E04
S11304C0800203430B43107FC011D17E49000843CF
S11304D01B051B0D01330721014002318B40D07DE8
S11304E00F2101408B409B0A53609189090477488E
S11304F0694B9847002800D14AE70123009308225A
S113050000217348734DA847002800D140E701211A
S113051006A8714B9847002800D139E76F4B9847DC
S1130520002800D134E706AB1B780F221340012BBF
S113053000D119E1002B00D109E1022B00D118E10F
S1130540534B1B6810221A7405E100215848524B82
S11305509847002800D11BE7544B9847C023DB057C
S113056018408023DB05984205D1494B1A68D17B9A
S113057008230B43D37300215048474B9847002866
S113058000D105E74E4B9847002800D100E7404BC7
S11305901A68937C9B061B0F022B00D1A8E007D995
S11305A0032B00D1A7E0042B04D14023137403E0F0
S11305B0012B66D012231374537D5906090F890049
S11305C0072003409B003F481858FA239B004343ED
S11305D0434809584B431360917E8911537E9B0015
S11305E0107E800203430B431B051B0D3D498B42C8
S11305F00FD0107FC011D17E490001430133072081
S1130600014002318B40D17D083001408B409B0A70
S11306105360137C3F2B7BD900210091012380225E
S1130620920031482B4DA847002800D1B0E60025A0
S11306302E4E05A8B047002800D1A9E60135ADB279
S1130640322DF6D1124B19688A7E92114B7E9B0093
S1130650097E89020B4313431B051B0D214A934258
S113066054D1224E06A8B047002800D190E60135A7
S1130670ADB2352DF6D9064B1A68069B5B0853605C
S113068044E01423137497E74101000011030000B0
S1130690B4000020ED0D0000B50F00000855000067
S11306A0101100008D02000015010000CD0F0000A4
S11306B03A050000EF1B0000011100003B1100008F
S11306C0C5020000C8450000E445000037110000E1
S11306D033110800250E000051100000DD10000049
S11306E088450000FF0F000008110800D90F000022
S11306F02223137460E7302313745DE706A8364B96
S11307009847002800D143E60135ADB27F2DF5D9D5
S1130710802189003148324B9847002800D137E6C0
S1130720304B9847002800D132E62F4B98475EE6BD
S1130730D07E937E1B02517E09040B4303439B022C
S11307405B08802189008C4663445360CDE6274BC7
S11307501B6810221A74254B1B68DB7B092213408B
S1130760012B00D038E630E6204B1B681A221A749D
S1130770F1E706AB9B78DB09012B04D11B4B1B680B
S113078030221A74E7E7194B1B6820221A74E2E737
S113079000260DE6731E9E41B3070393144D104FBC
S11307A0B846144E00211448B847002800D138E652
S11307B003991248C047002800D132E6B047C30766
S11307C000D428E6013D002DECD12AE6092213408D
S11307D0012B00D009E6F8E5D90F00001011000044
S11307E0B50F00008D02000015010000B4000020C8
S11307F0EF1B0000CD0F000037110000291100008D
S113080010B5064B98470023002801D0180010BDEE
S1130810034B9847034B1B68DB7BF7E74101000060
S113082011030000B400002010B5064B98470023C4
S1130830002801D0180010BD034B9847034B1B68D8
S11308405B68F7E74101000011030000B4000020D9
S11308500020704770B582B00E001500164B984703
S1130860041E02D0200002B070BD144B984700282B
S113087017D0012D19D91248124B1B68DB7B1B07BB
S113088000D47602012300932B00802292003100D1
S11308900D4EB04700280AD00C4B1D800C4B1D8018
S11308A0E0E70C4B98470534DCE70B48E4E7094BD9
S11308B098470524D6E7C046410100008D02000098
S11308C012111000B4000020250E0000B800002012
S11308D0BA000020110300001111080010B50C002B
S11308E0074B9847002804D10022064B1A80053094
S11308F010BD044A13881C1B14800020F8E7C0466E
S113090051100000B800002010B50400144B9847A3
S11309100523002801D1180010BD002C10D000229E
S1130920104B1A80104B1B88012B0FD000210F484D
S11309300F4B984700280DD00E4B98470023EAE749
S1130940084B1A880023002AECD0E4E7094B9847A7
S11309500023E0E700210548054B9847ECE7C04633
S1130960DD100000B8000020BA0000200C310000A7
S1130970B50F00001103000070B582B00E00150021
S1130980114B9847041E16D1012D17D90F48104B4F
S11309901B68DB7B1B0700D47602012300932B002A
S11309A08022920031000B4EB047002808D00A4B39
S11309B01D800A4B1D80200002B070BD0848E6E788
S11309C0084B98470524F6E74101000019911000EF
S11309D0B4000020250E0000B8000020BA0000205A
S11309E0189108001103000010B50C00074B98473C
S11309F0002804D10022064B1A80053010BD044A99
S1130A0013881C1B14800020F8E7C046E110000086
S1130A10B800002010B504000E4B984705230028A9
S1130A2001D1180010BD002C0AD000220A4B1A80F4
S1130A300A4B1B88012B09D0094B98470023F0E788
S1130A40054B1A880023002AF2D0EAE7044B9847A2
S1130A500023E6E761110000B8000020BA0000207E
S1130A601103000000B583B06B46D91DFF230B7042
S1130A7001220B480B4B98470B4B1B88012B0AD0C8
S1130A80FC226B469A7101226B46991D0448054B62
S1130A90984703B000BDFE226B469A71F3E7C04647
S1130AA0C0000020F11A000004010020F0B583B05A
S1130AB06B46DC1DFF232370124E012221003000FF
S1130AC0114DA847FF23012221003000A847FF232E
S1130AD0012221003000A8470C4C6B46DD1D094E55
S1130AE0094F2B78FF2B09D0FF2301222900300066
S1130AF0B847013C002CF4D1002000E0012003B0F1
S1130B00F0BDC046C000002029190000400D0300BC
S1130B1070B582B0144B1C88012C23D0134B198858
S1130B20134B1868134B98470123844202D91800C9
S1130B3002B070BD6B46DC1DFF2323700E4E0122F4
S1130B40210030000D4DA847FD2323700122210010
S1130B503000A8470A4B9847031EE8D10521094AEB
S1130B601170E4E70123E2E704010020FC00002007
S1130B700C010020CD310000C0000020F11A00005B
S1130B80AD0A000003010020F0B583B000226B46DB
S1130B90DA71144C6B46DD1D134E144FFF230122F2
S1130BA029003000B8472B780F22190091430A1E00
S1130BB009D0FE2B13D0013C002CEFD104220C4BA6
S1130BC01A7000200CE05B0704D00732084B1A703F
S1130BD0002005E00B22064B1A70002000E00120E3
S1130BE003B0F0BD20A10700C000002029190000B7
S1130BF00301002030B583B001A901235B420B80BF
S1130C00144D02222800144B98476B46DC1DFF2329
S1130C10012221002800114DA847227811231340F6
S1130C20012B05D001220E4B1A70002003B030BDF9
S1130C301E231A40042A0BD00A2A04D1023A084B74
S1130C401A700020F2E70A22054B1A700020EDE723
S1130C500120EBE7C0000020F11A00002919000070
S1130C600301002070B590B00025304B1D700FA912
S1130C700D7001264E708D7025202D4B984701ACC8
S1130C8026700295039525746574A674E67425751B
S1130C902423E5540C22002107A8264B98478023DF
S1130CA05B02E360244BA362244BE362244B236383
S1130CB0244B6363244BA361244D22002449280060
S1130CC0244B98472C682000234B98471F23184037
S1130CD08640224B1E602A68D369002BFCD123680E
S1130CE00222134323601E4A0023537093701D494C
S1130CF0087810701C4C20706370A3700122694640
S1130D004A708B700A700A4B98472278D1090023E5
S1130D10002904D15309DB0114498C4663441F2183
S1130D20114001228A409A6110B070BD0301002075
S1130D303112000095350000030004000300050093
S1130D400300060003000700801A0600C00000200C
S1130D5000080042511700000916000000E100E0FD
S1130D601001002030000020000100200044004158
S1130D70F8B5070000220D4B1A700C000C4B994279
S1130D8000D91C000B4D0C4E01E0E308E41A2100CD
S1130D902800B0471728F8D07900CF190749C91996
S1130DA001220448064B9847F8BDC04603010020C1
S1130DB080969800C00000209916000000010020D1
S1130DC0FD19000010B50022044B1A7041000818E8
S1130DD0034909180348044B984710BD0301002038
S1130DE000010020C0000020FD19000070B582B091
S1130DF0FF226B46DA710022074B1A700A24074E51
S1130E00074D01226B46D91D3000A847013CE4B2CE
S1130E10002CF6D102B070BD03010020C0000020F8
S1130E20F11A0000F0B5C64600B586B080460092BF
S1130E300193FF220F2302A8844663441A70002200
S1130E40534B1A7004AB3F324046024040200243E9
S1130E501A700A0E5A700A0C9A700A0ADA7019711A
S1130E600027002304A90822092411E07600F6B221
S1130E700138C0B2002808D05B00DBB21D00754009
S1130E802D06F3D56340DBB2F0E70137052F02D01E
S1130E907E5C1000F0E75B000122134304AC637135
S1130EA03C4E01220F2102AB9C46614430003A4F74
S1130EB0B847062221003000B84702ABD91DFF23F2
S1130EC00B7001223000354EB047072402ABDE1D03
S1130ED0304F324DFF23012231003800A8473378C8
S1130EE05AB2002A0BDA013CE4B2002CF2D10222FD
S1130EF0274B1A70002006B004BC9046F0BD284A67
S1130F0013601A071AD45A071DD4012293431FD120
S1130F1043469B0420D443469B0525D443465B05A6
S1130F202BD4204B6A4612881A801F4B6A4692883B
S1130F301A8000221D4B1A600120DCE70622144BA4
S1130F401A700020D7E70922114B1A700020D2E74B
S1130F500F4B1A700020CEE7154B98470028DAD1C2
S1130F6003220B4B1A70C6E70D4900230B60FF33B5
S1130F7001220848094EB047D0E7094EFF23042256
S1130F8031000448054FB84733681BBA3360C8E7DB
S1130F9003010020C0000020F11A000029190000FC
S1130FA008010020FC000020040100200C010020A6
S1130FB0AD0A000010B582B0002300930022024C59
S1130FC0A04702B010BDC046250E0000014B1868B2
S1130FD07047C0460801002010B584B0019000227B
S1130FE0144B1A70144B1988144B1868144B9847F7
S1130FF0002903D1134B9847002810D0FF23042263
S113100001A91148114CA0470C4B1A68101D186017
S1131010094B19880A4B98470120002901D004B0D4
S113102010BDFF23022203A90748084CA047012052
S1131030F5E7C04603010020FC0000200C0100205D
S1131040D9320000890B0000C000002029190000DB
S1131050F0B5DE4657464646C0B582B08346002208
S1131060174B1A704C1EA4B2002926D00026154B2B
S11310709A46154FD0478046002817D03A885B46D9
S11310809919FF231148124DA8473B88F618114AB5
S113109011688C4663441360FF23022201A90B48A4
S11310A0A847013CA4B20C4B9C42E3D1404602B099
S11310B01CBC90469A46A346F0BD01239846F5E72A
S11310C003010020890B0000FC000020C000002068
S11310D0291900000C010020FFFF000001207047C7
S11310E0F0B5C64600B580460022154B1A7000259F
S11310F0144F154E00E021004C1EA4B200291BD051
S1131100B8473288434659191048114B98473388D9
S1131110ED18104A11688C46634413600E4B9847CF
S113112000280AD0002CE6D00C4B98470028E2D1C6
S11311300522034B1A7000E0012004BC9046F0BD68
S113114003010020650A0000FC000020C00000200C
S1131150F11A00000C010020F50B0000AD0A00009C
S113116010B5054B9847002803D10522034B1A708C
S113117010BD034B9847FBE7AD0A000003010020B4
S1131180110B0000704700000C4B1B68002B06D1AC
S1131190EFF31083002B07D00022094B1A70074A83
S11311A0136801331360704772B6BFF35F8F002278
S11311B0044B1A700132024B1A70F0E7140100203C
S11311C01801002031000020084B1A68013A1A6007
S11311D01B68002B09D1064B1B78002B05D001227C
S11311E0044B1A70BFF35F8F62B67047140100207E
S11311F01801002031000020F0B583B001AC0125B6
S113120065700027A770257021003E20064EB04768
S11312108022D205054B9A612770657021000F204A
S1131220B04703B0F0BDC046311200008044004115
S113123000B583B001AB80221A700A785A704A78DC
S11312409A708A78DA701900014B984703B000BD90
S1131250312A0000F0B5DE4657464E464546E0B515
S113126087B08046049116001F000022002300214D
S11312708B463F2401202100009601975C4603948D
S11312804446059413E02024641A0500E540A8466A
S113129014E0009C019D121BAB415C464D462C435F
S11312A0A346039C45462C430394013925D32024AB
S11312B064420C19E7D40500A540A84604008C40FC
S11312C0A14692185B4114001D00059E4F463E4006
S11312D0B446049E47463E40B246664657463E43A1
S11312E003D00600264332002B00009C019D9D4242
S11312F0DBD8CED19442D8D8CBE7039B584619000B
S113130007B03CBC90469946A246AB46F0BD10B52A
S1131310490840230024814202D2180010BD1C0059
S1131320091A631C9BB28842F9D94023FF2CF4D8D4
S113133014800023F1E70000F0B583B00F0016001D
S113134008AA117804004C434022BC4202D9100080
S113135003B0F0BD002B14D1020008000021194C89
S1131360A04701003A0000230020174CA0470022A8
S11313700123121A8B41120C1B041A4332800022DF
S1131380E5E70022012BF9D10A00002300210D4CCE
S1131390A04702000B0000920193380000210A4C80
S11313A0A047050080239B0140229842CFD8790FA3
S11313B0F800009A019BA047EA00821AD2B25203B5
S11313C02A43DBE7253300005512000010B582B034
S11313D004000E4B1B78002B07D0002905D10B4BC2
S11313E05B78834210D01D200CE001A90C701320FF
S11313F0074B98471320074B9847044B5C70012216
S11314001A70002002B010BD0020FBE71C01002070
S113141039290000AD280000404B984231D00AD948
S11314203F4B98424DD03F4B98425AD03E4B984246
S113143037D0002070473D4B98420CD03C4B98422B
S1131440F7D1012917D000295DD0022915D003292D
S113145015D00020EEE7012907D0002951D0022938
S113146005D0032905D00020E4E73248E2E73248FA
S1131470E0E73248DEE73248DCE73248DAE7324870
S1131480D8E7012907D000293FD0022905D0032934
S113149005D00020CEE72D48CCE72D48CAE72D48DB
S11314A0C8E7012907D0002931D0022905D0032932
S11314B005D00020BEE72848BCE72848BAE72848FA
S11314C0B8E7012907D0002923D0022905D0032930
S11314D005D00020AEE72348ACE72348AAE7234819
S11314E0A8E7012907D0002915D0022905D003292E
S11314F005D000209EE71E489CE71E489AE71E4838
S113150098E71E4896E7032094E71D4892E71D4894
S113151090E71D488EE71D488CE7C0460010004246
S113152000180042001C004200140042000800425F
S1131530000C00420300050003000600030007003E
S11315400300010003001E0003001F000300090044
S113155003000A0003000B00030011000300120043
S11315600300130003000D0003000E0003000F002E
S1131570030017000300180003001900030004000F
S1131580030008000300100003000C000300160011
S113159030B587B00B4B6A4632CB32C232CB32C243
S11315A0009B83420BD001239A0069465258824221
S11315B006D00133062BF7D1002007B030BD00233D
S11315C0D8B2FAE72446000070470000F0B50A4B91
S11315D01B78002B0CD1094F094E0A4D0024DE5113
S11315E05A1914600433182BF9D10122024B1A70D2
S11315F08000024BC150F0BD1E01002020010020DC
S1131600C91500006011002000B583B009236A46A3
S1131610137001335370013393700133D37001336A
S1131620137101335371034B98476B46185603B03B
S113163000BDC0469115000010B5024B1B68002088
S1131640984710BD2001002010B5024B5B680120B3
S1131650984710BD2001002010B5024B9B68022062
S1131660984710BD2001002010B5024BDB68032011
S1131670984710BD2001002010B5024B1B690420BF
S1131680984710BD2001002010B5024B5B6905206E
S1131690984710BD2001002070B582B005000C00F1
S11316A000226B46DA8006683000244B98471F23DB
S11316B018401E3B8340802221498B502A68D369FD
S11316C0002BFCD18F333375337633680222934376
S11316D033602868C369002BFCD11A4B9847143037
S11316E0C0B2194B984701006B469A1D2000174B56
S11316F09847041E03D01724200002B070BD6B4627
S113170006331B7833732E68F369002BFCD1300049
S11317100A4B98471F2318401E3B8340084A136016
S11317202A68D369002BFCD1336802221343336047
S11317302A68D369002BFCD1DEE7C04609160000F5
S113174000E100E091150000552900000F1300008E
S1131750F0B58BB005000C00160029600B681C2046
S11317609B0701D50BB0F0BD0B681738DB07F9D424
S11317700800604B9847604A116A871C0123BB40EC
S11317800B43136209A92427F35D0B701430C3B211
S113179001931800594B98470198594B9847F05DAD
S11317A00021584B98473378012B38D02B000C3349
S11317B029002831002204C38B42FCD10023EB62B0
S11317C0AB620024AB862B863633EC540133EC54E5
S11317D00133EC54353B6B722C712868454B9847A8
S11317E007004949494B9847BF00494BFD502F68B2
S11317F004AB80221A705C707F3A9A70DC70337884
S1131800002B02D1002204AB9A70B36A0593F36AE9
S11318100693336B0793736B089300240BE02368E0
S11318200C2213432360C1E738003A4B98470AE07F
S11318300134042C10D0E1B2A30002AA0C20121827
S1131840D0580028F0D0431CF2D004A90870000C32
S1131850C0B2314B9847EBE733786B71337CAB7193
S1131860B37CEB71337D2B72002202ABDA803378C8
S1131870012B28D07368B2681343F2681343317C98
S1131880727C002A03D1254A9278920701D58022DE
S11318901343B27C002A02D0802292021143F27CCC
S11318A0002A02D0802292001143327D002A02D005
S11318B08022920111433A6813433B607B680B43D7
S11318C07B6000204EE728680A4B98471430C0B26A
S11318D0134B9847010002AB9A1DB069114B98470E
S11318E003001720002B00D03CE702AB06331B7823
S11318F03B73BFE791150000000400403929000044
S1131900AD280000CD130000BD1B0000CD15000064
S11319106011002019140000312A00000020004149
S1131920552900000F130000F0B5D646474680B590
S113193083B03824055D333C052D02D01234002ACF
S113194005D1200003B00CBC90469A46F0BDC47982
S1131950002C44D11C34F4E705682C7E3C42FCD0B6
S11319602C7E3C421AD04446AC6217E08479012CA8
S113197026D0AD6AECB2A446019C002C3AD1751C69
S1131980ADB264468C558479012C1ED02E00013AE8
S113199092B252451FD04479012CDDD005682C7ECB
S11319A01C42FCD02C7E1C4217D06C8BA446002415
S11319B0019464461C42D9D06B831E240194D5E75C
S11319C0AC6AE405E40DA446D6E70236B6B2644632
S11319D0240A4C55DBE7019CB3E71024B1E7013A34
S11319E092B200260127DB05DB0D98460423024C46
S11319F0A246D0E7019CA4E7FFFF000010B544799C
S1131A001523012C01D0180010BD047A0023002CEA
S1131A10F9D1002A58D04B78002B44D003681B7EA0
S1131A20DB0710D40A78D1090023002904D1530913
S1131A30DB012E498C4663441F21114001228A4058
S1131A409A610523DFE70A78D4090023002C04D126
S1131A505309DB01254CA44663441F24144001228E
S1131A60A2405A6103681A7ED20701D58A789A6225
S1131A70C2790023002AC6D102680421137E0B42D6
S1131A80FCD0117E00234907BDD5538B5B0701D5DC
S1131A90042353838379012B02D0936A0023B2E792
S1131AA0936A0023AFE70A78D1090023002904D1FF
S1131AB05309DB010D498C4663441F211140012267
S1131AC08A405A6100239EE70A78D109002300293D
S1131AD004D15309DB0105498C4663441F2111409D
S1131AE001228A409A6100238DE7C04600440041E8
S1131AF0F0B5DE4657464E464546E0B583B08A46C5
S1131B003823C45C333B052C02D01233002A4BD15A
S1131B10180003B03CBC90469946A246AB46F0BDC3
S1131B200237BFB241465346595C09025B460B4338
S1131B3018E08379012B2AD0936A013EB6B2664538
S1131B4027D00268137E2342FCD07B1C9BB29846AC
S1131B505346DB5D9B4681790129E1D06946CB8000
S1131B60CB884746117E214202D0DB05DB0D936210
S1131B70C379002BE1D00268137E2B42FCD0137E84
S1131B802B42DAD0538B2B42D3D05583D1E7936ABF
S1131B90D3E742790023012ABAD1016801320B7ECE
S1131BA01342FCD00023B3E7013A96B20027012484
S1131BB00425014B9C46C4E7FFFF0000F8B58000F4
S1131BC0704BC45826683723E75C3622A25C174062
S1131BD0337EB57D1D40EB0702D56379012B1ED002
S1131BE06B0711D5738B5B075AD5637A012B08D029
S1131BF01E223823E254353B6372023333753B07AC
S1131C004AD4B36A04237383AB0703D56379012BE6
S1131C1000D197E06DB2002D00DAA9E0F8BD637A37
S1131C20002B22D0637A002BDAD02168E26A137881
S1131C30DBB2501CE062A079012827D09BB2DB05FF
S1131C40DB0D8B62A38E013B9BB2A386A38E9BB25A
S1131C50002BC5D101333375637A012BC0D1E379ED
S1131C60002BBDD10233B375BAE7474B1B88B3626F
S1131C70638E013B9BB26386638E9BB2002B01D1C2
S1131C80013333756379012BCCD0A9E75078000276
S1131C9003430232E262D2E72000A3699847B0E727
S1131CA0637A012B28D023689B6ADB05DB0DDAB24B
S1131CB0A16A0A70A26A511CA162A179012934D0D7
S1131CC0238E013B9BB22386238E9BB2002B00D034
S1131CD09AE700223833E254343B3375637A022B9B
S1131CE029D0637A002B00D08EE7BB0700D48BE7A2
S1131CF020002369984787E723689B6A638E013B2A
S1131D009BB26386638E9BB2002B00D07CE70433C6
S1131D10337500223433E254353B6372FB0700D43D
S1131D2072E72000E36898476EE71B0A5370A36AC2
S1131D300133A362C4E77B0700D465E7200063692D
S1131D40984761E7637A012B00D063E7E379002BBE
S1131D5000D05FE7023333750133637200223533F9
S1131D60E254FB0700D455E72000E368984751E7A5
S1131D708023337533767B0600D44FE7636A2000F3
S1131D8098474BE76011002078110020F0B5DE463B
S1131D9057464E464546E0B591B005000C00160086
S1131DA029600800BC4B9847020023680520DB0724
S1131DB006D511B03CBC90469946A246AB46F0BD50
S1131DC0236817309B07F4D4B449086A971C01238D
S1131DD0BB4003430B620FA92D27F35D0B70143234
S1131DE0D3B202931800AE4B98470298AD4B984774
S1131DF0F05D0021AC4B9847F37A6B712423F35CBC
S1131E00AB712523F35CEB71F37E2B72337F6B7222
S1131E102B6898461800A04B9847143000220E23D4
S1131E2006A98C4663441A80328A02928023DB011D
S1131E309A4200D19EE00FD9C023DB01029A9A4254
S1131E4000D192E080231B029A4200D01FE10323B9
S1131E5006930023079308E080239B019A4200D055
S1131E6015E1102306930F3B079333680593F3683A
S1131E70039373690493337E9B462623F35C9A464B
S1131E8073689946002B00D1A0E080235B05994537
S1131E9000D184E0737E002B02D0B37E424693735C
S1131EA02A68029FD369002BFCD10E3306AA9446FC
S1131EB063441B8842469381059B039A1343049A07
S1131EC013434A4613431F435B461B021F435346B7
S1131ED05B071F432723F35C002B01D104331F430B
S1131EE0737E9B02327F52021343727F12021343AA
S1131EF02422B25C520413432522B25C120413431D
S1131F00B17AF27A114319433389FF2B00D181E06E
S1131F1080225204174319432C23F35C002B03D172
S1131F20624B9B789B0701D580231F432A68D369A2
S1131F30002BFCD1434659602A68D369002BFCD19D
S1131F4043461F600EAB80221A7000225A70DA706A
S1131F509A70336B0A93736B0B93B36B0C93F36BA1
S1131F6002930D9300270AAE63E008230693073B10
S1131F7007937AE733680593F368039373690493CB
S1131F80337E9B462623F35C9A4673689946002B5E
S1131F9018D080235B05994501D0002025E0272334
S1131FA0F35C002B00D075E7336A1F00C0B2404BCE
S1131FB0984701000E2206AB9C46624438003D4B14
S1131FC0984712E008230693002307932723F35C22
S1131FD0002B0ED0069B0093079B0E2206A98C466D
S1131FE06244B16A306A344FB847002800D0E0E652
S1131FF050E7336A1F00C0B22D4B98470100069B7F
S11320000093079B0E2206A88446624438002A4F98
S1132010B847EAE7F37E002B00D17DE78023DB0499
S11320201F4379E72000254B984707E00137042F29
S11320300DD0F9B2BB0098590028F3D0431CF5D059
S11320400EA90870000CC0B21D4B9847EEE70023A0
S1132050EB602B616B61AB61EB612B62AB626B621A
S11320600022EB85AB853033EA540133EA54013363
S1132070EA540133EA542868074B9847040011498D
S1132080114B9847A400114BE550002091E6102312
S1132090069300230793E8E691150000000400402E
S11320A039290000AD280000CD13000000200041B4
S11320B0552900000F130000391300001914000003
S11320C0312A00006D210000CD15000060110020B0
S11320D0C2791C23002A01D118007047C28D92B224
S11320E0173B002AF8D10368DA69002AFCD1198564
S11320F002211A7E0A42FCD00023EDE782791C23D8
S1132100002A01D118007047828D92B2173B002A31
S1132110F8D10268107E4007F4D5D369002BFCD1B6
S1132120538BDBB298061DD0980703D50223538343
S11321301833E7E7580703D5042353831A33E1E739
S1132140D80703D5012353831233DBE7D80603D51D
S1132150102353833233D5E79B0603D520235383BF
S11321602133CFE7138D0B800023CBE7F8B5800034
S1132170624BC5582C68E369002BFCD1237EA67DF5
S11321801E403023EB5C3122AF5C1F40F30722D5A5
S1132190EB8D9BB2002B1CD0AA6A1378DBB2511CC6
S11321A0A962697901290ED09BB2DB05DB0D238579
S11321B0EB8D013B9BB2EB85002B0CD101332375D6
S11321C00133A37507E0517809020B430232AA6276
S11321D0EBE701232375B30706D5022323750022F9
S11321E03133EA54FB071AD4730765D5AB8D9BB220
S11321F0002B5FD0638BDBB21A0714D43F22134049
S1132200002B34D09A0711D51A223223EA54303BDA
S113221063837B0750D528006B6998474CE02800FE
S1132220EB689847E0E737221340E9E75A0705D5FA
S11322301E223223EA542E3B6383EAE7DA0705D5EC
S113224013223223EA54313B6383E2E7DA0605D5ED
S113225042223223EA54223B6383DAE720221A42E1
S1132260D7D021323223EA54123B6383D1E7238D42
S1132270DB05DB0DDAB2696A0A706A6A511C6962AD
S11322806979012910D0AB8D013B9BB2AB85002B42
S113229012D10433237500222E33EA54BB070BD525
S11322A028002B69984707E01B0A53706B6A0133B7
S11322B06B62E8E704232375F30604D51023237522
S11322C02376FB060ED4B30604D520232375237688
S11322D03B070BD4330704D5082323752376BB06A9
S11322E008D4F8BD2800EB699847ECE72800AB69EF
S11322F09847EFE72B6A28009847F2E7601100201F
S113230010B5082803D880001B4B1B589F4600209B
S113231030E01A4B18692DE0194B1B6A9B059B0F83
S11323201848D84026E0154B586923E0134B1B6826
S113233000209B071ED512491022CB681A42FCD0FC
S11323400E4B1B685B0701D40F4813E000200F4BB2
S113235098470A4B9B681B041B0C58430AE0502304
S1132360074AD35C00205B0704D5044BD86801E01E
S11323708020000210BDC0463C4600003801002009
S11323800008004000127A00006CDC0255290000AD
S113239070B50C490B6A04788578407801221040A6
S11323A080014026B34303432A40D2018020834363
S11323B013430322224012020348034013430B62D7
S11323C070BDC04600080040FFFCFFFFF0B5DE46CC
S11323D057464E464546E0B50100264B9B469B8A30
S11323E0457800784242424191468878CA789446BA
S11323F00A7990464E7B0F7B8C7B8A681E494A6122
S113240001214A4692009146042293434A461343CB
S113241042460A40D2009046082293434246134360
S113242062460A40120194461022934362461343C3
S1132430084040012022934303430F40BF01402042
S113244083433B430E40F6014030834333437938A2
S113245005402D02094803402B4321400903084845
S113246003400B435A4693823CBC90469946A2468D
S1132470AB46F0BD0008004038010020FFF8FFFF24
S1132480FFEFFFFF10B5037A9B061B0C42899205F0
S1132490920D134318494B608379C27913434288E0
S11324A08488224313434278D20113430B60037898
S11324B0042B11D0202B0ED1037B9B06028A1343DD
S11324C0C28912040D490A4013430B4A93601168F0
S11324D00B4B0B43136010BD037B9B06028A134313
S11324E0C289120405490A401343034A93601368DE
S11324F004210B431360EEE7380100200000FF03C2
S113250024040000082803D88000254B1B589F464C
S1132510172044E0234A136A02210B43136200206C
S11325203DE0204A936902210B439361002036E089
S11325301C4A138A02210B43138200202FE0194AFC
S1132540938A02210B439382002028E016490B68EA
S1132550022213430B60134B9A8419000E32CB688A
S11325601A42FCD0104A91680E4BD96252689A62A2
S113257000229A8419001032CB681A42FCD00A4B0C
S11325801B689BB2074A9384002008E00549442253
S11325908B5C022003438B54002000E00020704732
S11325A0604600000008004038010020F0B58FB0FC
S11325B0C222D200454B9A60454A53681E218B4380
S11325C01A390B435360022201AB1A700024414DA7
S11325D0E0B201A9A8470134252CF9D10AA80023A7
S11325E003708370802212028260C3700122027120
S11325F083730621417043730273374B9847052058
S1132600364B984731490222CB681A42FCD005ABBD
S113261000210022598099809A71DA713F315981E1
S11326203B3919705A702E4B1B689B0E3F2B4BD0B5
S113263005A80372B723DB000382032303731C334F
S1132640C381284B984704A801258570002606708D
S11326504570254B98470620204FB847234B984791
S113266001AC029566702672667205232370210000
S113267001201F4B984701201E4B984725702100CD
S11326800020144B984700201B4B98470720B8475D
S11326900E49D022CB681340D02BFBD1174A00231C
S11326A0137253729372D37201A901224A604B7060
S11326B04B7207330B700A7200200D4B98470020B1
S11326C00C4B98470FB0F0BD203BB1E70008004029
S11326D00040004139290000CD23000005250000F9
S11326E0246080008524000091230000012700005D
S11326F025270000DD270000AD280000000400406D
S1132700064A936908210B4393610122044B1A7012
S113271019000B781342FCD17047C04600040040F6
S1132720000C004070B5060004000D782D0205432E
S11327304B78002B02D08023DB021D434B7A002B05
S113274002D080231B031D434868012810D9431E6F
S1132750184234D1022830D90223002201325B000E
S11327609842FBD812023243140080235B031D43BA
S11327700B7A002B02D080239B031D43134A53780A
S11327805BB2002BFBDB124B9847124B1E700F4AB7
S113279053785BB2002BFBDB0C4B9C601A00537824
S11327A05BB2002BFBDB094A5368802149020B40D2
S11327B01D435560084B984770BD0022D2E70402C0
S11327C0344380239B021D43D2E7C046000C0040E3
S11327D089110000080C0040C911000010B5040064
S11327E00B4A53785BB2002BFBDB0A4B98470A4B2E
S11327F01C70074A53785BB2002BFBDB044A516818
S113280080235B020B435360044B984710BDC046C2
S1132810000C004089110000040C0040C9110000A4
S113282070B504001A4A53785BB2002BFBDB194BDA
S11328309847194B1C70164A53785BB2002BFBDB8C
S1132840134E7068C004C00E144B98470500124B19
S11328501C707668F602F60F114B1C700C4A537804
S11328605BB2002BFBDB0A4B9C682402240C0D4B4F
S11328709847002E07D1012C07D9210028000A4BC4
S11328809847050001E00134E540280070BDC046CA
S1132890000C004089110000040C004001230000DA
S11328A0080C0040C9110000CD31000010B504002F
S11328B0064B9847064B1C70064A53888021C90171
S11328C00B435380044B984710BDC0468911000048
S11328D0020C0040000C0040C911000010B50400B7
S11328E00F4B98470F4B1C700F4A53881B05180F4A
S11328F053880E490B40538053880D490B40538035
S113290011008022D2014B881342FCD106494A8827
S113291003020648024013434B80064B984710BD00
S113292089110000020C0040000C0040FFF0FFFF82
S1132930FFBFFFFFC911000010B50C782402044347
S1132940024B9847A4B2024B5C8010BDDD28000006
S1132950000C004010B50400064B9847064B1C7051
S1132960064B5C882405240F054B98472000054B33
S1132970984710BD89110000020C0040000C004073
S1132980C91100002128000030B5D378002B35D1BF
S11329901378802B29D01B068024640223435478A7
S11329A00225AC4306D19478002C20D18024A402C3
S11329B0234341605478013C012C1CD90D042D0C97
S11329C0A024E4052C431C4384620D0CD02424066B
S11329D02C431C438462D478002C22D15B031CD585
S11329E09378012B1ED0416117E00023D7E7C02460
S11329F0E4022343DDE70D4C2340DFE741600C0490
S1132A00240CA023DB05234383620C0CD0231B0678
S1132A1023438362D378002B03D15378013B012BEA
S1132A2002D930BD8161F8E78160FAE7FFFFFBFF5F
S1132A3010B50A00C1090023002904D14309DB01B0
S1132A4005498C4663441F2420400121814018001D
S1132A50024B984710BDC04600440041892900003C
S1132A607047000010B5054B9847054B9847054B38
S1132A709847054B9847054B984710BDAD25000076
S1132A80F9110000612A0000612A0000612A000097
S1132A90FEE70000F8B52A4A2A4B9A4211D01A00E0
S1132AA0294B9A420DD2294A03339B1A9B080133BE
S1132AB09B000022234822498C58845004329A42B5
S1132AC0FAD1234A234B9A420AD2D34321495B18B1
S1132AD003218B4304339B18002102C29342FCD18F
S1132AE01D4AFF211D4B8B439360FD3990235B00EE
S1132AF01B4AD1501B4AD3780325AB4302242343FA
S1132B00D370D3780C27BB4308263343D370164BBA
S1132B10987B30229043202210439873997BB943C9
S1132B20314399739A7BAA4322439A730F4A536899
S1132B3080210B4353600E4B98470E4B9847FEE79A
S1132B40A849000000000020980000200400002094
S1132B5098000020C011002000ED00E000000000FB
S1132B600070004100500041004800410040004115
S1132B704D3500008D2C0000F0B5C64600B50C00A4
S1132B80904600280FD1002A11DD8F18094E0A4DF6
S1132B90306821002B6898470134BC42F8D1404684
S1132BA004BC9046F0BD01235B429846F7E780469B
S1132BB0F5E7C046841100207C110020F0B5C6461C
S1132BC000B50E0015000138022810D8002A11D0D3
S1132BD000240C4B98460C4F43461868315D3B6803
S1132BE09847002808DB0134A542F5D106E001240A
S1132BF0644203E0140001E001246442200004BCA8
S1132C009046F0BD84110020801100200300064A84
S1132C101268002A04D0044A1068C318136070476D
S1132C200249014A1160F6E750010020C03100203A
S1132C3001204042704780239B014B600020704775
S1132C40012070470020704770B582B005000E0067
S1132C5000226B46DA80064C6B46991D2800A0477B
S1132C600028F9D16B4606331B88337002B070BD5F
S1132C70FD20000070B505008CB2034E2100280031
S1132C80B0470028FAD170BDD1200000F0B5DE466F
S1132C9057464E464546E0B595B0D04B9847D04B85
S1132CA098478023DB05049300230593FF2204A99E
S1132CB00A8100228B72CB720124242104A844547B
S1132CC00131445401314354013143540E930531CD
S1132CD043540131435409930382C3760276027745
S1132CE0427613238376427780235B030793BD4B9D
S1132CF01093BD4B119301235B42129313939623BC
S1132D001B020C93B94DBA4B1D60BA4ABA4B1A60F8
S1132D10BA4ABB4B1A600200BA492800BA4B98471A
S1132D20BA4F3B6898680021B94EB0473B68586871
S1132D300021B0472E683000B64B98471F23184037
S1132D408440B54B1C602B68DA69002AFCD13368D7
S1132D50023213433360013AB04B1A70BFF35F8FF2
S1132D6062B6AF4B9847AF4B9847AF48AF4CA047BC
S1132D70AF4AB049B048A0470024B04B9846B04B86
S1132D80B04A9446634403933AE000243BE0002EA7
S1132D900ED02000C84706000228F8D9AA48B84730
S1132DA0AA48B847AA4D2000A8470228FBD1EEE75D
S1132DB0A8489E4DA847A848A8472000A74B984775
S1132DC00A2838D88000A64B1B589F46A548974B25
S1132DD098472000A44B98478101090CA348934BC2
S1132DE0984720009D4B9847830728D1A0488F4BD4
S1132DF09847974D2000A8470028FBD00134E4B23F
S1132E00C0478442C1D0611C9A48884B9847904B74
S1132E109946864FBDE79848844B9847D9E7974829
S1132E20824B9847D5E79648804B9847D1E7954819
S1132E307E4B9847CDE794487C4B9847D1E72000D8
S1132E40894B98474000914B984254D90300904ACB
S1132E50944663441E0001938E48744DA8478E48DF
S1132E60A8478E4B984702908022520031002000E0
S1132E708B4B98472025002841D18A4F8A4E082140
S1132E806F48B84700283ED10020B04700283ED103
S1132E90013D002DF3D1814B984701000298834BEB
S1132EA09847011E07D0FA204002814B9847010041
S1132EB080485E4B984780485C4B984720007F4B86
S1132EC09847002827D15E4F80235B01FA183D0004
S1132ED07B4B08C59542FCD17A48544B98478022D5
S1132EE0520001992000784B9847002817D0774862
S1132EF04E4B98477AE776484C4B984776E77348A9
S1132F004A4B984772E77148484B98476EE76F48B9
S1132F10464B98476AE76F48444B984766E75F4BD0
S1132F20984702900026464B9A466B4B9B46534665
S1132F301E6008215046D84700282BD10020674B3B
S1132F40984700282AD10136202EF0D1534B9847B8
S1132F5001000298554B9847011E07D0FA20400201
S1132F60534B984701005348304B984752482F4BD6
S1132F70994698475A48C847802252000199200030
S1132F80474B98470026002800D1C0E05548274BFE
S1132F9098472BE74D48254B984727E74B48234B49
S1132FA0984723E70020404B9847002803D04D481A
S1132FB01E4B98471AE7224B1B68B34209D1404B7A
S1132FC01F4A52689A4200D190E04748174B9847ED
S1132FD00CE74548154B984708E7C046652A0000AA
S1132FE0851100000200160002001700881100205D
S1132FF084110020752C000080110020492C000051
S11330007C110020001400428D1D000034000020BB
S1133010D93500000916000000E100E0310000206D
S11330205D3100002D030000B0460000A53500000E
S1133030D0460000DC460000E84600004D030000D6
S113304054010020F80F00002C4700004447000002
S1133050510300006C470000804700000108000095
S1133060844600008847000029080000C447000087
S1133070BC4800000047000090470000944700004F
S1133080A8470000AC470000B8470000FF1F00003D
S113309000E0FFFFF047000004480000B1310000E9
S11330A055080000DD08000009090000BD310000DA
S11330B0CD310000204800002C48000051080000D9
S11330C0FFAA005564480000790900001448000074
S11330D0D447000034480000E9090000150A000044
S11330E07C4800009C480000AC4800003B00114AAA
S11330F09968914200D068E7043303999942F7D163
S11331000136202E05D10C480C4B98476EE60C4B2B
S113311099463B000122524204C3AB42FCD1082130
S11331204846084B9847002800D13BE70648034B24
S113313098475BE6FFAA00552C480000A53500001F
S113314054010020DD0800009C480000024A136876
S1133150013313607047C0465411002010B500229B
S11331600D4B1A6000200D4B9847FA2189000C4B37
S1133170984701380B4B98420DD80B4A50600B48C6
S1133180036A1B021B0AC02109060B4303620023C6
S113319093600733136010BD5411002021280000F0
S11331A0CD310000FFFFFF0010E000E000ED00E083
S11331B0014B18687047C04654110020814202D266
S11331C0081A01387047081AFCE700000022430877
S11331D08B4274D303098B425FD3030A8B4244D3DB
S11331E0030B8B4228D3030C8B420DD3FF2209021D
S11331F012BA030C8B4202D31212090265D0030BDC
S11332008B4219D300E0090AC30B8B4201D3CB03D1
S1133210C01A5241830B8B4201D38B03C01A524113
S1133220430B8B4201D34B03C01A5241030B8B4215
S113323001D30B03C01A5241C30A8B4201D3CB0200
S1133240C01A5241830A8B4201D38B02C01A5241E5
S1133250430A8B4201D34B02C01A5241030A8B42E8
S113326001D30B02C01A5241CDD2C3098B4201D300
S1133270CB01C01A524183098B4201D38B01C01A7E
S1133280524143098B4201D34B01C01A52410309F5
S11332908B4201D30B01C01A5241C3088B4201D3A4
S11332A0CB00C01A524183088B4201D38B00C01A51
S11332B0524143088B4201D34B00C01A5241411A78
S11332C000D20146524110467047FFE701B5002085
S11332D000F006F802BDC0460029F7D076E7704733
S11332E07047C046002B11D1002A0FD1002900D10C
S11332F0002802D00021C943081C07B4024802A1D7
S11333004018029003BDC046D9FFFFFF03B46846CE
S113331001B5029800F030F8019B9E4602B00CBC47
S11333207047C046F0B5CE46474615042D0C2E0016
S113333080B50704140C3F0C9946030C7E435D438F
S1133340674363437F19340CE4199C46A54203D9AF
S113335080235B029846C4444B465143434336049E
S1133360360C250C24046544A41959184919200065
S11333700CBC90469946F0BDF0B557464E464546BE
S1133380DE46E0B5040083B00D00924699468B42B8
S11333902FD82CD04946504600F0AEF8290006003C
S11333A0200000F0A9F8331A9846203B9B4600D52C
S11333B074E053465A4693401F0053464246934096
S11333C01E00AF4229D826D05B46A41BBD41002B6A
S11333D000DA79E0002200230092019301235A4687
S11333E093400193012342469340009319E08242A3
S11333F0D0D900220023009201930C9B002B01D012
S11334001C605D600098019903B03CBC90469946ED
S1133410A246AB46F0BDA342D6D9002200230092B7
S113342001934346002BE8D0FB0772081A43464633
S11334307B080EE0AB4201D1A2420CD8A41A9D41F4
S1133440012024196D410021013E24184D41002E14
S113345006D0AB42EED9013E24196D41002EF8D1BD
S11334605B460098019900196941002B22DB2B006F
S11334705A46D3402A004446E2401C005B461500ED
S1133480002B2CDB26009E40330026004746BE401E
S11334903200801A994100900191AEE74246202300
S11334A09B1A5246DA40414613004A468A401700A6
S11334B01F4382E7424620239B1A2A0046469A402D
S11334C02300F3401343D5E74246202300219B1AEF
S11334D00022009101920122DA40019282E74246E1
S11334E0202326009B1ADE402F00B44697406646F0
S11334F03B003343C9E7C04610B5002903D100F0AF
S113350007F8203002E0081C00F002F810BDC046A5
S11335101C2101231B04984201D3000C10391B0AFF
S1133520984201D3000A08391B09984201D30009C3
S1133530043902A2105C40187047C046040302021A
S113354001010101000000000000000070B5002628
S11335500C4D0D4C641BA410A64209D1002601F0A9
S11335600FFA0A4D0A4C641BA410A64205D170BD83
S1133570B300EB5898470136EEE7B300EB58984791
S11335800136F2E78C4900008C4900008C490000A8
S11335909049000003008218934200D170471970CB
S11335A00133F9E70FB40B4B13B51C68002C05D09D
S11335B0A369002B02D1200000F0BCF905AB049AEA
S11335C0A1682000019300F091FB16BC08BC04B074
S11335D01847C046340000204A424A41802310B5AF
S11335E05200DB0000F002F810BD0000F0B51D0031
S11335F04F4B85B01E6804000F000092002E05D0CA
S1133600B369002B02D1300000F094F9494B9C427D
S113361050D17468009B022B05D0012B00D984E0A3
S1133620002D00DA81E02100300000F015F9616B13
S1133630002908D023004433994202D0300000F01E
S113364085FA002363630023A3616360A3891B06D7
S113365003D52169300000F079FAA389364A134072
S1133660A381009B022B5AD003AB02AA2100300095
S113367000F0F6F9A3891843A081002D24D1029DFE
S1133680280000F059FA0195071E42D1029B0193CC
S1133690AB4239D1012040420223A2891343A381C2
S11336A00023A36023004733236023610123636164
S11336B005B0F0BD214B9C4201D1B468AAE7204B70
S11336C09C42A7D1F468A5E7002FD9D0B369002B99
S11336D002D1300000F02EF9009B012B03D1A38905
S11336E0009A1A43A2810820A38927602761656193
S11336F0184018D0012018400023984211D06D4280
S1133700A360A5611800D3E7019800F015FA071E1D
S1133710C0D08023A289019D1343A381D6E7002052
S1133720BAE7A560C4E7A060C2E701204042BFE752
S1133730340000200C4900005CF3FFFF2C4900001A
S1133740EC480000F7B58A8905000C00130760D423
S11337504B68002B04DC0B6C002B01DC0020FEBD4D
S1133760E76A002FFAD000232E682B6080235B01C8
S11337701A4034D0606DA3895B0706D56368C01A0C
S1133780636B002B01D0236CC01A0200216A002352
S11337902800E76AB847A189431C06D12B681D2B72
S11337A031D82C4ADA40D3072DD50023636023692E
S11337B02360CB0405D5431C02D12B68002B00D118
S11337C06065616B2E600029C8D0230044339942A0
S11337D002D0280000F0BAF900206063BFE701239B
S11337E0216A2800B847431CC5D12B68002BC2D0DE
S11337F01D2B01D0162B01D12E60AFE74023A289E7
S11338001343A381ABE740230B430120A381404230
S1133810A5E70F69002FA1D00B680F60DB1B019394
S11338200023920700D14B69A360019B002B00DCAD
S113383094E7019B3A00216A2800A66AB047002851
S113384003DC4023A2891343DFE7019B3F181B1AC3
S11338500193EAE7010040200B6970B505000C00F4
S1133860002B01D1002070BD002804D08369002BF7
S113387001D100F05FF80B4B9C4209D16C680C221B
S1133880A35E002BEED021002800FFF75BFFEAE7E0
S1133890054B9C4201D1AC68F1E7044B9C42EED14C
S11338A0EC68ECE70C4900002C490000EC480000EF
S11338B010B5024900F0B2F810BDC04659380000F6
S11338C0002310B504000360436083608181436674
S11338D0C281036143618361190008225C30FFF7F0
S11338E059FE054B24626362044BA362044BE362FA
S11338F0044B236310BDC0465942000081420000BE
S1133900B9420000E542000070B568254A1E5543DF
S11339100E002900743100F063F9041E08D0002160
S11339202A00016046600C30A0606832FFF732FE66
S1133930200070BD836913B50400002B28D1836473
S1133940C3640365134B144A1B6882620193984253
S113395001D101238361200000F020F86060200081
S113396000F01CF8A060200000F018F80022E060CD
S113397004216068FFF7A4FF01220921A068FFF772
S11339809FFF02221221E068FFF79AFF0123A3613F
S113399013BDC046E8480000B1380000F8B51E4B1E
S11339A007001E68B369002B02D13000FFF7C2FF85
S11339B04836B4687368013B04D53368002B07D0DC
S11339C03668F6E70C22A55E002D0DD06834F2E7C8
S11339D004213800FFF798FF30600028F0D10C2351
S11339E004003B602000F8BD012320005B42E3811A
S11339F00233A38165662560A56065602561656104
S1133A00A561082229005C30FFF7C4FD6563A56346
S1133A10A564E564E6E7C046E8480000F7B504009D
S1133A200700002601914834002C01D13000FEBD6E
S1133A306368A5680093009B013B009301D524684B
S1133A40F2E7AB89012B08D90E22AB5E013304D017
S1133A5029003800019B984706436835EBE70000CE
S1133A6070B50E001D000E23C95E90B0140000292D
S1133A7007DA00232B60B3891B0611D48023DB00F3
S1133A800FE001AA00F026FD0028F2DBF022029BE1
S1133A9012021340054A9B185A4253412B60EDE72A
S1133AA040230020236010B070BDC04600E0FFFF3B
S1133AB0F7B502268B8905000C00334206D023009B
S1133AC047332360236101236361F7BD01AB6A4679
S1133AD0FFF7C6FF00990700280000F081F80028CE
S1133AE008D10C22A35E9A05EFD4032293431E430C
S1133AF0A681E4E70F4BAB628023A28920601343C5
S1133B00A381009B20616361019B002B0DD00E23D8
S1133B10E15E280000F0F0FC002806D00322A3890F
S1133B2093431A0001231343A381A0893843A0813E
S1133B30CBE7C046B138000010B5034B010018684C
S1133B4000F04EF810BDC0463400002070B50500EA
S1133B50002910D00C1F2368002B00DAE418280079
S1133B6000F0FBFC1D4A1368002B05D16360146050
S1133B70280000F0F3FC70BDA34209D92168601845
S1133B808342F3D118685B6841182160EEE71300A3
S1133B905A68002A01D0A242F9D919685818A042DB
S1133BA00BD120680918581819608242E0D11068B6
S1133BB05268411819605A60DAE7A04202D90C230E
S1133BC02B60D5E721686018824203D110685268DF
S1133BD04118216062605C60CAE7C0465811002049
S1133BE0032370B5CD1C9D43083506000C2D1ED251
S1133BF00C25A9421DD8300000F0AFFC254A1468FA
S1133C002100002919D1244C2368002B03D1300052
S1133C1000F010FB20602900300000F00BFB431C77
S1133C202CD10C233000336000F098FC03E0002D0D
S1133C30DFDA0C233360002070BD0B685B1B1AD4E1
S1133C400B2B03D90B60CC18256003E08C420ED1FA
S1133C5063681360300000F081FC200007220B3001
S1133C60231D9043C31AE7D05A42E250E4E74B685D
S1133C7063600C00EEE70C004968C2E70323C41C30
S1133C809C43A042E0D0211A300000F0D3FA431C38
S1133C90DAD1C6E7581100205C110020936810B5F2
S1133CA0013B9360002B05DA9469A34208DBCBB295
S1133CB00A2B05D01368581C10601970C8B210BDC7
S1133CC000F016FBFBE7F8B506000F001400D5184A
S1133CD0AC4201D1002007E021783A003000FFF720
S1133CE0DDFF0134431CF3D1F8BD0000F0B59FB0F3
S1133CF006000F0014000593002804D08369002BEC
S1133D0001D1FFF717FE7F4B9F425CD17768BB89D7
S1133D101B0762D53B69002B5FD0002306AD6B61A6
S1133D2020336B761033AB760294029C2378002BFD
S1133D305DD1029BE31A04930DD0049B029A3900CF
S1133D403000FFF7C0FF431C00D1CCE06A69049B3C
S1133D50944663446B612378002B00D1C3E00122B5
S1133D60002352426A6002A95432521801342B6073
S1133D70EB60AB601370AB6521780522624800F0FC
S1133D80E1FB631C9C46002835D12968CB0604D589
S1133D90532302AA20309B1818700B0704D5532311
S1133DA02B2002AA9B18187023782A2B2CD00020D1
S1133DB00A21099B2278303A092A00D86BE00028AE
S1133DC02AD0099328E0514B9F4201D1B7689EE75E
S1133DD04F4B9F429BD1F76899E73900300000F0C0
S1133DE0F1FA002899D0012040421FB0F0BD252BE4
S1133DF09FD001349AE7444B2968C01A01238340B9
S1133E000B432B606446B7E7059B181D1B680590A0
S1133E10002B3ADB0993644623782E2B0BD163786D
S1133E20621C2A2B3FD1059B02341A1D1B68059284
S1133E30002B35DB079321780322364800F082FB00
S1133E40002807D0334B2A68C01A40238340134309
S1133E502B6001342178631C06222F4802932976B3
S1133E6000F070FB002844D02C4B002B2FD1296884
S1133E70059B0722C90528D59B189343083305934E
S1133E806B69039A9B186B614FE75B42EB600223FB
S1133E900B432B60BFE74B4301349B18012089E798
S1133EA001235B42C6E7002314000A201A006B605A
S1133EB021783039092903D9002BBCD00792BAE7FD
S1133EC04243013452180123F2E70733D5E705AB27
S1133ED000933A00124B2900300000E000BF039029
S1133EE0039B0133CCD1BB895B0600D57BE70B98E0
S1133EF07BE705AB00933A00094B2900300000F042
S1133F007FF8ECE70C4900004C4900002C49000004
S1133F10EC4800005249000056490000000000002F
S1133F20C73C0000F7B5150001938A680B6900903F
S1133F300C00934200DA130022002B604332127803
S1133F40002A01D001332B6023689B0602D52B681D
S1133F5002332B60062723681F4027D023004333F6
S1133F601B785A1E93412268920630D4220001998C
S1133F7043320098089EB047431C25D0062320688E
S1133F802A68E16803400025042B03D18D1AEB4312
S1133F90DB171D40A3682269934201DD9B1AED18CB
S1133FA00027BD4220D1002010E00137E3682A68D1
S1133FB09B1A9F42D2DA22000123193201990098F8
S1133FC0089EB047431CF0D101204042FEBD302082
S1133FD0E1184331087021005A1C45310978A218B0
S1133FE0433202331170C1E7220001231A320199CE
S1133FF00098089EB047431CE6D00137D1E7000083
S1134000F0B58BB006920A004332079305900492F0
S11340100A7E0C00109B6E2A00D18FE017D8632A09
S11340202CD008D8002A00D199E0582A54D0260070
S11340304236327029E0642A01D0692AF7D1216816
S11340401A68080623D5111D1960156825E0732A1E
S113405000D188E008D86F2A29D0702AE7D120221D
S113406009680A43226003E0752A20D0782ADED149
S113407022007821453211706C4A30E00E001A6833
S11340804236111D196013683370012379E0490623
S1134090D9D5111D19600023D55E002D03DA2D2317
S11340A0049A6D421370624B0A2703932FE0206831
S11340B01968050603D5081D18600D6805E040065B
S11340C0F9D50D68081D1860ADB2594B0827039344
S11340D06F2A18D00A2716E045310A70544A039211
S11340E01A682168101D18601568080622D5CB07C8
S11340F002D52023194321601027002D03D120234A
S113410022689A4322602300002243331A706368B2
S1134110A360002B5CDB0422216891432160002D05
S113412058D1049E002B64D02600039B42361B7892
S113413033705EE04806DAD5ADB2D8E709681A688C
S1134140080605D5111D1960136862691A6006E036
S11341504906F7D5111D19601368A28A1A80002335
S1134160049E236154E01A68111D19601668002129
S11341706268300000F0E6F9002801D0801B60601E
S1134180636823610023049A137041E023693200B9
S113419006990598079DA847431C43D0236800252A
S11341A09B070FD4099BE06898423DDA18003BE076
S11341B022000123193206990598079EB047431C33
S11341C030D00135E368099A9B1A9D42F0DBE9E798
S11341D0002DA9D0049E28003900FFF77DF8039B29
S11341E0013E5B5C280033703900FEF7EFFF051ECB
S11341F0F1D1082F09D12368DB0706D5636822694A
S1134200934202DC3023013E3370049B9B1B2361E9
S1134210079B09AA00932100069B0598FFF782FEDD
S1134220431CB3D1012040420BB0F0BD6E490000E5
S11342305D490000002370B5064C050008002360AA
S1134240FEF7E4FC431C03D12368002B00D02B6051
S113425070BDC046BC11002070B50C000E25495F2E
S113426000F07EF9002803DB636D1B18636570BDE5
S1134270A389024A1340A381F9E7C046FFEFFFFF79
S1134280F8B51F008B8905000C001600DB0505D569
S11342900E23C95E0022022300F040F9A389054AD7
S11342A028001340A38132000E23E15E3B0000F09E
S11342B075F8F8BDFFEFFFFF70B50C000E25495FE0
S11342C000F02CF9A389421C03D1054A1340A381B1
S11342D070BD802252011343A3816065F8E7C04694
S11342E0FFEFFFFF10B50E23C95E00F0E1F810BD2B
S11342F0F8B505000E001400002804D08369002BD3
S113430001D1FFF717FB224B9C422DD16C68A369A6
S1134310A360A3891B0731D52369002B2ED0236802
S11343202269F7B2981A6369F6B2984205DB210054
S11343302800FFF791FA002826D1A3680130013B39
S1134340A36023685A1C22601F706369984204D0DA
S1134350A389DB071AD50A2E18D121002800FFF7FC
S11343607BFA002812D00FE00A4B9C4201D1AC68C2
S1134370CDE7094B9C42CAD1EC68C8E7210028006C
S113438000F020F80028CAD0012676423000F8BD9B
S11343900C4900002C490000EC48000070B50500F1
S11343A0080011000022064C22601A00FEF706FCE9
S11343B0431C03D12368002B00D02B6070BDC04682
S11343C0BC110020364B70B51D6806000C00002D92
S11343D005D0AB69002B02D12800FFF7ABFA314BB3
S11343E09C420FD16C680C23E25E93B219072DD462
S11343F0D90611D409230120336037331343A38131
S1134400404270BD284B9C4201D1AC68EBE7274B7E
S11344109C42E8D1EC68E6E75B0713D5616B0029A1
S113442008D023004433994202D03000FFF78EFBBA
S1134430002363632422A3899343A381002363603D
S1134440236923600823A2891343A3812369002BD2
S11344500BD1A0218022A389890092000B409342B2
S113446003D021003000FFF723FB0123A28913406E
S113447011D00023A36063695B42A3610020236918
S11344808342BED10C23E25E1306BAD54023134304
S1134490A3810138B5E7920700D46369A360EDE70F
S11344A0340000200C4900002C490000EC480000B6
S11344B0002370B5064C050008002360FEF7B8FB26
S11344C0431C03D12368002B00D02B6070BDC04671
S11344D0BC110020002370B5064C05000800110033
S11344E02360FEF7A8FB431C03D12368002B00D0F4
S11344F02B6070BDBC110020002370B5064C050074
S113450008002360FEF79CFB431C03D12368002BA7
S113451000D02B6070BDC046BC11002070B50500F2
S1134520080011000022064C22601A00FEF78AFBE4
S1134530431C03D12368002B00D02B6070BDC04600
S1134540BC110020C9B28218904201D100207047EA
S113455003788B42FBD00130F6E7704770470000C8
S113456070B50500080011000022064C22601A00F4
S1134570FEF702FB431C03D12368002B00D02B6001
S113458070BDC046BC110020000000000A000000FD
S11345900C0000000D0000000F00000014000000DB
S11345A01A0000001E000000230000002800000084
S11345B02D00000034000000370000003C00000023
S11345C046000000500000000A00000064000000E3
S11345D0E8030000102700000000000000000000B5
S11345E000000000000000000A0000000C000000B1
S11345F00D0000000F00000014000000190000006E
S11346001E00000023000000280000002D00000010
S113461032000000370000003C00000046000000AB
S11346205000000000080042000C0042001000424C
S11346300014004200180042001C00421223000033
S11346400E2300000E2300007023000070230000DE
S113465026230000182300002C2300005E23000002
S11346603025000010250000102500009C250000C6
S1134670222500003E250000142500004C250000E2
S11346808C250000362E0000162E0000262E000079
S1134690362E0000362E00002E2E0000362E00008E
S11346A0362E0000362E0000CC2D00001E2E0000F9
S11346B00C0A0D2D2D2053442F4D4D432043617280
S11346C064204578616D706C65202D2D0A0D000005
S11346D031353A30333A3330000000004A756C20EB
S11346E020392032303138002D2D20436F6D706910
S11346F06C65643A202573202573202D2D0A0D0046
S1134700506C6561736520706C756720616E205311
S1134710442F4D4D43206361726420696E20736C95
S11347206F742025642E0A0D00000000436172643A
S113473020696E7374616C6C204641494C45440A8F
S11347400D000000506C6561736520756E706C75AA
S11347506720616E642072652D706C7567207468C3
S11347606520636172642E0A0D0000004361726467
S113477020696E666F726D6174696F6E3A0A0D001E
S11347802020202000000000534448430000000083
S1134790534400004D4D4320486967682044656ECA
S11347A073697479000000004D4D43005344204365
S11347B04F4D424F00000000556E6B6E6F770A0D2F
S11347C0000000000A0D202020202564204D420A0C
S11347D00D0000005B4D656D6F7279206973207464
S11347E06F6F20736D616C6C2E5D0A0D000000000C
S11347F04361726420522F5720746573743A0A0D12
S11348000000000020202020526561642E2E2E20FE
S1134810000000005B4641494C5D0A0D00000000A9
S1134820202564204B427073200000005B4F4B5DD9
S11348300A0D000043617264206973207772697401
S1134840652070726F746563746564205B575249A8
S11348505445205445535420534B49505045445DCE
S11348600A0D0000202020205772697465207061B1
S1134870747465726E2E2E2E2000000020202020DD
S11348805265616420616E6420636865636B2070A7
S113489061747465726E2E2E2E2000005265616460
S11348A0205B4641494C5D0A0D0000004368656386
S11348B06B205B4641494C5D0A0D000054657374DE
S11348C02066696E69736865642C20706C65617319
S11348D06520756E706C7567676564207468652003
S11348E0636172642E0A0D0038000020000000008D
S11348F000000000000000000000000000000000B4
S113490000000000000000000000000000000000A3
S11349100000000000000000000000000000000093
S11349200000000000000000000000000000000083
S11349300000000000000000000000000000000073
S1134940000000000000000000000000232D302BB8
S11349502000686C4C00656667454647003031327C
S113496033343536373839414243444546003031D3
S11349703233343536373839616263646566000032
S1134980F8B5C046F8BC08BC9E467047DD00000080
S1134990F8B5C046F8BC08BC9E467047B500000098
S10B49A0D8E9FF7F01000000CB
S11349A8BFF35F8F01380028FAD170470000000078
S11349B800000000250000000000000000000000C6
S11349C800000000000000000000000000000000DB
S11349D80501000038000020000000000C49000018
S11349E82C490000EC480000000000000000000012
S11349F800000000000000000000000000000000AB
S1134A08000000000000000000000000000000009A
S1134A18000000000000000000000000000000008A
S1134A28000000000000000000000000000000007A
S10B4A38000000000000000072
S9030000FC
