:1000000070210020D9110000D5110000D511000089
:1000100000000000000000000000000000000000E0
:10002000000000000000000000000000D5110000EA
:100030000000000000000000D5110000D5110000F4
:10004000D5110000D5110000D51100006501000098
:10005000390A0000D51100000501000075090000F3
:100060008509000095090000A509000000000000B6
:1000700000000000751100008511000095110000BE
:10008000A5110000B5110000C5110000000000001E
:1000900000000000D5110000D5110000D5110000AE
:1000A000D511000010B5064C2378002B07D1054B65
:1000B000002B02D0044800E000BF0123237010BDD4
:1000C0002000002000000000D8160000084B10B5EA
:1000D000002B03D00749084800E000BF0748036829
:1000E000002B00D110BD064B002BFBD09847F9E741
:1000F0000000000024000020D8160000D8160000E0
:100100000000000010B50B4B1C690B498A69986808
:1001100002439A60094B8B61002C05D0206863680C
:100120009847A468002CF9D1024BD9689A688A4391
:100130009A6010BD0000002000040042FFFF0F0F76
:10014000064A136A02210B4313620122044B1A7000
:1001500019000B781342FCD17047C04600040040E0
:100160000004004210B5144B1A681468D18A938AAF
:100170001940207AE379034058B2002806DBD807FB
:100180000FD5CB070AD40123237210BD4B0702D42D
:1001900080232372F9E713699847F9E79368984732
:1001A000F1E79B07F1D58B0702D402232372ECE71A
:1001B000D3689847F9E7C0466C000020F0B5DE46EA
:1001C00057464E464546E0B587B080460491160036
:1001D0001F000022002300218B463F240120210024
:1001E000009601975C4603944446059413E020244E
:1001F000641A0500E540A84614E0009C019D121B0E
:10020000AB415C464D462C43A346039C45462C43DC
:100210000394013925D3202464420C19E7D4050046
:10022000A540A84604008C40A14692185B411400EA
:100230001D00059E4F463E40B446049E47463E4044
:10024000B246664657463E4303D006002643320078
:100250002B00009C019D9D42DBD8CED19442D8D882
:10026000CBE7039B5846190007B03CBC9046994623
:10027000A246AB46F0BD10B5490840230024814298
:1002800002D2180010BD1C00091A631C9BB28842E0
:10029000F9D94023FF2CF4D814800023F1E70000A3
:1002A000F0B583B00F00160008AA117804004C4383
:1002B0004022BC4202D9100003B0F0BD002B14D183
:1002C000020008000021194CA04701003A00002359
:1002D0000020174CA04700220123121A8B41120C58
:1002E0001B041A4332800022E5E70022012BF9D1DA
:1002F0000A00002300210D4CA04702000B000092D1
:100300000193380000210A4CA047050080239B017F
:1003100040229842CFD8790FF800009A019BA0475D
:10032000EA00821AD2B252032A43DBE7CD1500005D
:10033000BD01000010B582B004000E4B1B78002BED
:1003400007D0002905D10B4B5B78834210D01D20CC
:100350000CE001A90C700C20074B98470C20074BB0
:100360009847044B5C7001221A70002002B010BD47
:100370000020FBE73C000020B90F00002D0F00001B
:100380002B4B984223D00FD92A4B98422FD02A4B7F
:10039000984242D101293AD0002946D0022938D0CA
:1003A000032938D0002039E0244B984235D1012967
:1003B00007D0002933D0022905D0032905D0002019
:1003C0002CE01F482AE01F4828E01F4826E00129AA
:1003D00007D0002925D0022905D0032905D0002007
:1003E0001CE01A481AE01A4818E01A4816E00129D9
:1003F00007D0002917D0022905D0032905D00020F5
:100400000CE015480AE0154808E0154806E01548D4
:1004100004E0154802E0154800E000207047144849
:10042000FCE70320FAE71348F8E71348F6E7C0466D
:10043000000C00420010004200140042000800427C
:10044000030005000300060003000700030001008D
:1004500003001E0003001F000300090003000A0040
:1004600003000B000300110003001200030013003F
:1004700003000400030008000300100030B585B03D
:100480006A460F4B32CB32C21B6813600300009ADE
:10049000824211D0019A82420AD0029A824209D045
:1004A0000020039A9A4201D005B030BD033004E029
:1004B000012002E0022000E00020C0B2F4E7C046C4
:1004C00068160000F0B5DE4657464E464546E0B594
:1004D0008DB005000C00160029600800804B98477D
:1004E000020023680520DB0706D50DB03CBC904612
:1004F0009946A246AB46F0BD236817309B07F4D45B
:100500007849086A971C0123BB4003430B620BA97F
:10051000737F0B700D32D7B23800734B9847380099
:10052000724B9847707F0021714B9847F37A6B713B
:10053000337DAB71737DEB712B6898461800684B67
:1005400098470D3000220E2302A98C4663441A807E
:1005500033680393F3689A46B37D9B467368994664
:10056000002B14D080235B05994530D1F37D002BFF
:1005700031D133691F00C0B25E4B984701000E2293
:1005800002AB9C46624438005B4B984720E0F37D09
:10059000002B0BD01023009300230E2202A98C46BF
:1005A0006244B1693069554FB84711E033691F00A3
:1005B000C0B2504B984701001023009300230E2235
:1005C00002A88446624438004C4FB84700E000203F
:1005D000002800D089E72A68039F138A1BB2002BEA
:1005E000FBDB0E2302AA944663441B8842465381D8
:1005F00053461F434B461F435B465B071F43F37D38
:10060000002B01D104331F43317D4904737D1B044A
:100610000B43B17AF27A114319433389FF2B03D08C
:100620008022520417431943337F002B03D1344BEC
:100630009B789B0701D580231F432A68138A1BB22E
:10064000002BFBDB434659602A68138A1BB2002B40
:10065000FBDB43461F600AAB80221A7000225A70EF
:10066000DA709A70336A0693736A0793B36A0893D1
:10067000F36A03930993002706AE06E02000214B9E
:10068000984707E00137042F0DD0F9B2BB00985905
:100690000028F3D0431CF5D00AA90870000CC0B2A2
:1006A000194B9847EEE70023AB60EB602B61AB6121
:1006B0006B610022EB83AB832033EA540133EA54AD
:1006C0000133EA540133EA542868054B9847040083
:1006D0000E490F4B9847A4000E4BE550002004E74D
:1006E0007D04000000040040B90F00002D0F000041
:1006F00035030000D50F000077020000A1020000C2
:100700000020004181030000B1100000E907000053
:100710001109000070000020F8B506000C0015005B
:1007200007680A4B9847F38B9BB2002B03D0084B0A
:1007300098470520F8BDF583054B9847B46105221D
:100740002323F254223B7B730020F3E7F50A0000D9
:10075000350B0000F8B506000C00150007680A4BC1
:100760009847B38B9BB2002B03D0084B98470520CA
:10077000F8BDB583054B9847746105222223F254D6
:100780001E3B7B730020F3E7F50A0000350B0000E9
:10079000931C9B0019502021012393401A00435CB5
:1007A000134343547047000010B51723002A01D1AA
:1007B000180010BDC4790533002CF9D0014B9847BF
:1007C0000300F5E71907000010B51723002A01D12F
:1007D000180010BD84790533002CF9D0014B9847DF
:1007E0000300F5E755070000F8B58000464BC558F3
:1007F0002C68238A1BB2002BFBDBA37B667B1E408D
:100800002023EB5C2122AF5C1F40F30722D5EB8B4A
:100810009BB2002B1CD0AA691378DBB2511CA961D2
:10082000697901290ED09BB2DB05DB0D2383EB8BAD
:10083000013B9BB2EB83002B0CD1013323730133BB
:10084000637307E0517809020B430232AA61EBE7B8
:1008500001232373B30706D5022323730022213318
:10086000EA54FB0716D473074DD5AB8B9BB2002B14
:1008700047D0238ADBB25A0720D09A070ED51A2216
:100880002223EA54203B23827B073CD52B69280096
:10089000984738E02800AB689847E4E75A0705D541
:1008A0001E222223EA541E3B2382EDE7DB07EBD511
:1008B00013222223EA54213B2382E5E7238BDB0525
:1008C000DB0DDAB269690A706A69511C696169797C
:1008D000012910D0AB8B013B9BB2AB83002B12D113
:1008E0000433237300221E33EA54BB070BD5EB6895
:1008F0002800984707E01B0A53706B6901336B614E
:10090000E8E704232373F8BD70000020704700005F
:1009100030B50B4B1B78002B0ED10A4C0A4D2560CD
:100920000A4B00221A6065605A60A5609A60E56013
:10093000DA600132024B1A708000024BC15030BDA8
:100940003E000020400000200D0900007000002043
:1009500010B582B001AC07232370013363700133FB
:10096000A3700133E370024B9847205602B010BDCC
:100970007D04000010B5024B1B680020984710BD95
:100980004000002010B5024B5B680120984710BD65
:100990004000002010B5024B9B680220984710BD14
:1009A0004000002010B5024BDB680320984710BDC3
:1009B00040000020044A137802210B43137053783F
:1009C0005BB2002BFBDB70470018004000B583B022
:1009D000124A936940210B43936101A900230B70D4
:1009E00003200F4B984703200E4B98470E4A13786D
:1009F00001210B43137053785BB2002BFBDB0B4BD5
:100A000019004031002204C39942FCD11022084B46
:100A10001A60084B984703B000BDC0460004004070
:100A2000B90F00002D0F00000018004080000020CA
:100A300000E100E0B509000070B50022104B1A700B
:100A4000002310491F25104E0D4C0AE00D4908E007
:100A500023780133DBB223700F2B10D800211F2B1A
:100A6000F4D9280018400122824008691042EFD0D2
:100A70000A619B009B59002BEAD09847E8E770BDBC
:100A8000C0000020001800408000002070B5002049
:100A9000084B98470500084CFA218900A047074BEE
:100AA000186007492800A047064B18600522064B2E
:100AB0001A6070BDA10E0000B514000014000020E3
:100AC00040420F001800002010E000E000B583B0A5
:100AD00001AB80221A700A785A704A789A708A7824
:100AE000DA701900014B984703B000BDB110000047
:100AF000704700000C4B1B68002B06D1EFF31083EE
:100B0000002B07D00022094B1A70074A13680133E3
:100B10001360704772B6BFF35F8F0022044B1A70E8
:100B20000132024B1A70F0E7500000205400002000
:100B30001C000020084B1A68013A1A601B68002B41
:100B400009D1064B1B78002B05D00122044B1A70EB
:100B5000BFF35F8F62B67047500000205400002042
:100B60001C00002010B5072803D88000164B1B5826
:100B70009F46002027E0154BD86824E0144B1B6AE1
:100B80009B059B0F1348D8401DE0104B18691AE0D5
:100B90000E4B1B6800209B0715D50D491022CB6812
:100BA0001A42FCD0094B1B685B0701D40A480AE0D3
:100BB00000200A4B9847054B9B681B041B0C5843AD
:100BC00001E08020000210BD7816000058000020CF
:100BD0000008004000127A00006CDC02D50F000013
:100BE00070B50C490B6A0478857840780122104072
:100BF00080014026B34303432A40D201802083432F
:100C000013430322224012020348034013430B62A2
:100C100070BDC04600080040FFFCFFFF072803D856
:100C200080001E4B1B589F46172036E01C4A136A53
:100C300002210B43136200202FE0194A936902211D
:100C40000B439361002028E0154A138A02210B43CD
:100C50001382002021E0124A938A02210B439382DF
:100C600000201AE00F4B1A6802210A431A601B6821
:100C70000D4A13400A4A938411001022CB681A428D
:100C8000FCD0084A9168064BD96251689962126893
:100C900092B29A84002000E000207047981600006D
:100CA00000080040580000207FFF0000F0B5C64655
:100CB00000B584B0C222D200284B9A60284A5368FB
:100CC0001E218B43536002236A4613700024254D76
:100CD000E0B26946A84701341C2CF9D103A80024CE
:100CE00044700125857004701F4B984706201F4BE8
:100CF00098471F4B984701956B465C701C725C725D
:100D000005236A461370694601201A4FB84701202F
:100D1000194EB04701956B465C70062398466B46AA
:100D200042461A701C725C7269460320B847032061
:100D3000B047124B1C725C729C72DC7201956B4660
:100D40005C7042461A701C725C7269460020B8479B
:100D50000020B04704B004BC9046F0BD000800403D
:100D600000400041B90F0000E10B00001D0C000025
:100D7000810D0000A50D00005D0E00000004004084
:100D8000064A936908210B4393610122044B1A70B0
:100D900019000B781342FCD17047C0460004004094
:100DA000000C004070B5060004000D782D020543CC
:100DB0004B78002B02D08023DB021D434B7A002BA3
:100DC00002D080231B031D434868012810D9431E0D
:100DD000184234D1022830D90223002201325B00AC
:100DE0009842FBD812023243140080235B031D4358
:100DF0000B7A002B02D080239B031D43134A5378A8
:100E00005BB2002BFBDB124B9847124B1E700F4A54
:100E100053785BB2002BFBDB0C4B9C601A005378C1
:100E20005BB2002BFBDB094A5368802149020B406F
:100E30001D435560084B984770BD0022D2E704025D
:100E4000344380239B021D43D2E7C046000C004080
:100E5000F50A0000080C0040350B000010B5040036
:100E60000B4A53785BB2002BFBDB0A4B98470A4BCB
:100E70001C70074A53785BB2002BFBDB044A5168B5
:100E800080235B020B435360044B984710BDC04660
:100E9000000C0040F50A0000040C0040350B000077
:100EA00070B504001A4A53785BB2002BFBDB194B78
:100EB0009847194B1C70164A53785BB2002BFBDB2A
:100EC000134E7068C004C00E144B98470500124BB7
:100ED0001C707668F602F60F114B1C700C4A5378A2
:100EE0005BB2002BFBDB0A4B9C682402240C0D4BED
:100EF0009847002E07D1012C07D9210028000A4B62
:100F00009847050001E00134E540280070BDC04667
:100F1000000C0040F50A0000040C0040650B0000C6
:100F2000080C0040350B0000B514000010B504009B
:100F3000064B9847064B1C70064A53888021C9010E
:100F40000B435380044B984710BDC046F50A000080
:100F5000020C0040000C0040350B000010B50400EE
:100F60000F4B98470F4B1C700F4A53881B05180FE7
:100F700053880E490B40538053880D490B405380D2
:100F800011008022D2014B881342FCD106494A88C5
:100F900003020648024013434B80064B984710BD9E
:100FA000F50A0000020C0040000C0040FFF0FFFFBB
:100FB000FFBFFFFF350B000010B50C78240204437F
:100FC000024B9847A4B2024B5C8010BD5D0F00003D
:100FD000000C004010B50400064B9847064B1C70EF
:100FE000064B5C882405240F054B98472000054BD1
:100FF000984710BDF50A0000020C0040000C0040AC
:10100000350B0000A10E000030B5D378002B35D190
:101010001378802B29D01B06802464022343547844
:101020000225AC4306D19478002C20D18024A40260
:10103000234341605478013C012C1CD90D042D0C34
:10104000A024E4052C431C4384620D0CD024240608
:101050002C431C438462D478002C22D15B031CD522
:101060009378012B1ED0416117E00023D7E7C024FD
:10107000E4022343DDE70D4C2340DFE741600C042D
:10108000240CA023DB05234383620C0CD0231B0616
:1010900023438362D378002B03D15378013B012B88
:1010A00002D930BD8161F8E78160FAE7FFFFFBFFFD
:1010B00010B50A00C1090023002904D14309DB014E
:1010C00005498C4663441F242040012181401800BB
:1010D000024B984710BDC046004400410910000073
:1010E0007047000010B5054B9847054B9847054BD6
:1010F0009847054B9847054B984710BDAD0C00002D
:10110000F10A000041010000CD090000E1100000DB
:1011100070B58000164BC45823689D7B227E637E89
:1011200013401D40EB0706D4AB070BD4EB0610D4DD
:10113000AB0615D470BD2000A36898470123226830
:101140009373F1E72000E3689847022322689373C2
:10115000ECE7200023699847102322689373E7E7A0
:10116000200063699847236820229A73E2E7C0460B
:10117000C400002010B50020014B984710BDC046A8
:101180001111000010B50120014B984710BDC04659
:101190001111000010B50220014B984710BDC04648
:1011A0001111000010B50320014B984710BDC04637
:1011B0001111000010B50420014B984710BDC04626
:1011C0001111000010B50520014B984710BDC04615
:1011D00011110000FEE7000010B51A4A1A4B9A429E
:1011E00011D01A00194B9A420DD2194A03339B1A97
:1011F0009B0801339B000022134812498C588450ED
:1012000004329A42FAD1134A134B9A420AD2D34378
:1012100011495B1803218B4304339B18002102C240
:101220009342FCD10D4AFF210D4B8B4393600D4A35
:1012300053687F390B4353600B4B98470B4B9847D0
:10124000FEE7C046D8160000000000202000002065
:1012500004000020200000207001002000ED00E0CC
:101260000000000000400041211600004114000071
:101270007047704710B5032202490348034B984753
:1012800010BDC0460001002008010020A907000091
:1012900010B5032202490348034B984710BDC046CE
:1012A0000401002030010020A907000030B583B000
:1012B00001AC012363700022A27023702100192069
:1012C000034DA84721001B20A84703B030BDC046EE
:1012D000CD0A000030B599B00CAB8024E4050C9425
:1012E00000225A60FF2018819A72DA720121197562
:1012F00059759A75DA759A611A775A77009401923E
:101300006C462081A272E27221756175A275E27548
:10131000069222776277E12252021A610492C42275
:101320009203DA60802252030392012252421A622F
:101330005A62224999622249D962224B0893224B70
:1013400009930A920B92214D214C0CAA21492800A5
:10135000A0470028F9D1204D1D4C6A461F4928009E
:10136000A0470028F9D1194D2C6820001C4B984744
:101370001F2318401E3B83401A4A13602A68138AB1
:101380001BB2002BFBDB2368022213432360124DA8
:101390002C682000124B98471F2318401E3B8340A7
:1013A000104A13602A68138A1BB2002BFBDB2368E8
:1013B00002221343236019B030BDC04602000E0064
:1013C00002000F00030004000300050008010020D4
:1013D000C504000000100042300100200008004257
:1013E0005109000000E100E070B50E4C01220E49E9
:1013F00020000E4DA84700220D492000A8470D4EA1
:1014000001220D493000A84700220C492000A847BE
:1014100021230320E15C0143E154F25C0243F254D6
:1014200070BDC04630010020751200009107000019
:1014300071120000080100209112000073120000D8
:1014400070B5104B9847104B9847104B9847104B6E
:101450009847104B984701220F4B1A70BFF35F8FCC
:1014600062B6802292040D4B9A610D4E0D4D0E4CCA
:10147000032231002800A04703220C490C48A04752
:10148000F6E7C046E51000008D0A0000AD1200002E
:10149000D5120000E91300001C00002000440041A8
:1014A0000001002030010020C907000004010020D5
:1014B00008010020002243088B4274D303098B42A9
:1014C0005FD3030A8B4244D3030B8B4228D3030C14
:1014D0008B420DD3FF22090212BA030C8B4202D3B6
:1014E0001212090265D0030B8B4219D300E0090ADE
:1014F000C30B8B4201D3CB03C01A5241830B8B42E7
:1015000001D38B03C01A5241430B8B4201D34B03CF
:10151000C01A5241030B8B4201D30B03C01A524134
:10152000C30A8B4201D3CB02C01A5241830A8B42B9
:1015300001D38B02C01A5241430A8B4201D34B02A2
:10154000C01A5241030A8B4201D30B02C01A524106
:10155000CDD2C3098B4201D3CB01C01A52418309BA
:101560008B4201D38B01C01A524143098B4201D3F4
:101570004B01C01A524103098B4201D30B01C01A1F
:101580005241C3088B4201D3CB00C01A5241830899
:101590008B4201D38B00C01A524143088B4201D3C6
:1015A0004B00C01A5241411A00D201465241104626
:1015B0007047FFE701B5002000F006F802BDC04605
:1015C0000029F7D076E770477047C046F0B5CE46A1
:1015D000474615042D0C2E0080B50704140C3F0C53
:1015E0009946030C7E435D43674363437F19340C84
:1015F000E4199C46A54203D980235B029846C44463
:101600004B46514343433604360C250C24046544B1
:10161000A4195918491920000CBC90469946F0BDF0
:1016200070B500260C4D0D4C641BA410A64209D1C8
:10163000002600F041F80A4D0A4C641BA410A64293
:1016400005D170BDB300EB5898470136EEE7B30003
:10165000EB5898470136F2E7C4160000C4160000A4
:10166000C4160000C816000000080042000C00422A
:101670000010004200140042760B0000720B0000C4
:10168000720B0000C20B0000C20B00008A0B0000AE
:101690007C0B0000900B0000480C0000280C0000A0
:1016A000280C0000980C00003A0C0000560C0000BA
:1016B0002C0C0000640C0000F8B5C046F8BC08BC57
:1016C0009E467047CD000000F8B5C046F8BC08BC87
:0816D0009E467047A5000000D2
:1016D80000000000080000000000000000000000FA
:1016E80000000000401F000008000000010000008A
:04000003000011D90F
:00000001FF
