:100000000C9434000C9446000C9446000C9446006A
:100010000C9446000C9446000C9446000C94460048
:100020000C9446000C9446000C9446000C94460038
:100030000C9446000C9446000C9446000C94460028
:100040000C9446000C9446000C9451000C9446000D
:100050000C9446000C9446000C9446000C94460008
:100060000C9446000C94460011241FBECFEFD8E03C
:10007000DEBFCDBF21E0A0E0B1E001C01D92A630FF
:10008000B207E1F70E94A0000C94D5000C94000088
:1000900080E480937C00EAE7F0E0808186688083DA
:1000A00008951F920F920FB60F9211242F933F9332
:1000B0004F935F936F937F938F939F93AF93BF9370
:1000C000CF93DF93EF93FF938091C0008823BCF41C
:1000D000A6ECB0E0E0ECF0E080910001909101012D
:1000E0009C012F5F3F4F30930101209300012C9121
:1000F000EC01CE5FDE4F2883808188236CF38091F2
:10010000000190910101049744F0109201011092B6
:10011000000182E091E00E94C200FF91EF91DF9127
:10012000CF91BF91AF919F918F917F916F915F918F
:100130004F913F912F910F900FBE0F901F901895E8
:100140000E94A6000E9448007894FFCF80E190E0D2
:100150009093C5008093C400E1ECF0E08081886951
:1001600080838EE08093C200E0ECF0E080818260CA
:1001700080830895E0ECF0E0908195FFFDCF8093BF
:10018000C60008950F931F93CF93DF93EC018C016A
:100190000C5F1F4F89910E94BA00C017D107D1F799
:0E01A000DF91CF911F910F910895F894FFCF3A
:00000001FF
